S01C000044656C74615F52686F5F636F6E74726F6C6C65722E73726563F3
S113000068C0000084C0000082C0000080C00000FE
S11300107EC000007CC000007AC0000078C00000F0
S113002076C0000074C0000072C0000070C0000000
S11300306EC000006CC000006AC0000068C0000010
S113004066C0000064C0000062C0000060C0000020
S11300505EC000005CC000005AC0000058C0000030
S113006056C0000054C0000052C0000050C0000040
S11300706FC100004CC000004AC0000048C000002E
S113008085C2000044C0000042C00000072C7AA5CD
S1130090BA6CC590DA3B9365FC8BBC53F810FD3CFD
S11300A05692834DBD879D3AB63DCBC9BF5BBE73A7
S11300B0DA0FC93F05A84CCDB2D44EB93836A902DF
S11300C00C50B9918688083CA6AAAA2ABE00000052
S11300D0803F11241FBECFEFD0E4DEBFCDBF11E0BF
S11300E0A0E0B1E0EAECF2E100E00BBF02C007904F
S11300F00D92A433B107D9F721E0A4E3B1E001C024
S11301001D92A938B207E1F74CD50C94630978CF56
S11301106F927F928F929F92AF92CF92EF92FF92C3
S11301200F931F93CF93DF93ACE7B0E01C92EAE701
S1130130F0E010829BE7692E712CE30118823EE700
S1130140832E912CE40118823081D0E88D9FC00168
S11301501124832B8083E40168838C91D0E44D9F28
S1130160A0011124482B4C938C9150E2059F8001EF
S11301701124082B0C938081282B2083808190E20A
S1130180E99E70011124E82AE082D3018C91C82AE7
S1130190CC928081AA0CAA0CAA0CA82AA082DF9176
S11301A0CF911F910F91FF90EF90CF90AF909F90C0
S11301B08F907F906F90089590917C00907E9093A3
S11301C07C0090917C00892B80937C0080917A0044
S11301D0806480937A0080917A0084FFFCCF8091C0
S11301E07A00806180937A00809178002091790070
S11301F090E0922B0895AF92CF92EF920F93E1E6A5
S1130200F0E080E88083108211B812B88FEF84B9CF
S113021015B880EF87B918B88BEF8AB91BB891EA83
S113022094BD82E085BD16BC17BC18BC90938000B9
S113023080938100109285001092840010928700B0
S113024010928600109289001092880010928B0000
S113025010928A001092B6009093B0008093B1007F
S11302601092B2001092B3001092B4001092900059
S11302709DE090939100109295001092940010923A
S11302809700109296001092990093E6909398002C
S113029010929B0010929A0010926E0010926F00C0
S11302A01092700080937100A12CC12CE12C00E00D
S11302B027E041E069E081E02BDF60E070E088EA5C
S11302C091E4BBD6615071097093CD006093CC006A
S11302D0E9ECF0E088E18083AAECB0E08C918660E0
S11302E08C938081806880830F91EF90CF90AF9042
S11302F00895E0919400F0919500A0919800B09138
S11303009900DA011C92D901ED93FC93FC01DB0105
S1130310BC016A5F7F4F408151819091C80097FF73
S1130320FCCF2091CE009091C80097FFFCCF809124
S1130330CE0030E0382B21933193CA01880F991FE6
S1130340281B390B2D933D93E617F70721F70895E2
S11303501F920F920FB60F9211240BB60F922F9388
S11303603F934F935F936F937F938F939F93AF9339
S1130370BF93EF93FF938091C80087FFFCCF8091D8
S1130380CE008535A1F0479AFF91EF91BF91AF91CF
S11303909F918F917F916F915F914F913F912F9199
S11303A00F900BBE0F900FBE0F901F901895809169
S11303B0C80087FFFCCF8091CE00982F9B7019F75F
S11303C04798807F803709F4DDC0B8F4803209F49F
S11303D0CBC038F5882309F47CC08031A1F6EDE761
S11303E0F1E091918091C80085FFFCCF9093CE00FD
S11303F081E0E338F807A9F7C6CF803A09F4AAC028
S113040028F5803809F48DC0803909F0BCCF28E381
S113041031E045E351E061E771E08DE791E069DFA8
S1130420B2CF803309F447C0803509F0ACCFE2E4A1
S1130430F1E028E431E091918091C80085FFFCCF80
S11304409093CE002E173F07B1F79DCF803B09F460
S11304504FC0803C09F097CF8091C80087FFFCCF44
S11304608091CE00809388008091C80087FFFCCFE4
S11304708091CE0080938A008091C80087FFFCCFD2
S11304808091CE0087BD8091C80087FFFCCF80910A
S1130490CE0088BD8091C80087FFFCCF8091CE003C
S11304A08093B3008091C80087FFFCCF8091CE0079
S11304B08093B40068CFE5E6F1E091918091C800A3
S11304C085FFFCCF9093CE0081E0EB36F807A9F7C7
S11304D05ACFE3E8F1E029E831E091918091C80036
S11304E085FFFCCF9093CE002E173F07B1F74BCF7B
S11304F0EFE5F1E045E651E08091C80087FFFCCFCD
S11305009091CE008091C80087FFFCCF2091CE004F
S1130510892F90E0922B819391934E175F0761F797
S113052032CFE3E8F1E049E851E08091C80087FF69
S1130530FCCF9091CE008091C80087FFFCCF209122
S1130540CE00892F90E0922B819391934E175F07F1
S113055061F719CF26E331E044E351E06BE671E043
S113056087E791E0C6DE0FCFE7E7F1E09191809154
S1130570C80085FFFCCF9093CE0081E0ED37F807EB
S1130580A9F701CF81E080935E01FDCE1F920F9207
S11305900FB60F9211248F93809135018F5F809352
S11305A03501809134018F5F809334018F910F90D6
S11305B00FBE0F901F901895EF92FF920F931F9309
S11305C0CF93DF9380E0F8DD7C0183E0F5DDEC017F
S11305D006E511E0B701FF0C880B990B29D420E044
S11305E030E040E85AE363D52CEE31E548EB50E4C3
S11305F05ED52DEC3CEC4CEB5FE317D3F801608344
S1130600718382839383BE01DD0F880B990B10D411
S113061020E030E040E85AE34AD52CEE31E548EBDF
S113062050E445D52DEC3CEC4CEB5FE3FED2F801F5
S11306306483758386839783DF91CF911F910F9194
S1130640FF90EF9008954F925F926F927F928F92F6
S11306509F92AF92BF92CF92DF92EF92FF92CF938D
S1130660DF9300D000D000D0CDB7DEB79E838D835A
S11306704A015B01CB01BA013DD36B017C01ED81E1
S1130680FE814480558066807780C501B40192D58F
S11306904B015C01ED81FE812081318142815381D6
S11306A0C701B60104D569837A838B839C83A50132
S11306B09401C301B201FBD49B01AC0169817A812D
S11306C08B819C81B2D29B01AC01ED81FE81608360
S11306D0718382839383C501B401E9D44B015C0126
S11306E0A3019201C701B601E2D49B01AC01C5018B
S11306F0B4019CD2ED81FE816483758386839783E4
S113070026960FB6F894DEBF0FBECDBFDF91CF9112
S1130710FF90EF90DF90CF90BF90AF909F908F901D
S11307207F906F905F904F9008954F925F926F9279
S11307307F928F929F92AF92BF92CF92DF92EF926D
S1130740FF920F931F93CF93DF93CDB7DEB76497D8
S11307500FB6F894DEBF0FBECDBF7C01FC018080D4
S11307609180A280B380C501B401C4D20EE411E02B
S113077020E030E048EC51E49AD4F8012081318142
S11307804281538153D26D877E878F87988BC501B1
S1130790B40110D520E030E048EC51E488D4F801ED
S11307A0248135814681578141D2698B7A8B8B8B29
S11307B09C8BF701C480D580E680F780C701B60121
S11307C099D24B015C01C701B601F4D46B017C01E1
S11307D004E211E020E030E048EC51E4C501B4014A
S11307E066D4F80120813181428153811FD22D8545
S11307F03E854F85588919D24B015C0120E030E0D9
S113080048EC51E4C701B60152D4F8012481358182
S1130810468157810BD229893A894B895C8905D253
S113082069877A878B879C87A5019401C501B401E8
S11308303ED42B013C0129853A854B855C85CA0150
S1130840B90135D49B01AC01C301B201EFD1BCD4D1
S11308506B017C019B01AC012AD420E030E048EC20
S113086054E4E4D120E030E048EC54E4DED12B0140
S11308703C0120E030E040EA52E4C701B60117D45D
S11308809B01AC01C301B20138D2C1D12B013C019F
S113089020E030E040E252E4C501B40108D4A701ED
S11308A096012BD269837A838B839C8320E030E08A
S11308B040E252E469857A858B859C85F8D3A7014B
S11308C096011BD26D837E838F839887B301A20127
S11308D0CE010196B8DE2D813E814F81588569890C
S11308E07A898B899C89A2D12AE3E22E21E0F22E17
S11308F0F701248135814681578197D14B015C01F1
S113090002E411E029813A814B815C816D857E8509
S11309108F8598898BD1F701208131814281538160
S113092084D1F80160837183828393838482958266
S1130930A682B78264960FB6F894DEBF0FBECDBF11
S1130940DF91CF911F910F91FF90EF90DF90CF90A7
S1130950BF90AF909F908F907F906F905F904F90DB
S11309600895CF93DF93CDB7DEB728970FB6F894E9
S1130970DEBF0FBECDBF88E0ECE2F1E0DE011196F0
S113098001900D928A95E1F7CE010196CEDEEAE35D
S1130990F1E0A2E4B1E04D915D916D917C911397EA
S11309A0408351836283738314968D919D910D903E
S11309B0BC91A02D84839583A683B78328960FB614
S11309C0F894DEBF0FBECDBFDF91CF9108952F9273
S11309D03F924F925F926F927F928F929F92AF92CB
S11309E0BF92CF92DF92EF92FF920F931F93CF9318
S11309F0DF93CDB7DEB7A4970FB6F894DEBF0FBE72
S1130A00CDBF19821A821B821C821D821E821F8204
S1130A10188619861A861B861C8620E030E040E280
S1130A2051E460914201709143018091440190919D
S1130A3045013DD369A37AA38BA39CA3CB01ABA1AE
S1130A40BCA18D879E87AF87B88B20E030E040E261
S1130A5051E4609146017091470180914801909161
S1130A60490125D3698B7A8B8B8B9C8B1D8A1E8ABB
S1130A701F8A188ECE0101961C0120E0822E21E0EF
S1130A80922EFE013D96F8A3EF8F6C01412C512C60
S1130A90320148965C018E010F5E1F4F740189A1DB
S1130AA09AA1ABA1BCA19C01AD01F7016191719127
S1130AB0819191917F01FBD29B01AC01C301B201F1
S1130AC0B5D02B013C010A151B0539F0F801219121
S1130AD03191419151918F01E8CFF6016193719366
S1130AE0819391936F01FCE08F0E911C8F8D98A1DF
S1130AF0C816D90631F0F6014080518062807380B7
S1130B00CACF7E01FFE1EF0EF11CF10161917191F9
S1130B10819191911F012ED358D16F3F710509F036
S1130B20BCF56130FFEF7F07ACF177FD38C0F80109
S1130B30108261830E5F1F4FE016F10631F78A8D34
S1130B4080938A00898D809388008B8D87BD8C8DDE
S1130B5088BD8D8D8093B3008E8D8093B400A49650
S1130B600FB6F894DEBF0FBECDBFDF91CF911F91BA
S1130B700F91FF90EF90DF90CF90BF90AF909F9038
S1130B808F907F906F905F904F903F902F9008953B
S1130B906FEFCDCF6FEFF80160831182CBCF6195FA
S1130BA0FACF29DBDEDE4798469A479A10929100E5
S1130BB0789480915E01811118C0C0E4FDDC86E563
S1130BC091E0B3DD82E491E002DF88B18C2788B93B
S1130BD02FE73AE186E0215030408040E1F700C041
S1130BE0000080915E01882349F3469A85E0809352
S1130BF0910090E488B1892788B92FE73AE186E02B
S1130C00215030408040E1F700C00000F3CF9F93B3
S1130C109F7749D10F9000203AF49058A2EA2AED28
S1130C203FE049E450E413D0BDC15058BB27AA2784
S1130C300ED0B8C181D130F086D120F031F49F3F7D
S1130C4011F41EF451C10EF4E095E7FB47C1E92FFE
S1130C50CBD180F3BA17620773078407950718F09E
S1130C6071F49EF5E3C10EF4E0950B2EBA2FA02D7E
S1130C700B01B90190010C01CA01A0011124FF2745
S1130C80591B99F0593F50F4503E68F11A16F04040
S1130C90A22F232F342F4427585FF3CF469537953F
S1130CA02795A795F0405395C9F77EF41F16BA0B04
S1130CB0620B730B840BBAF09150A1F0FF0FBB1FB2
S1130CC0661F771F881FC2F70EC0BA0F621F731FFB
S1130CD0841F48F4879577956795B795F7959E3F58
S1130CE008F0B3CF9395880F08F09927EE0F9795E6
S1130CF08795089530D1E39566C10CD053C123D1B3
S1130D0040F01AD130F021F45F3F19F0E7C05111DF
S1130D108EC1EAC069D198F39923C9F35523B1F37D
S1130D20951B550BBB27AA2762177307840738F056
S1130D309F5F5F4F220F331F441FAA1FA9F333D0B5
S1130D400E2E3AF0E0E830D091505040E695001C69
S1130D50CAF729D0FE2F27D0660F771F881FBB1F25
S1130D60261737074807AB07B0E809F0BB0B802DFF
S1130D70BF01FF2793585F4F2AF09E3F510568F04B
S1130D80ADC055C15F3FECF3983EDCF38695779593
S1130D906795B795F7959F5FC9F7880F911D96954D
S1130DA0879597F90895E1E0660F771F881FBB1FA9
S1130DB0621773078407BA0720F0621B730B840B56
S1130DC0BA0BEE1F88F7E095089504D06894B1112A
S1130DD02EC1089511D188F09F5790F0B92F99270B
S1130DE0B751A0F0D1F0660F771F881F991F1AF032
S1130DF0BA95C9F712C0B13081F018D1B1E00895A5
S1130E0015C1672F782F8827B85F39F0B93FCCF325
S1130E10869577956795B395D9F73EF49095809527
S1130E20709561957F4F8F4F9F4F0895E89409C047
S1130E3097FB3EF490958095709561957F4F8F4F09
S1130E409F4F9923A9F0F92F96E9BB279395F6951F
S1130E50879577956795B795F111F8CFFAF4BB0F9D
S1130E6011F460FF1BC06F5F7F4F8F4F9F4F16C001
S1130E70882311F096E911C0772321F09EE8872F8B
S1130E80762F05C0662371F096E8862F70E060E047
S1130E902AF09A95660F771F881FDAF7880F9695C0
S1130EA0879597F90895DF93CF931F930F938B0141
S1130EB0EC01ECE8F0E01BD075D09801AE018B0199
S1130EC0EC0160E070E080E89FE3AFDE7DD1980143
S1130ED0AE010F911F91CF91DF91F5C097F99F67F4
S1130EE080E870E060E008959FEF80EC0895DF9360
S1130EF0CF931F930F93FF92EF92DF927B018C01AC
S1130F00689405C0DA2EEF01DED0FE01E894A591C5
S1130F102591359145915591AEF3EF0198DEFE018F
S1130F209701A801DA9479F7DF90EF90FF900F9181
S1130F301F91CF91DF91089500240A941616170685
S1130F4018060906089500240A94121613061406B6
S1130F5005060895C9CF50D0E8F3E894E0E0BB2734
S1130F609F57F0F02AED3FE049EC06C0EE0FBB0FAF
S1130F70661F771F881F28F0B23A62077307840739
S1130F8028F0B25A620B730B840BE3959A9572F7AF
S1130F90803830F49A95BB0F661F771F881FD2F7ED
S1130FA090486DC1092E0394000C11F4882352F06B
S1130FB0BB0F40F4BF2B11F460FF04C06F5F7F4F81
S1130FC08F4F9F4F0895EF93E0FF06C0A2EA2AEDEA
S1130FD03FE049EC5FEB3BDEE5DF0F90039401FC5F
S1130FE09058E4EBF0E05EC157FD9058440F551F54
S1130FF059F05F3F71F04795880F97FB991F61F097
S11310009F3F79F087950895121613061406551F0D
S1131010F2CF4695F1DF08C0161617061806991F79
S1131020F1CF86957105610508940895E894BB276E
S113103066277727CB0197F90895DEDFA8F19E573D
S1131040A8F1985160F039F1983070F5092E99277C
S1131050660F771F881F991F0A94D1F71CC0BB27FE
S1131060993F4CF4B111B1E0B62B672F782F882744
S1131070985FB1F708C0869577956795B79508F49A
S1131080B1609395C1F7BB0F30F411F460FF03C056
S11310906F5F7F4F8F4F3EF490958095709561956B
S11310A07F4F8F4F9F4F08956894C1CFBFCF0BD010
S11310B079CF42DF28F047DF18F0952309F00ECFEF
S11310C013CF1124B4CF90DFA0F3959FD1F3950FE4
S11310D050E0551F629FF001729FBB27F00DB11DB8
S11310E0639FAA27F00DB11DAA1F649F6627B00D48
S11310F0A11D661F829F2227B00DA11D621F739F31
S1131100B00DA11D621F839FA00D611D221F749F3E
S11311103327A00D611D231F849F600D211D822F85
S1131120762F6A2F11249F5750408AF0E1F08823CC
S11311304AF0EE0FFF1FBB1F661F771F881F9150D9
S11311405040A9F79E3F510570F0C8CE70CF5F3F65
S1131150ECF3983EDCF3869577956795B795F7950C
S1131160E7959F5FC1F7FE2B880F911D9695879594
S113117097F9089541DFE0F09E37D8F09639B8F436
S11311809E3848F4672F782F8827985FF9CF869583
S11311907795679593959539D0F3B62FB1706B0F0A
S11311A0711D811D20F487957795679593954AC0A5
S11311B064C03DCF9F93CFDE0F9007FCEE5F03CF5B
S11311C011F40EF491CE59C017DFD0F39923D9F35B
S11311D0CEF39F57550B87FF5ED00024A0E640EA6C
S11311E0900180585695979528F4805C660F771F78
S11311F0881F20F026173707480730F4621B730B4B
S1131200840B202931294A2BA6951794079420256D
S113121031254A2758F7660F771F881F20F02617B5
S11312203707480730F4620B730B840B200D311D14
S1131230411DA09581F7B901842F9158880F969587
S113124087950895882371F4772321F09850872B8C
S1131250762F07C0662311F499270DC09051862B71
S113126070E060E02AF09A95660F771F881FDAF71E
S1131270880F9695879597F908959F3F31F091507F
S113128020F4879577956795B795880F911D969566
S1131290879597F9089591505040660F771F881FDE
S11312A0D2F708959F938F937F936F93FF93EF9358
S11312B09B01AC01FCDEEF91FF9119DE2F913F9170
S10D12C04F915F91F4CEF894FFCF34
S11312CA17B7513F73D7123F8BFD25BE00000000AC
S11312DA000080BF7B14AEBF17B751BF73D7123F4C
S11312EA8BFD25BE52B8B641000000001904863FA2
S10712FA1904064089
S903015E9D
