:100000006BC0000087C0000085C0000083C00000F6
:1000100081C000007FC000007DC000007BC00000E8
:1000200079C0000077C0000075C0000073C00000F8
:1000300071C000006FC000006DC000006BC0000008
:1000400069C0000067C0000065C0000063C0000018
:1000500061C000005FC000005DC000005BC0000028
:1000600059C0000057C0000055C0000053C0000038
:1000700025C100004FC000004DC000004BC0000073
:100080006BC2000047C0000045C00000084AD73BD3
:100090003BCE016E84BCBFFDC12F3D6C74319ABD57
:1000A00056833DDA3D00C77F11BED9E4BB4C3E917B
:1000B0006BAAAABE000000803F05A84CCDB2D44E6A
:1000C000B93836A9020C50B9918688083CA6AAAA6C
:1000D0002ABE000000803F0011241FBECFEFD0E4F5
:1000E000DEBFCDBF11E0A0E0B1E0EAEBF5E100E05A
:1000F0000BBF02C007900D92AC31B107D9F721E0D8
:10010000ACE1B1E001C01D92A938B207E1F764D6B5
:100110000C94DB0A75CF6F927F928F929F92AF9271
:10012000CF92EF92FF920F931F93CF93DF93ACE7A1
:10013000B0E01C92EAE7F0E010829BE7692E712C98
:10014000E30118823EE7832E912CE401188230816E
:10015000D0E88D9FC0011124832B8083E401688344
:100160008C91D0E44D9FA0011124482B4C938C918D
:1001700050E2059F80011124082B0C938081282BCD
:100180002083808190E2E99E70011124E82AE082B8
:10019000D3018C91C82ACC928081AA0CAA0CAA0CFB
:1001A000A82AA082DF91CF911F910F91FF90EF902D
:1001B000CF90AF909F908F907F906F900895AF9267
:1001C000CF92EF920F93E1E6F0E080E88083108217
:1001D00011B812B88FEF84B915B880EF87B918B885
:1001E0008BEF8AB91BB891EA94BD82E085BD16BC3D
:1001F00017BC18BC909380008093810010928500FA
:10020000109284001092870010928600109289004C
:100210001092880010928B0010928A001092B60003
:100220009093B0008093B1001092B2001092B3008E
:100230001092B400109290009DE090939100109263
:1002400095001092940010929700109296001092D0
:10025000990093E69093980010929B0010929A0058
:1002600010926E0010926F001092700080937100D7
:10027000A12CC12CE12C00E027E041E069E081E005
:100280004ADF60E070E088EA91E40E94DB09615097
:1002900071097093CD006093CC00E9ECF0E088E147
:1002A0008083AAECB0E08C9186608C93808180681A
:1002B00080830F91EF90CF90AF9008951F920F928F
:1002C0000FB60F9211240BB60F922F933F934F93BB
:1002D0005F936F937F938F939F93AF93BF93EF93AE
:1002E000FF938091C80087FFFCCF8091CE008535B9
:1002F000A1F0479AFF91EF91BF91AF919F918F919C
:100300007F916F915F914F913F912F910F900BBE15
:100310000F900FBE0F901F9018958091C80087FF17
:10032000FCCF8091CE00982F9F70933011F09111E7
:10033000E0CF4798807F803509F4A2C010F1803B60
:1003400009F4F1C0B8F5803709F477C0803889F630
:10035000EFE5F1E045E651E08091C80087FFFCCF72
:100360009091CE008091C80087FFFCCF2091CE00F5
:10037000892F90E0922B819391934E175F0761F73D
:10038000B8CF803109F4C1C008F469C0803209F4E3
:1003900058C0803309F0ADCFEDE4F1E09191809148
:1003A000C80085FFFCCF9093CE0081E0E335F807CD
:1003B000A9F79FCF803C91F0803D09F09ACF81E072
:1003C00090E020912C0130912D01232B11F080E041
:1003D00090E090932D0180932C018BCF8091C800E9
:1003E00087FFFCCF8091CE00809388008091C80069
:1003F00087FFFCCF8091CE0080938A008091C80057
:1004000087FFFCCF8091CE0087BD8091C80087FF19
:10041000FCCF8091CE0088BD8091C80087FFFCCFC3
:100420008091CE008093B3008091C80087FFFCCFFD
:100430008091CE008093B4005CCF81E08093460130
:1004400058CFE3E5F1E091918091C80085FFFCCFA2
:100450009093CE0081E0E935F807A9F74ACF8111E2
:1004600048CFEFE5F1E025E631E091918091C800B9
:1004700085FFFCCF9093CE002E173F07B1F739CF01
:1004800020E030E048EC52E46091200170912101BD
:100490008091220190912301C8D782D670932F01B9
:1004A00060932E0120E030E048EC52E4609124019A
:1004B000709125018091260190912701B6D770D6C1
:1004C000709331016093300120E030E048EC52E459
:1004D000609128017091290180912A0190912B014E
:1004E000A4D75ED67093330160933201EEE2F1E05F
:1004F00024E331E091918091C80085FFFCCF909377
:10050000CE002E173F07B1F7F4CEE9E5F1E0919167
:100510008091C80085FFFCCF9093CE0081E0EF353D
:10052000F807A9F7E6CEE7E4F1E04DE451E0809169
:10053000C80087FFFCCF9091CE008091C80087FF54
:10054000FCCF2091CE00892F90E0922B8193919344
:100550004E175F0761F7CDCE1F920F920FB60F9225
:1005600011248F939F93AF93BF93809145018F5F29
:1005700080934501809144018F5F80934401809175
:100580001C0190911D01A0911E01B0911F010196C7
:10059000A11DB11D80931C0190931D01A0931E010C
:1005A000B0931F01BF91AF919F918F910F900FBE9C
:1005B0000F901F9018952F923F924F925F927F92CB
:1005C0008F929F92AF92BF92CF92DF92EF92FF9263
:1005D0000F931F93CF93DF93CDB7DEB768970FB616
:1005E000F894DEBF0FBECDBF29873A874B875C8763
:1005F0006D877E878F87988B4701580189859A85FB
:10060000AB85BC85898B9A8BAB8BBC8B2D843E8450
:100610004F845888C801B70158D56B017C01C501CA
:10062000B40186D74B015C0129893A894B895C89E1
:10063000C701B601FAD66D8B7E8B8F8B988FA20186
:100640009101C501B401F1D69B01AC016D897E8990
:100650008F89988D6FD4762EAB01BC0149835A8364
:100660006B837C8329893A894B895C89C501B401F4
:10067000DCD64B015C01A2019101C701B601D5D6C0
:100680009B01AC01C501B40156D4E62F462F572F6C
:10069000BC014D835E836F837887272D3A814B8120
:1006A0005C816E2F7E818F81988568960FB6F89455
:1006B000DEBF0FBECDBFDF91CF911F910F91FF9095
:1006C000EF90DF90CF90BF90AF909F908F907F90F2
:1006D0005F904F903F902F9008952F923F924F92AE
:1006E0005F926F927F928F929F92AF92BF92CF92C2
:1006F000DF92EF92FF920F931F93CF93DF93CDB7CB
:10070000DEB7CD54D1090FB6F894DEBF0FBECDBF12
:100710006B017C01CA01B90125961FAF0EAF259769
:100720002FE135E84BE352E406D41B012C01809005
:100730000C0190900D01A0900E01B0900F0120E0EF
:1007400030E040E05FE3C501B4016FD6A701960138
:10075000F1D36FAF2C967FAF2C972D968FAF2D973F
:100760002E969FAF2E97CB012D96AFAD2D972E963F
:10077000BFAD2E978DA39EA3AFA3B8A7A2019101F1
:10078000609108017091090180910A0190910B011B
:10079000D1D33B018C01CB01D80189A79AA7ABA784
:1007A000BCA7C501B401905820E030E040E05FE311
:1007B0003CD6A7019601BED36DA77EA78FA798ABA5
:1007C000C301D80189AB9AABABABBCABF7FAF094E1
:1007D000F7F8F094CDAADEAAEFAAF8AE8091040152
:1007E00090910501A0910601B0910701BC01CD01D6
:1007F0009058A20191019ED369AF7AAF8BAF9CAFA5
:10080000C0900001D0900101E0900201F09003013E
:1008100080E191E027969FAF8EAF2797FE0131963A
:10082000FEAFEDAF1E01F5E22F0E311C28966FAE24
:10083000289729967FAE29972A960FAF2A972B964D
:100840001FAF2B974FAC2C965FAC2C972D967FAC9F
:100850002D972E966FAC2E9700E010E02796EEAD08
:10086000FFAD279781909190A190B1902796FFAF0F
:10087000EEAF2797C501B4015BD623966CAF7DAF71
:100880008EAF9FAF2397C501B4011FD44B015C010C
:100890009201472D562D23966CAD7DAD8EAD9FAD4B
:1008A0002397C3D52B013C0128962FAD2897299675
:1008B0003FAD29972A964FAD2A972B965FAD2B9780
:1008C000C501B401B2D59B01AC01C301B20132D361
:1008D000A7019601FDD3EDADFEAD608371838283E8
:1008E0009383A7019601C501B401F2D3EDADFEAD2E
:1008F0006483758386839783A701960123966CADE5
:100900007DAD8EAD9FAD2397E3D3EDADFEAD60879A
:100910007187828793870F5F1F4F3C96FEAFEDAFC5
:10092000F8E02F0E311C03301105C9F0F1014080B1
:10093000518072806380F4812896FFAF2897F1017F
:10094000F5812996FFAF2997F101F6812A96FFAF2D
:100950002A97F101F7812B96FFAF2B977FCF8D85DB
:100960009E85AF85B8892596EEADFFAD259780832E
:100970009183A283B38389899A89AB89BC89848353
:100980009583A683B7838D899E89AF89B88D80872B
:100990009187A287B387898D9A8DAB8DBC8D848713
:1009A0009587A687B7878D8D9E8DAF8DB8A1808BDB
:1009B000918BA28BB38B89A19AA1ABA1BCA1848B93
:1009C000958BA68BB78B89819A81AB81BC81808FF7
:1009D000918FA28FB38F8D819E81AF81B885848FD7
:1009E000958FA68FB78F89859A85AB85BC8580A3A7
:1009F00091A3A2A3B3A3C35BDF4F0FB6F894DEBFEE
:100A00000FBECDBFDF91CF911F910F91FF90EF905F
:100A1000DF90CF90BF90AF909F908F907F906F901E
:100A20005F904F903F902F9008952F923F924F925A
:100A30005F926F927F928F929F92AF92BF92CF926E
:100A4000DF92EF92FF920F931F93CF93DF93CDB777
:100A5000DEB764970FB6F894DEBF0FBECDBF198224
:100A60001A821B821C821D821E821F821886198692
:100A70001A861B861C8620914001309141014091CD
:100A800042015091430160913C0170913D01809180
:100A90003E0190913F0105E611E01FDECE01019677
:100AA0001C014801FE013D96FC8BEB8B7C01412C27
:100AB000512C32018CE2A82E81E0B82E00E211E028
:100AC0006401F60161917191819191916F01F80139
:100AD00021913191419151918F01A7D420E030E0D3
:100AE00048EC52E4A2D49B01AC01C301B20123D271
:100AF0002B013C01A016B10621F7F7016193719318
:100B0000819391937F01FCE08F0E911C8B899C89CE
:100B1000E816F90631F0F701408051806280738059
:100B2000CDCF8E010D5E1F4FF101619171918191C9
:100B300091911F01DDD434D36F3F710509F0C4F5E5
:100B40006130FFEF7F07B4F177FD39C0F701108204
:100B50006183F2E0EF0EF11C0E151F0529F78E855B
:100B600080938A008D85809388008F8587BD8889D2
:100B700088BD89898093B3008A898093B400649684
:100B80000FB6F894DEBF0FBECDBFDF91CF911F919E
:100B90000F91FF90EF90DF90CF90BF90AF909F901C
:100BA0008F907F906F905F904F903F902F9008951F
:100BB0006FEFCCCF6FEFF70160831182CACF6195E1
:100BC000FACF4F925F926F927F928F929F92AF92E5
:100BD000BF92CF92DF92EF92FF920F931F93CF932A
:100BE000DF93CDB7DEB764970FB6F894DEBF0FBEC4
:100BF000CDBF8C0140903C0150903D0160903E0182
:100C000070903F0153014201B7FAB094B7F8B09425
:100C1000C0904001D0904101E0904201F09043012A
:100C2000D701C601B058898B9A8BAB8BBC8B20E067
:100C300030E0A901C501B40144D281110BC020E00C
:100C400030E0A90169897A898B899C893AD2882305
:100C500009F4BEC020E030E0A901C501B401E5D32C
:100C6000A701960167D16B017C0120E030E0A9016A
:100C700069897A898B899C89D8D3A30192015BD138
:100C8000A7019601CBD19B01AC0160E070E0CB01E4
:100C900051D16B017C01D8011C962D913D914D9154
:100CA0005C911F97C701B60146D14B015C01F80169
:100CB0006487758786879787208131814281538138
:100CC000C701B601B2D32B013C01D80114962D9176
:100CD0003D914D915C911797C501B401A6D39B013D
:100CE000AC01C301B20127D14B015C01F80120899D
:100CF000318942895389C701B6011CD1D8011896A0
:100D00002D913D914D915C911B978FD39B01AC012F
:100D1000C501B40110D1F801C08AD18AE28AF38AF0
:100D200019861A861B861C8600E010E020E83FE347
:100D30000D871E872F87388B7B018C0120E03A8539
:100D40004B855C8560E07E858F85988934DC2983BE
:100D50003A834B835C836D837E838F83988720E007
:100D600030E04CE052E469817A818B819C815DD3D3
:100D700060932401709325018093260190932701AD
:100D800020E030E04CE052E46D817E818F819885D7
:100D90004CD3609328017093290180932A0190938A
:100DA0002B0164960FB6F894DEBF0FBECDBFDF9166
:100DB000CF911F910F91FF90EF90DF90CF90BF9058
:100DC000AF909F908F907F906F905F904F9008951D
:100DD000C12CD12C76015FCF8F929F92AF92BF92A0
:100DE000FF920F931F93CF93DF93CDB7DEB7689732
:100DF0000FB6F894DEBF0FBECDBFE1D910929500BB
:100E000010929400809171008160809371007894B9
:100E1000479A80E090E0A0EAB1E489839A83AB83AB
:100E2000BC831D821E821F82188619861A861B8625
:100E30001C861D861E861F86188A198A1A8A1B8A96
:100E40001C8A83E393E3ABE1B1E480933401909394
:100E50003501A0933601B093370186E696E6A8E403
:100E6000B2E48093380190933901A0933A01B09392
:100E70003B0100E010E080E4F82E812C912C9CE0F6
:100E8000A92E92E4B92E8091460181112DC00C3D0E
:100E900025E012070CF43EC080912C0190912D01A9
:100EA000892B09F043C01092240110922501109261
:100EB0002601109227011092280110922901109208
:100EC0002A0110922B01B1DD88B18F2588B98FE7F7
:100ED0009AE126E0815090402040E1F700C00000F8
:100EE00080914601882399F2469A85E0809391008B
:100EF00080E090E068960FB6F894DEBF0FBECDBFDD
:100F0000DF91CF911F910F91FF90BF90AF909F9075
:100F10008F9008950F5F1F4F8092280190922901B2
:100F2000A0922A01B0922B0180DDADCFCE010196B7
:100F300048DEC9CF5058BB27AA270ED0EAC1B3D18B
:100F400030F0B8D120F031F49F3F11F41EF483C18A
:100F50000EF4E095E7FB79C1E92FFDD180F3BA17D4
:100F6000620773078407950718F071F49EF515C2A0
:100F70000EF4E0950B2EBA2FA02D0B01B9019001B4
:100F80000C01CA01A0011124FF27591B99F0593FF8
:100F900050F4503E68F11A16F040A22F232F342F40
:100FA0004427585FF3CF469537952795A795F0408E
:100FB0005395C9F77EF41F16BA0B620B730B840BA3
:100FC000BAF09150A1F0FF0FBB1F661F771F881F5B
:100FD000C2F70EC0BA0F621F731F841F48F48795B3
:100FE00077956795B795F7959E3F08F0B3CF9395A2
:100FF000880F08F09927EE0F97958795089553D19C
:1010000058F080E891E009F49EEF54D128F040E8D0
:1010100051E059F45EEF09C01EC1BFC1E92FE0786D
:101020009AD168F3092E052AC1F326173707480716
:10103000590738F00E2E07F8E02569F0E025E06446
:101040000AC0EF6307F8009407FADB01B9019D01BC
:10105000DC01CA01AD01EF934AD05BD10AD05F91A8
:10106000552331F02BED3FE049E450FD49EC63CFCF
:101070000895DF93DD27B92FBF7740E85FE31616A9
:10108000170648075B0710F4D92F8ED19F938F93D3
:101090007F936F9353D2ECE8F0E0E0D03AD12F91F8
:1010A0003F914F915F91CDD1DD2349F09058A2EA55
:1010B0002AED3FE049EC5FE3D0785D274DDFDF911B
:1010C00028C19FD008F481E00895FCD0E39532C197
:1010D0000CD01FC1EFD040F0E6D030F021F45F3FDC
:1010E00019F0B3C051115AC1B6C035D198F3992344
:1010F000C9F35523B1F3951B550BBB27AA276217DC
:101100007307840738F09F5F5F4F220F331F441F20
:10111000AA1FA9F333D00E2E3AF0E0E830D0915058
:101120005040E695001CCAF729D0FE2F27D0660F45
:10113000771F881FBB1F261737074807AB07B0E884
:1011400009F0BB0B802DBF01FF2793585F4F2AF09A
:101150009E3F510568F079C021C15F3FECF3983E96
:10116000DCF3869577956795B795F7959F5FC9F7F7
:10117000880F911D9695879597F90895E1E0660F80
:10118000771F881FBB1F621773078407BA0720F0F9
:10119000621B730B840BBA0BEE1F88F7E095089562
:1011A00004D06894B111FAC00895DDD088F09F573B
:1011B00090F0B92F9927B751A0F0D1F0660F771FA3
:1011C000881F991F1AF0BA95C9F712C0B13081F083
:1011D000E4D0B1E00895E1C0672F782F8827B85F89
:1011E00039F0B93FCCF3869577956795B395D9F7E4
:1011F0003EF490958095709561957F4F8F4F9F4FEE
:101200000895990F0008550FAA0BE0E8FEEF161697
:101210001706E807F907C0F012161306E407F507EA
:1012200098F0621B730B840B950B39F40A2661F05E
:10123000232B242B252B21F408950A2609F4A14001
:10124000A6958FEF811D811D089597F99F6780E80E
:1012500070E060E008959FEF80EC0895DF93CF93F6
:101260001F930F93FF92EF92DF927B018C016894A2
:1012700005C0DA2EEF01E5D0FE01E894A591259195
:10128000359145915591AEF3EF0166DEFE01970170
:10129000A801DA9479F7DF90EF90FF900F911F91FA
:1012A000CF91DF91089500240A94161617061806A8
:1012B0000906089500240A9412161306140605065A
:1012C0000895C9CF50D0E8F3E894E0E0BB279F57DA
:1012D000F0F02AED3FE049EC06C0EE0FBB0F661FB1
:1012E000771F881F28F0B23A62077307840728F037
:1012F000B25A620B730B840BE3959A9572F78038A0
:1013000030F49A95BB0F661F771F881FD2F790485D
:1013100035C1092E0394000C11F4882352F0BB0F41
:1013200040F4BF2B11F460FF04C06F5F7F4F8F4FFD
:101330009F4F0895EF93E0FF06C0A2EA2AED3FE039
:1013400049EC5FEB09DEE5DF0F90039401FC905858
:10135000E9EBF0E01FC157FD9058440F551F59F0BD
:101360005F3F71F04795880F97FB991F61F09F3F92
:1013700079F087950895121613061406551FF2CFBB
:101380004695F1DF08C0161617061806991FF1CF0B
:1013900086957105610508940895E894BB27662732
:1013A0007727CB0197F908959B01AC0160E070E0CD
:1013B00080E89FE38DCED7DFA8F19E57A8F1985122
:1013C00060F039F1983070F5092E9927660F771F74
:1013D000881F991F0A94D1F71CC0BB27993F4CF472
:1013E000B111B1E0B62B672F782F8827985FB1F73E
:1013F00008C0869577956795B79508F4B160939581
:10140000C1F7BB0F30F411F460FF03C06F5F7F4F73
:101410008F4F3EF490958095709561957F4F8F4FDB
:101420009F4F08956894BACFB8CF0BD072CF3BDFEF
:1014300028F040DF18F0952309F007CF0CCF1124D6
:10144000ADCF89DFA0F3959FD1F3950F50E0551FE5
:10145000629FF001729FBB27F00DB11D639FAA2709
:10146000F00DB11DAA1F649F6627B00DA11D661F58
:10147000829F2227B00DA11D621F739FB00DA11D79
:10148000621F839FA00D611D221F749F3327A00D33
:10149000611D231F849F600D211D822F762F6A2FCF
:1014A00011249F5750408AF0E1F088234AF0EE0F54
:1014B000FF1FBB1F661F771F881F91505040A9F761
:1014C0009E3F510570F0C1CE69CF5F3FECF3983E6F
:1014D000DCF3869577956795B795F795E7959F5FC8
:1014E000C1F7FE2B880F911D9695879597F9089562
:1014F0003ADFE0F09E37D8F09639B8F49E3848F4D9
:10150000672F782F8827985FF9CF8695779567950D
:1015100093959539D0F3B62FB1706B0F711D811D66
:1015200020F487957795679593950BC025C036CFA6
:101530009F93C8DE0F9007FCEE5FFCCE9B01AC01D1
:1015400074CF882371F4772321F09850872B762F5E
:1015500007C0662311F499270DC09051862B70E0C7
:1015600060E02AF09A95660F771F881FDAF7880FD8
:101570009695879597F908959F3F31F0915020F403
:10158000879577956795B795880F911D969587955F
:1015900097F908959F938F937F936F93FF93EF93A2
:1015A0009B01AC0142DFEF91FF9158DE2F913F91FB
:0A15B0004F915F913ACFF894FFCFFE
:1015BA0000009841000079423D0AF9412CA5D74222
:0C15CA00A60A86BFA60A863F560E4940BE
:040000050080014630
:00000001FF
