:1000000068C0000084C0000082C0000080C0000002
:100010007EC000007CC000007AC0000078C00000F4
:1000200076C0000074C0000072C0000070C0000004
:100030006EC000006CC000006AC0000068C0000014
:1000400066C0000064C0000062C0000060C0000024
:100050005EC000005CC000005AC0000058C0000034
:1000600056C0000054C0000052C0000050C0000044
:1000700041C100004CC000004AC0000048C0000060
:1000800046C0000044C0000042C00000072C7AA512
:10009000BA6CC590DA3B9365FC8BBC53F810FD3C01
:1000A0005692834DBD879D3AB63DCBC9BF5BBE73AB
:1000B000DA0FC93F05A84CCDB2D44EB93836A902E3
:1000C0000C50B9918688083CA6AAAA2ABE00000056
:1000D000803F11241FBECFEFD0E4DEBFCDBF11E0C3
:1000E000A0E0B1E0ECE0F7E100E00BBF02C0079058
:1000F0000D92AC32B107D9F721E0ACE2B1E001C01A
:100100001D92A43AB207E1F71FD70C94840B78CF65
:100110006F927F928F929F92AF92CF92EF92FF92C7
:100120000F931F93CF93DF93ACE7B0E01C92EAE705
:10013000F0E010829BE7692E712CE30118823EE704
:10014000832E912CE40118823081D0E88D9FC0016C
:100150001124832B8083E40168838C91D0E44D9F2C
:10016000A0011124482B4C938C9150E2059F8001F3
:100170001124082B0C938081282B2083808190E20E
:10018000E99E70011124E82AE082D3018C91C82AEB
:10019000CC928081AA0CAA0CAA0CA82AA082DF917A
:1001A000CF911F910F91FF90EF90CF90AF909F90C4
:1001B0008F907F906F90089590917C00907E9093A7
:1001C0007C0090917C00892B80937C0080917A0048
:1001D000806480937A0080917A0084FFFCCF8091C4
:1001E0007A00806180937A00809178002091790074
:1001F00090E0922B0895AF92CF92EF920F93E1E6A9
:10020000F0E080E88083108211B812B88FEF84B9D3
:1002100015B880EF87B918B88BEF8AB91BB891EA87
:1002200094BD82E085BD16BC17BC18BC90938000BD
:1002300080938100109285001092840010928700B4
:1002400010928600109289001092880010928B0004
:1002500010928A001092B6009093B0008093B10083
:100260001092B2001092B3001092B400109290005D
:100270009DE090939100109295001092940010923E
:100280009700109296001092990093E69093980030
:1002900010929B0010929A0010926E0010926F00C4
:1002A0001092700080937100A12CC12CE12C00E011
:1002B00027E041E069E081E02BDF60E070E088EA60
:1002C00091E40E941A0A615071097093CD00609305
:1002D000CC00E9ECF0E088E18083AAECB0E08C91FE
:1002E00086608C938081806880830F91EF90CF909F
:1002F000AF9008951F920F920FB60F9211240BB674
:100300000F922F933F934F935F936F937F938F93AE
:100310009F93AF93BF93CF93EF93FF938091C800C8
:1003200087FFFCCF8091CE008535A9F0479AFF91D9
:10033000EF91CF91BF91AF919F918F917F916F91ED
:100340005F914F913F912F910F900BBE0F900FBE79
:100350000F901F9018958091C80087FFFCCF809167
:10036000CE00982F9F70933011F09111DFCF4798F6
:10037000807F803509F4A2C010F1803B09F4FEC0F3
:10038000B8F5803709F477C0803881F6EAE8F1E003
:1003900040E951E08091C80087FFFCCF9091CE00EA
:1003A0008091C80087FFFCCF2091CE00892F90E07C
:1003B000922B819391934E175F0761F7B7CF8031EE
:1003C00009F4CEC008F469C0803209F458C0803303
:1003D00009F0ACCFE8E7F1E091918091C80085FF8A
:1003E000FCCF9093CE0081E0EE37F807A9F79ECFBF
:1003F000803C91F0803D09F099CF81E090E0209120
:100400003B0130913C01232B11F080E090E0909370
:100410003C0180933B018ACF8091C80087FFFCCFCD
:100420008091CE00809388008091C80087FFFCCF28
:100430008091CE0080938A008091C80087FFFCCF16
:100440008091CE0087BD8091C80087FFFCCF80914E
:10045000CE0088BD8091C80087FFFCCF8091CE0080
:100460008093B3008091C80087FFFCCF8091CE00BD
:100470008093B4005BCF81E08093710157CFEEE7AA
:10048000F1E091918091C80085FFFCCF9093CE0060
:1004900081E0E438F807A9F749CF811147CFEAE8AE
:1004A000F1E020E931E091918091C80085FFFCCF17
:1004B0009093CE002E173F07B1F738CF809184017B
:1004C00090918501C4E6C89FB001C99F700D1124A9
:1004D000072E000C880B990BA4D6609390017093A3
:1004E0009101809392019093930180918601909164
:1004F0008701C89FB001C99F700D1124072E000C01
:10050000880B990B8ED6609394017093950180931C
:100510009601909397018091880190918901C89FDD
:10052000B001C99F700D1124072E000C880B990B88
:1005300078D6609398017093990180939A01909373
:100540009B01E0E9F1E026E931E091918091C8005A
:1005500085FFFCCF9093CE002E173F07B1F7E6CE74
:10056000E4E8F1E091918091C80085FFFCCF909381
:10057000CE0081E0EA38F807A9F7D8CEE2E7F1E04B
:1005800048E751E08091C80087FFFCCF9091CE00F2
:100590008091C80087FFFCCF2091CE00892F90E08A
:1005A000922B819391934E175F0761F7BFCE4F92C5
:1005B0005F926F927F928F929F92AF92BF92CF92F3
:1005C000DF92EF92FF920F931F93CF93DF938C01F3
:1005D0006B01EA01E0909400F09095008091980002
:1005E00090919900FB0120810196289FB001299FDD
:1005F000700D1124888199819701281B390B620F96
:10060000731F80E090E00BD6F6011082F982E88239
:1006100025E93FEB46ED58E347D76B017C01CFE27C
:10062000D1E02C813D814E815F813ED72B013C0181
:10063000288539854A855B85C701B60135D74B01C9
:100640005C01288139814A815B81C701B6012CD7C1
:100650009B01AC01F8016081718182819381DFD4BB
:10066000F8016083718382839383A3019201648183
:10067000758186819781D3D4F801648375838683DD
:100680009783A50194016085718582859385C7D480
:10069000F8016087718782879387DF91CF911F91DF
:1006A0000F91FF90EF90DF90CF90BF90AF909F9011
:1006B0008F907F906F905F904F900895EF92FF9290
:1006C0000F931F93CF93DF9380E076DD7C0183E06F
:1006D00073DDEC0109E611E0B701FF0C880B990B03
:1006E000A0D520E030E040E85AE3DED62CEE31E53C
:1006F00048EB50E4D9D626E636E646EA5FE38ED4E8
:10070000F8016083718382839383BE01DD0F880BC0
:10071000990B87D520E030E040E85AE3C5D62CEEAF
:1007200031E548EB50E4C0D628E03CEA4CEB5FE30F
:1007300075D4F8016483758386839783DF91CF91A5
:100740001F910F91FF90EF9008954F925F926F92DB
:100750007F928F929F92AF92BF92CF92DF92EF9251
:10076000FF92CF93DF93CDB7DEB72A970FB6F894F9
:10077000DEBF0FBECDBF9A8789874A015B01DC01CE
:100780008D919D910D90BC91A02D89839A83AB830F
:10079000BC83CB01BA01A7D46B017C01E985FA8542
:1007A0004480558066807780C501B40100D74B0135
:1007B0005C01A701960169817A818B819C8174D645
:1007C0006D837E838F839887A5019401C301B20155
:1007D0006BD69B01AC016D817E818F8198851ED483
:1007E000A985BA856D937D938D939C931397A501ED
:1007F000940169817A818B819C8156D64B015C0181
:10080000A3019201C701B6014FD69B01AC01C501FE
:10081000B40105D4E985FA8564837583868397835B
:100820002A960FB6F894DEBF0FBECDBFDF91CF91F1
:10083000FF90EF90DF90CF90BF90AF909F908F9000
:100840007F906F905F904F9008952F923F924F92BC
:100850005F926F927F928F929F92AF92BF92CF9250
:10086000DF92EF92FF920F931F93CF93DF93CDB759
:10087000DEB72C970FB6F894DEBF0FBECDBF7C015C
:10088000DC016D917D918D919C912DD421E6C22E3C
:1008900021E0D22E20E030E048EC51E405D6F6010C
:1008A0002081318142815381BAD32B013C0109E57A
:1008B00011E0D8016D937D938D939C931397F7016D
:1008C000608171818281938172D620E030E048ECB2
:1008D00051E4EAD5D60114962D913D914D915C914C
:1008E00017979DD369877A878B879C87F8016483E4
:1008F000758386839783D7011496CD90DD90ED9014
:10090000FC901797C701B601EED334E2232E31E0F5
:10091000332E20E030E048EC51E4C6D5F1012081CF
:100920003181428153817BD34B015C01A1E5B1E070
:100930006D937D938D939C931397C701B60137D622
:1009400020E030E048EC51E4AFD5F101248135815D
:100950004681578164D36B017C016093550170938C
:1009600056018093570190935801A3019201C5014C
:10097000B40154D32B013C0129853A854B855C8514
:10098000C701B6014BD34B015C01A3019201C30126
:10099000B2018AD56B017C01A5019401C501B401A6
:1009A00083D59B01AC01C701B60139D30AD66B01CF
:1009B0007C019B01AC0178D520E030E048EC54E4A8
:1009C0002ED320E030E048EC54E428D369877A87BE
:1009D0008B879C8720E030E040EA52E4C701B601F3
:1009E00063D59B01AC0169857A858B859C857ED317
:1009F00007D369877A878B879C8720E030E040E2C5
:100A000052E4C301B20150D5A70196016FD36983A7
:100A10007A838B839C8320E030E040E252E4C5017E
:100A2000B40142D5A701960161D36D837E838F8384
:100A3000988749855A856B857C85CE01019685DE30
:100A40002D813E814F815885D80114966D917D91FD
:100A50008D919C911797E3D24B015C0145E4E42E04
:100A600041E0F42E29813A814B815C81F80160815B
:100A7000718182819381D3D20DE311E0D8012D9150
:100A80003D914D915C91CAD2F7016083718382835D
:100A90009383D80114962D913D914D915C911797B8
:100AA000C501B401BBD2F701648375838683978344
:100AB0002C960FB6F894DEBF0FBECDBFDF91CF915D
:100AC0001F910F91FF90EF90DF90CF90BF90AF906C
:100AD0009F908F907F906F905F904F903F902F905E
:100AE00008952F923F924F925F926F927F928F92D2
:100AF0009F92AF92BF92CF92DF92EF92FF920F93AD
:100B00001F93CF93DF93CDB7DEB768970FB6F894F6
:100B1000DEBF0FBECDBF19821A821B821C821D82CE
:100B20001E821F82188619861A861B861C86C09014
:100B30004901D0904A01E0904B01F0904C0120E037
:100B400030E040E450E4C701B60170D418160CF44C
:100B5000CBC060E070E080EA91E4A7019601A4D4E4
:100B60006D8B7E8B8F8B988FCB01AF89B88D8093E7
:100B70002F0190933001A0933101B093320120E016
:100B800030E040EA51E46091450170914601809166
:100B900047019091480188D46093330170933401E8
:100BA00080933501909336011092370110923801ED
:100BB0001092390110923A01CE0101961C0190E089
:100BC000892E91E0992EFE013D96FC8BEB8B8101E5
:100BD000412C512C32012BE3A22E21E0B22E83E3D3
:100BE000E82E81E0F82E64018D899E89AF89B88D49
:100BF0009C01AD01F60161917191819191916F011B
:100C000053D49B01AC01C301B20109D22B013C01B9
:100C1000AE14BF0439F0F701219131914191519106
:100C20007F01E8CFF80161937193819391938F01D4
:100C3000FCE08F0E911C8B899C890817190731F0F5
:100C4000F8014080518062807380C9CF7E01F3E15A
:100C5000EF0EF11CF10161917191819191911F0150
:100C600086D4ACD26F3F710509F0BCF56130FFEF5F
:100C70007F07ACF177FD3DC0F801108261830E5F04
:100C80001F4FE016F10631F78E8580938A008D851F
:100C9000809388008F8587BD888988BD89898093E6
:100CA000B3008A898093B40068960FB6F894DEBFCB
:100CB0000FBECDBFDF91CF911F910F91FF90EF90AD
:100CC000DF90CF90BF90AF909F908F907F906F906C
:100CD0005F904F903F902F9008956FEFCDCF6FEFC3
:100CE000F80160831182CBCF60E070E080EF91E487
:100CF00034CF6195F5CF2F923F924F925F926F92D2
:100D00007F928F929F92AF92BF92CF92DF92EF929B
:100D1000FF920F931F93CF93DF93CDB7DEB7669704
:100D20000FB6F894DEBF0FBECDBF19821A821B82A8
:100D30001C821D821E821F82188619861A861B86B7
:100D40001C86C0904501D0904601E0904701F0908C
:100D500048018090490190904A01A0904B01B090C9
:100D60004C01A7019601C701B6019ED32B013C019E
:100D7000A5019401C501B40197D39B01AC01C30146
:100D8000B2014DD11ED42B013C019B01AC01C70126
:100D9000B601ACD160939C0170939D0180939E013C
:100DA00090939F01A3019201C501B4019FD160936B
:100DB000A0017093A1018093A2019093A301C501AA
:100DC000B401905820E030E040EA51E46DD36B8BE1
:100DD0007C8B8D8B9E8BCB01AD89BE8980932F013F
:100DE00090933001A0933101B0933201C701B60155
:100DF000905820E030E040EA51E456D3609333014C
:100E0000709334018093350190933601109237012D
:100E1000109238011092390110923A01CE010196D8
:100E20004C0190E0A92E91E0B92E1E019DE0290E03
:100E3000311C8401412C512C320183E3E82E81E0E6
:100E4000F82E65018B899C89AD89BE899C01AD0115
:100E5000F60161917191819191916F0125D39B016F
:100E6000AC01C301B201DBD02B013C01FBE3EF1667
:100E7000F1E0FF0639F0F701219131914191519153
:100E80007F01E6CFF80161937193819391938F0174
:100E9000FCE0AF0EB11C0215130531F0F8014080E3
:100EA000518062807380C9CF7E01F3E1EF0EF11CA7
:100EB000F40161917191819191914F0158D37ED14B
:100EC0006F3F710509F0BCF56130FFEF7F07ACF1B2
:100ED00077FD38C0F801108261830E5F1F4FE01666
:100EE000F10631F78E8580938A008D858093880086
:100EF0008F8587BD888988BD89898093B3008A8959
:100F00008093B40066960FB6F894DEBF0FBECDBFD7
:100F1000DF91CF911F910F91FF90EF90DF90CF90D5
:100F2000BF90AF909F908F907F906F905F904F9009
:100F30003F902F9008956FEFCDCF6FEFF801608352
:100F40001182CBCF6195FACF1F93CF93DF9353D903
:100F500083E393E3ABE1B1E480933D0190933E01E1
:100F6000A0933F01B093400186E696E6A8E4B2E480
:100F70008093410190934201A0934301B0934401B7
:100F80004798469A479A109291007894C0E0D0E032
:100F900010E48091710181110FC04DE251E06CE2CB
:100FA00071E084E891E003DBC832D1057CF421963E
:100FB00080917101882389F3469A85E0809391009E
:100FC00080E090E0DF91CF911F91089577DB89E673
:100FD00091E03BDC80913B0190913C01892B71F4C5
:100FE00080DD88B1812788B92FE78AE196E021501A
:100FF00080409040E1F700C00000CBCF7CDEF1CF15
:101000009F939F7749D10F9000203AF49058A2EA1D
:101010002AED3FE049E450E413D0BDC15058BB274E
:10102000AA270ED0B8C181D130F086D120F031F49A
:101030009F3F11F41EF451C10EF4E095E7FB47C148
:10104000E92FCBD180F3BA1762077307840795079E
:1010500018F071F49EF5E3C10EF4E0950B2EBA2F53
:10106000A02D0B01B90190010C01CA01A0011124AE
:10107000FF27591B99F0593F50F4503E68F11A165A
:10108000F040A22F232F342F4427585FF3CF4695EB
:1010900037952795A795F0405395C9F77EF41F160D
:1010A000BA0B620B730B840BBAF09150A1F0FF0FD7
:1010B000BB1F661F771F881FC2F70EC0BA0F621FC3
:1010C000731F841F48F4879577956795B795F795B3
:1010D0009E3F08F0B3CF9395880F08F09927EE0F45
:1010E00097958795089530D1E39566C10CD053C18B
:1010F00023D140F01AD130F021F45F3F19F0E7C05E
:1011000051118EC1EAC069D198F39923C9F35523CF
:10111000B1F3951B550BBB27AA27621773078407EA
:1011200038F09F5F5F4F220F331F441FAA1FA9F3A0
:1011300033D00E2E3AF0E0E830D091505040E69592
:10114000001CCAF729D0FE2F27D0660F771F881FF3
:10115000BB1F261737074807AB07B0E809F0BB0BE2
:10116000802DBF01FF2793585F4F2AF09E3F510506
:1011700068F0ADC055C15F3FECF3983EDCF3869557
:1011800077956795B795F7959F5FC9F7880F911D7C
:101190009695879597F90895E1E0660F771F881F68
:1011A000BB1F621773078407BA0720F0621B730B1B
:1011B000840BBA0BEE1F88F7E095089504D068946D
:1011C000B1112EC1089511D188F09F5790F0B92F19
:1011D0009927B751A0F0D1F0660F771F881F991F8C
:1011E0001AF0BA95C9F712C0B13081F018D1B1E048
:1011F000089515C1672F782F8827B85F39F0B93F58
:10120000CCF3869577956795B395D9F73EF490958D
:101210008095709561957F4F8F4F9F4F0895E8940B
:1012200009C097FB3EF490958095709561957F4F2E
:101230008F4F9F4F9923A9F0F92F96E9BB279395DC
:10124000F695879577956795B795F111F8CFFAF4EC
:10125000BB0F11F460FF1BC06F5F7F4F8F4F9F4F1D
:1012600016C0882311F096E911C0772321F09EE87B
:10127000872F762F05C0662371F096E8862F70E0E1
:1012800060E02AF09A95660F771F881FDAF7880FBB
:101290009695879597F90895DF93CF931F930F93B2
:1012A0008B01EC01ECE8F0E01BD075D09801AE01A9
:1012B0008B01EC0160E070E080E89FE3AFDE81D15C
:1012C0009801AE010F911F91CF91DF91F9C097F96D
:1012D0009F6780E870E060E008959FEF80EC0895DC
:1012E000DF93CF931F930F93FF92EF92DF927B01D7
:1012F0008C01689405C0DA2EEF01E2D0FE01E8947B
:10130000A5912591359145915591AEF3EF0198DE68
:10131000FE019701A801DA9479F7DF90EF90FF9032
:101320000F911F91CF91DF91089500240A94161612
:10133000170618060906089500240A9412161306C3
:10134000140605060895C9CF50D0E8F3E894E0E00C
:10135000BB279F57F0F02AED3FE049EC06C0EE0FA7
:10136000BB0F661F771F881F28F0B23A620773070A
:10137000840728F0B25A620B730B840BE3959A959D
:1013800072F7803830F49A95BB0F661F771F881F5D
:10139000D2F7904895C1092E0394000C11F48823CC
:1013A00052F0BB0F40F4BF2B11F460FF04C06F5F1D
:1013B0007F4F8F4F9F4F0895EF93E0FF06C0A2EA43
:1013C0002AED3FE049EC5FEB3BDEE5DF0F90039455
:1013D00001FC9058E4EBF0E086C157FD9058440FB3
:1013E000551F59F05F3F71F04795880F97FB991F84
:1013F00061F09F3F79F08795089512161306140641
:10140000551FF2CF4695F1DF08C0161617061806CD
:10141000991FF1CF86957105610508940895E894A8
:10142000BB2766277727CB0197F9089508D108F4E1
:101430008FEF0895DADFA8F19E57A8F1985160F078
:1014400039F1983070F5092E9927660F771F881F9C
:10145000991F0A94D1F71CC0BB27993F4CF4B111D6
:10146000B1E0B62B672F782F8827985FB1F708C0B7
:10147000869577956795B79508F4B1609395C1F710
:10148000BB0F30F411F460FF03C06F5F7F4F8F4FCD
:101490003EF490958095709561957F4F8F4F9F4F4B
:1014A00008956894BDCFBBCF0BD075CF3EDF28F039
:1014B00043DF18F0952309F00ACF0FCF1124B0CFE6
:1014C0008CDFA0F3959FD1F3950F50E0551F629FDD
:1014D000F001729FBB27F00DB11D639FAA27F00D8D
:1014E000B11DAA1F649F6627B00DA11D661F829FB4
:1014F0002227B00DA11D621F739FB00DA11D621F99
:10150000839FA00D611D221F749F3327A00D611DB5
:10151000231F849F600D211D822F762F6A2F112497
:101520009F5750408AF0E1F088234AF0EE0FFF1FEA
:10153000BB1F661F771F881F91505040A9F79E3F21
:10154000510570F0C4CE6CCF5F3FECF3983EDCF3F6
:10155000869577956795B795F795E7959F5FC1F75E
:10156000FE2B880F911D9695879597F908953DDF7D
:10157000E0F09E37D8F09639B8F49E3848F4672FDB
:10158000782F8827985FF9CF8695779567959395FB
:101590009539D0F3B62FB1706B0F711D811D20F4FA
:1015A00087957795679593956EC088C039CF9F933F
:1015B000CBDE0F9007FCEE5FFFCE11F40EF48DCE64
:1015C0007DC013DFD0F39923D9F3CEF39F57550B8A
:1015D00087FF82D00024A0E640EA9001805856950B
:1015E000979528F4805C660F771F881F20F02617D8
:1015F0003707480730F4621B730B840B202931290D
:101600004A2BA69517940794202531254A2758F789
:10161000660F771F881F20F026173707480730F41A
:10162000620B730B840B200D311D411DA09581F7BA
:10163000B901842F9158880F969587950895990F31
:101640000008550FAA0BE0E8FEEF16161706E8078C
:10165000F907C0F012161306E407F50798F0621BAD
:10166000730B840B950B39F40A2661F0232B242B82
:10167000252B21F408950A2609F4A140A6958FEFA1
:10168000811D811D0895882371F4772321F09850DE
:10169000872B762F07C0662311F499270DC0905130
:1016A000862B70E060E02AF09A95660F771F881FFE
:1016B000DAF7880F9695879597F908959F3F31F04F
:1016C000915020F4879577956795B795880F911D70
:1016D0009695879597F9089591505040660F771F1A
:1016E000881FD2F708959F938F937F936F93FF93F3
:1016F000EF939B01AC01D8DEEF91FF91F1DD2F91CB
:0C1700003F914F915F91D0CEF894FFCF45
:10170C0017B7513F73D7123F8BFD25BE0000000069
:10171C00000080BF7B14AEBF17B751BF73D7123F09
:0C172C008BFD25BE52B8B6410000000045
:040000050080017105
:00000001FF
