S01C000044656C74615F52686F5F636F6E74726F6C6C65722E73726563F3
S11300007FC000009CC000009AC0000098C000009F
S113001096C0000094C0000092C0000090C0000090
S11300208EC000008CC000008AC0000088C00000A0
S113003086C0000084C0000082C0000080C00000B0
S11300407EC000007CC000007AC0000078C00000C0
S113005076C0000074C0000072C0000070C00000D0
S11300606EC000006CC000000C949D0D68C00000C0
S1130070F7C7000064C0000062C0000060C0000058
S113008051C100005CC000005AC00000084AD73BC0
S11300903BCE016E84BCBFFDC12F3D6C74319ABD53
S11300A056833DDA3D00C77F11BED9E4BB4C3E9177
S11300B06BAAAABE000000803F072C7AA5BA6CC5C3
S11300C090DA3B9365FC8BBC53F810FD3C5692834D
S11300D04DBD879D3AB63DCBC9BF5BBE73DA0FC930
S11300E03F05A84CCDB2D44EB93836A9020C50B94C
S11300F0918688083CA6AAAA2ABE000000803F0078
S113010011241FBECFEFD0E4DEBFCDBF11E0A0E0CD
S1130110B1E0E0EAF4E200E00BBF02C007900D9208
S1130120AC32B107D9F721E0ACE2B1E001C01D92D5
S1130130A33DB207E1F70E94560C0C944E1260CF17
S11301406F927F928F929F92AF92CF92EF92FF9293
S11301500F931F93CF93DF93ACE7B0E01C92EAE7D1
S1130160F0E010829BE7692E712CE30118823EE7D0
S1130170832E912CE40118823081D0E88D9FC00138
S11301801124832B8083E40168838C91D0E44D9FF8
S1130190A0011124482B4C938C9150E2059F8001BF
S11301A01124082B0C938081282B2083808190E2DA
S11301B0E99E70011124E82AE082D3018C91C82AB7
S11301C0CC928081AA0CAA0CAA0CA82AA082DF9146
S11301D0CF911F910F91FF90EF90CF90AF909F9090
S11301E08F907F906F90089590917C00907E909373
S11301F07C0090917C00892B80937C0080917A0014
S1130200806480937A0080917A0084FFFCCF80918F
S11302107A00806180937A0080917800209179003F
S113022090E0922B0895AF92CF92EF920F93E1E674
S1130230F0E080E88083108211B812B88FEF84B99F
S113024015B880EF87B918B88BEF8AB91BB891EA53
S113025094BD82E085BD16BC17BC18BC9093800089
S11302608093810010928500109284001092870080
S113027010928600109289001092880010928B00D0
S113028010928A001092B6009093B0008093B1004F
S11302901092B2001092B3001092B4001092900029
S11302A09DE090939100109295001092940010920A
S11302B09700109296001092990093E690939800FC
S11302C010929B0010929A0010926E0010926F0090
S11302D01092700080937100A12CC12CE12C00E0DD
S11302E027E041E069E081E02BDF60E070E088EA2C
S11302F091E40E94E010615071097093CD00609305
S1130300CC00E9ECF0E088E18083AAECB0E08C91C9
S113031086608C938081806880830F91EF90CF906A
S1130320AF9008951F920F920FB60F9211248F93DE
S11303309F93AF93BF93809166018F5F8093660113
S1130340809184018F5F8093840180915501909105
S11303505601A0915701B09158010196A11DB11DFC
S11303608093550190935601A0935701B09358017F
S1130370BF91AF919F918F910F900FBE0F901F90DF
S11303801895CF93DF93E9EAF1E0A5EBB1E0C7EC70
S1130390D1E04FEF50E013C0803591050CF04FC011
S11303A0288139818217930709F449C011965C9317
S11303B04E931296229681E0E53BF80769F081910D
S11303C09191009749F711961C921E9212962296CB
S11303D081E0E53BF80799F78091A9019091AA0182
S11303E09093C8018093C7018091AB019091AC01B7
S11303F09093CA018093C9018091AD019091AE019F
S11304009093CC018093CB018091AF019091B00186
S11304109093CE018093CD018091B1019091B2016E
S11304209093D0018093CF018091B3019091B40156
S11304309093D2018093D101DF91CF9108951196C9
S11304409C938E93B6CF2F923F924F925F926F926E
S11304507F928F929F92AF92BF92CF92DF92EF9250
S1130460FF920F931F93CF93DF93CDB7DEB7C2559F
S1130470D1090FB6F894DEBF0FBECDBF2D961FAFC6
S11304800EAF2D978CE0EFE1F1E0DE01DD960190F7
S11304900D928A95E1F780E198EDA0E3B2E48DA393
S11304A09EA3AFA3B8A786E896EBA3E8B2EC89A70E
S11304B09AA7ABA7BCA74AEA51E76EE772EC4DA72F
S11304C05EA76FA778AB89AB9AABABABBCAB83E34E
S11304D093E3ABE1B1EC8DAB9EABAFABB8AF81EEC8
S11304E09AE3AFE1B3EC89AF9AAFABAFBCAFCE0147
S11304F0CD962F969FAF8EAF2F978E010F5F1F4F14
S1130500DE0195962B96BFAFAEAF2B9786E896EBA0
S1130510A3E8B2EC63968CAF9DAFAEAFBFAF639769
S113052080E1482E88ED582E80E3682E82E4782EF0
S1130530212C312C2F96AEADBFAD2F978D909D9071
S1130540AD90BD902F96BFAFAEAF2F97C501B4014C
S11305500E949D116B017C01C501B4010E940E0F24
S11305604B015C01A3019201C701B6010E941A115B
S11305702B013C0163962CAD3DAD4EAD5FAD639751
S1130580C501B4010E941A119B01AC01C301B2015F
S11305900E94430E20E030E048E951E40E94110F2C
S11305A0F801608371838283938320E030E048E91B
S11305B051E4C501B4010E94110FD80114966D9342
S11305C07D938D939C93179720E030E048E951E4A4
S11305D0C701B6010E94110FF801608771878287F5
S11305E09387FFEF2F1A3F0A045F1F4F2B968EADA0
S11305F09FAD2B9708962B969FAF8EAF2B9793E0CA
S113060029163104B1F02B96AEADBFAD2B974D90AA
S11306105D906D907C90139714968D919D910D90A3
S1130620BC91A02D63968CAF9DAFAEAFBFAF639767
S113063081CF8D859E85AF85B8892D96EEADFFADB2
S11306402D9780839183A283B38389899A89AB8907
S1130650BC8984839583A683B7838D899E89AF895A
S1130660B88D80879187A287B387898D9A8DAB8D4A
S1130670BC8D84879587A687B7878D8D9E8DAF8D1A
S1130680B8A1808B918BA28BB38B89A19AA1ABA1CA
S1130690BCA1848B958BA68BB78B89819A81AB8106
S11306A0BC81808F918FA28FB38F8D819E81AF810A
S11306B0B885848F958FA68FB78F89859A85AB85EA
S11306C0BC8580A391A3A2A3B3A3CE5ADF4F0FB6D8
S11306D0F894DEBF0FBECDBFDF91CF911F910F9174
S11306E0FF90EF90DF90CF90BF90AF909F908F904E
S11306F07F906F905F904F903F902F9008952F922E
S11307003F924F925F927F928F929F92AF92BF924D
S1130710CF92DF92EF92FF920F931F93CF93DF93C9
S1130720CDB7DEB768970FB6F894DEBF0FBECDBF66
S113073029873A874B875C876D877E878F87988B5D
S11307404701580189859A85AB85BC85898B9A8B2D
S1130750AB8BBC8B2D843E844F845888C801B70171
S11307600E940E0F6B017C01C501B4010E949D1112
S11307704B015C0129893A894B895C89C701B6011F
S11307800E941A116D8B7E8B8F8B988FA201910121
S1130790C501B4010E941A119B01AC016D897E89C7
S11307A08F89988D0E94430E762EAB01BC0149833C
S11307B05A836B837C8329893A894B895C89C50177
S11307C0B4010E941A114B015C01A2019101C701FD
S11307D0B6010E941A119B01AC01C501B4010E942B
S11307E0440EE62F462F572FBC014D835E836F8343
S11307F07887272D3A814B815C816E2F7E818F8192
S1130800988568960FB6F894DEBF0FBECDBFDF9112
S1130810CF911F910F91FF90EF90DF90CF90BF90F9
S1130820AF909F908F907F905F904F903F902F90CC
S113083008952F923F924F925F926F927F928F9280
S11308409F92AF92BF92CF92DF92EF92FF920F935B
S11308501F93CF93DF934C011B015B0181E0A81A26
S1130860B1081A141B047CF58B010150104C000FC5
S1130870111F000F111F080D191DE401C990D99013
S1130880E990F990488059806A807B80A3019201A5
S1130890C701B6010E94D510181654F4FE0134970E
S11308A04082518262827382C882D982EA82FB8248
S11308B0C017D10719F781E0A81AB108045011092B
S11308C0A114B104D1F620FE22C037FC3EC03594F9
S11308D02794F101EE0FFF1FEE0FFF1FE80DF91D26
S11308E06081718182819381DF91CF911F910F91FA
S11308F0FF90EF90DF90CF90BF90AF909F908F903C
S11309007F906F905F904F903F902F90089537FCA9
S113091020C0F101F595E795E150F04CEE0FFF1F73
S1130920EE0FFF1FE80DF91D2081318142815381B3
S113093064817581868197810E94440E20E030E0B5
S113094040E05FE30E941A11CFCF8FEF281A380AD4
S1130950BECF8FEF281A380ADCCFEF92FF920F93A5
S11309601F93CF93DF93CDB7DEB7A8970FB6F89454
S1130970DEBF0FBECDBF8E010F5F1F4F7E0185E12D
S1130980E80EF11C83E030DCBC01990F880B990B55
S11309900E94AC0FF80161937193819391938F013D
S11309A080E022DCBC01990F880B990B0E94AC0FEC
S11309B0F801608B718B828B938B87EA91E60197A8
S11309C0F1F700C000000E151F05E1F665E070E0C8
S11309D0CE0101962EDF6093020170930301809390
S11309E004019093050165E070E0C80122DF609383
S11309F00601709307018093080190930901A8965A
S1130A000FB6F894DEBF0FBECDBFDF91CF911F911B
S1130A100F91FF90EF9008953F924F925F926F92E3
S1130A207F928F929F92AF92BF92CF92DF92EF927A
S1130A30FF920F931F93CF93DF93CDB7DEB7A497A5
S1130A400FB6F894DEBF0FBECDBF87DF02E011E022
S1130A5020E030E040E85AE3D8016D917D918D911A
S1130A609C910E941A1125EA3EE448EB50E40E944E
S1130A701A1120E53DE847EA5FE30E94430E4B016B
S1130A805C0120E030E040E85AE3F80164817581BC
S1130A90868197810E941A1125EA3EE448EB50E4CE
S1130AA00E941A1120E53DE847EA5FE30E94430EE5
S1130AB02B013C010AE011E0D801CD90DD90ED90CE
S1130AC0FC90C501B4010E940E0F9B01AC01C7014B
S1130AD0B6010E941A1120E030E0A9010E94440EE0
S1130AE06D8F7E8F8F8F98A3C501B4010E949D11D5
S1130AF09B01AC01C701B6010E941A1120E030E04D
S1130B00A9010E94440E69A37AA38BA39CA3F801B4
S1130B10C480D580E680F780C301B2010E940E0F25
S1130B204B015C01C301B2010E949D112B013C01E8
S1130B30A5019401C701B6010E941A1122E538EB00
S1130B4046EB51E40E94440E2D8D3E8D4F8D58A1ED
S1130B500E94430E698B7A8B8B8B9C8BA301920131
S1130B60C701B6010E941A1120E030E0A9010E94D9
S1130B70440E29A13AA14BA15CA10E94430E6D8BA6
S1130B807E8B8F8B988F29893A894B895C89CA011E
S1130B90B9010E941A116B017C012D893E894F898C
S1130BA0588DCA01B9010E941A119B01AC01C701F9
S1130BB0B6010E94440E0E94A7114B015C01D801AA
S1130BC01896CD90DD90ED90FC901B971C968D911E
S1130BD09D910D90BC91A02D898F9A8FAB8FBC8F66
S1130BE0A7019601C701B6010E941A112B013C010D
S1130BF0A5019401C501B4010E941A119B01AC0125
S1130C00C301B2010E94440E2B013C01298D3A8D8F
S1130C104B8D5C8DCA01B9010E941A119B01AC0174
S1130C20C301B2010E94430E2B013C01A7019601AE
S1130C30C701B6010E94440EA50194010E941A1135
S1130C409B01AC01C301B2010E94110F0E94350E39
S1130C502B013C01A701960169897A898B899C89BA
S1130C600E941A11A50194010E94110F362EAB01A6
S1130C70BC0149875A876B877C87A70196016D89D8
S1130C807E898F89988D0E941A11A50194010E9472
S1130C90110FE62FAB01BC014D875E876F87788B00
S1130CA083017201232D3A854B855C856E2F7E85E9
S1130CB08F85988924DD29833A834B835C836D83F4
S1130CC07E838F83988705E411E02D8D3E8D4F8DB3
S1130CD058A169817A818B819C81D6D7F801608380
S1130CE071838283938329A13AA14BA15CA16D8175
S1130CF07E818F819885C8D7D80114966D937D9392
S1130D008D939C931797A4960FB6F894DEBF0FBEED
S1130D10CDBFDF91CF911F910F91FF90EF90DF90A6
S1130D20CF90BF90AF909F908F907F906F905F9087
S1130D304F903F9008953F924F925F926F927F92AF
S1130D408F929F92AF92BF92CF92DF92EF92FF92D7
S1130D500F931F93CF93DF93CDB7DEB7A4970FB64E
S1130D60F894DEBF0FBECDBFF8DD02E011E020E055
S1130D7030E040E85AE3D8016D917D918D919C91CA
S1130D800E941A1125EA3EE448EB50E40E941A112D
S1130D9020E53DE847EA5FE376D74B015C0120E0BC
S1130DA030E040E85AE3F8016481758186819781D7
S1130DB00E941A1125EA3EE448EB50E40E941A11FD
S1130DC020E53DE847EA5FE35ED72B013C010AE0FA
S1130DD011E0D801CD90DD90ED90FC90C501B401F7
S1130DE00E940E0F9B01AC01C701B6010E941A11AB
S1130DF020E030E0A90148D76D8F7E8F8F8F98A3B4
S1130E00C501B4010E949D119B01AC01C701B6014B
S1130E100E941A1120E030E0A90136D769A37AA311
S1130E208BA39CA3F801C480D580E680F780C3011E
S1130E30B201F4D74B015C01C301B2010E949D11C0
S1130E402B013C01A5019401C701B6010E941A11AE
S1130E5022E538EB46EB51E417D72D8D3E8D4F8DAF
S1130E6058A111D7698B7A8B8B8B9C8BA301920130
S1130E70C701B6010E941A1120E030E0A90104D78D
S1130E8029A13AA14BA15CA1FED66D8B7E8B8F8BE1
S1130E90988F29893A894B895C89CA01B9010E94D2
S1130EA01A116B017C012D893E894F89588DCA0125
S1130EB0B9010E941A119B01AC01C701B601E4D625
S1130EC00E94A7114B015C01D8011896CD90DD90CA
S1130ED0ED90FC901B971C968D919D910D90BC916B
S1130EE0A02D898F9A8FAB8FBC8FA7019601C70164
S1130EF0B6010E941A112B013C01A5019401C50100
S1130F00B4010E941A119B01AC01C301B201BCD609
S1130F102B013C01298D3A8D4B8D5C8DCA01B901A1
S1130F200E941A119B01AC01C301B201ACD62B0182
S1130F303C01A7019601C701B601A6D6A5019401FB
S1130F400E941A119B01AC01C301B2016AD78DD66C
S1130F502B013C01A701960169897A898B899C89B7
S1130F600E941A11A50194015CD7362EAB01BC0175
S1130F7049875A876B877C87A70196016D897E898B
S1130F808F89988D0E941A11A50194014AD7E62FE2
S1130F90AB01BC014D875E876F87788B830172013B
S1130FA0232D3A854B855C856E2F7E858F859889A8
S1130FB0A6DB29833A834B835C836D837E838F8393
S1130FC098872D813E814F81588569A17AA18BA193
S1130FD09CA15AD64B015C010DE411E029813A81B0
S1130FE04B815C816D8D7E8D8F8D98A14DD625E4CE
S1130FF0E22E21E0F22EF7012081318142815381DA
S113100042D6DC01CB01B058F80180839183A283DE
S1131010B383D70114962D913D914D915C9117970F
S1131020C501B40130D6F801648375838683978340
S1131030A4960FB6F894DEBF0FBECDBFDF91CF915B
S11310401F910F91FF90EF90DF90CF90BF90AF90E2
S11310509F908F907F906F905F904F903F900895F6
S11310601F920F920FB60F9211240BB60F922F936B
S11310703F934F935F936F937F938F939F93AF931C
S1131080BF93EF93FF938091C80087FFFCCF8091BB
S1131090CE008535A1F0479AFF91EF91BF91AF91B2
S11310A09F918F917F916F915F914F913F912F917C
S11310B00F900BBE0F900FBE0F901F90189580914C
S11310C0C80087FFFCCF8091CE00982F9B7019F742
S11310D04798807F803509F4CDC010F1803B09F436
S11310E00AC1B8F5803709F4A2C08038A1F6E1EC52
S11310F0F1E047EC51E08091C80087FFFCCF90916C
S1131100CE008091C80087FFFCCF2091CE00892FAC
S113111090E0922B819391934E175F0761F7BBCFB9
S1131120803109F4DAC008F494C0803209F483C031
S1131130803309F0B0CFE9E7F1E091918091C800E4
S113114085FFFCCF9093CE0081E0EF37F807A9F735
S1131150A2CF803C91F0803D09F09DCF81E090E0EA
S11311602091420130914301232B11F080E090E063
S113117090934301809342018ECF8091C80087FFF2
S1131180FCCF8091CE0090E09093AA018093A901B6
S11311908091C80087FFFCCF8091CE0090E09093AF
S11311A0AC018093AB018091C80087FFFCCF809194
S11311B0CE0090E09093AE018093AD018091C80081
S11311C087FFFCCF8091CE0090E09093B001809394
S11311D0AF018091C80087FFFCCF8091CE0090E0E2
S11311E09093B2018093B1018091C80087FFFCCF36
S11311F08091CE0090E09093B4018093B301C1D864
S11312008091B501809388008091B70180938A0012
S11312108091B90187BD8091BB0188BD8091BD01DA
S11312208093B3008091BF018093B40034CF81E0F8
S11312308093440130CFE3E7F1E091918091C800BD
S113124085FFFCCF9093CE0081E0E937F807A9F73A
S113125022CF811120CFE1ECF1E027EC31E0919134
S11312608091C80085FFFCCF9093CE002E173F07D6
S1131270B1F711CF20E030E048EC52E460914D0129
S113128070914E0180914F0190915001D3D731D686
S113129070933D0160933C0120E030E048EC52E45F
S11312A060915101709152018091530190915401C8
S11312B0C1D71FD670933F0160933E01ECE3F1E088
S11312C022E431E091918091C80085FFFCCF909396
S11312D0CE002E173F07B1F7DECEE7E6F1E091919D
S11312E08091C80085FFFCCF9093CE0081E0ED365D
S11312F0F807A9F7D0CEEDE6F1E043E751E080919D
S1131300C80087FFFCCF9091CE008091C80087FF72
S1131310FCCF2091CE00892F90E0922B8193919362
S11313204E175F0761F7B7CECED3811109C0809104
S11313305A0180FF06C081FD07C0C5D3882319F078
S11313400895C4D3CAC3C9C364E08FE791E0D5D379
S1131350109283018FE791E00E942912909301017A
S11313608093000181E090E090932D0180932C0103
S1131370E4CF2F923F924F925F926F927F928F921F
S11313809F92AF92BF92CF92DF92EF92FF920F9310
S11313901F93CF93DF93CDB7DEB764970FB6F8945E
S11313A0DEBF0FBECDBF19821A821B821C821D8232
S11313B01E821F82188619861A861B861C86209117
S11313C05101309152014091530150915401609167
S11313D04D0170914E0180914F019091500105E8AB
S11313E011E031D8CE0101961C014801FE013D9661
S11313F0FC8BEB8B7C01412C512C32018CE3A82E0D
S113140081E0B82E00E311E06401F601619171916D
S1131410819191916F01F801219131914191519103
S11314208F0108D79B01AC01C301B2012DD42B015C
S11314303C01A016B10649F7F701619371938193BA
S113144091937F01FCE08F0E911C8B899C89E81697
S1131450F90631F0F7014080518062807380D2CF69
S11314608E010D5E1F4FF1016191719181919191F6
S11314701F0143D73ED56F3F710511F00CF05DC0DD
S11314806130FFEF7F070CF45AC077FD5DC0F701B0
S113149010826183F2E0EF0EF11C0E151F0519F79F
S11314A02D85822F90E09093AA018093A9018E85C7
S11314B090E09093AC018093AB018F8590E0909382
S11314C0AE018093AD01888990E09093B001809340
S11314D0AF01898990E09093B2018093B1018A8928
S11314E090E09093B4018093B301209388008E859B
S11314F080938A008F8587BD888988BD8989809378
S1131500B3008A898093B40064960FB6F894DEBF62
S11315100FBECDBFDF91CF911F910F91FF90EF9040
S1131520DF90CF90BF90AF909F908F907F906F90FF
S11315305F904F903F902F9008956FEFA8CF6FEF7B
S1131540F70160831182A6CF6195FACF4F925F9223
S11315506F927F928F929F92AF92BF92CF92DF92BF
S1131560EF92FF92CF93DF93EC0180910001909171
S11315700101813B910544F08091000190910101AA
S1131580883B91050CF468C010922F0110922E0133
S11315906091000170910101072E000C880B990BDA
S11315A0DBD49B01AC016C897D898E899F896BD3C7
S11315B06B017C012C853D854E855F8565D34B0190
S11315C05C016C877D878E879F87288139814A815A
S11315D05B81C701B6012ED62B013C012C813D81D4
S11315E04E815F81C501B40125D69B01AC01C301C5
S11315F0B2014AD34B015C01288939894A895B8944
S1131600C701B60140D3288539854A855B8512D642
S11316109B01AC01C501B40137D3C88AD98AEA8ACF
S1131620FB8A60933001709331018093320190936F
S1131630330110922D0110922C01DF91CF91FF9074
S1131640EF90DF90CF90BF90AF909F908F907F905E
S11316506F905F904F90089580912E0190912F018B
S1131660019690932F0180932E0192CF2F923F9257
S11316704F925F926F927F928F929F92AF92BF929E
S1131680CF92DF92EF92FF920F931F93CF93DF934A
S1131690CDB7DEB766970FB6F894DEBF0FBECDBFE9
S11316A08C01C0905101D0905201E0905301F09010
S11316B05401F7FAF094F7F8F09420E030E0A9012F
S11316C0C701B601A7D387FD34C080904D01909027
S11316D04E01A0904F01B0905001B7FAB094B7F802
S11316E0B094A5019401C501B401A4D52B013C011A
S11316F0A7019601C701B6019DD59B01AC01C301A9
S1131700B201C2D224D6F5D36D5F7F4F6730710525
S113171048F510923401109235011092360110925E
S11317203701109238011092390110923A01109247
S11317303B0166960FB6F894DEBF0FBECDBFDF91B6
S1131740CF911F910F91FF90EF90DF90CF90BF90BA
S1131750AF909F908F907F906F905F904F903F904D
S11317602F9008957090340180913501898BE09118
S11317703601EA8BF0913701FB8B60903801809140
S113178039018C8BE0913A01ED8BF0913B01FE8B9A
S1131790272D39894A895B89662D782FCF01E7D2B5
S11317A01B012C01A5019401C701B601E0D2A201DD
S11317B0910169D26B017C01F80124853585468548
S11317C0578562D24B015C01F8016487758786876F
S11317D097872081318142815381C701B6012AD57F
S11317E01B012C01F8012481358146815781C501F3
S11317F0B40120D59B01AC01C201B10145D24B011A
S11318005C01F8012089318942895389C701B601F5
S11318103AD2F80120853185428553850BD59B0149
S1131820AC01C501B40130D2F801C08AD18AE28A80
S1131830F38A272DC72CD988EA88FB88C986DA86DB
S1131840EB86FC86C62CDC88ED88FE88CD86DE8699
S1131850EF86F88A7B018C013A854B855C85662D81
S11318607E858F8598890E947F0329833A834B83E1
S11318705C836D837E838F83988789819A81AB8112
S1131880BC818093340190933501A0933601B093C9
S113189037018D819E81AF81B88580933801909303
S11318A03901A0933A01B0933B0143CFBF92CF9249
S11318B0DF92EF92FF920F931F93CF93DF93CDB7F5
S11318C0DEB7E0970FB6F894DEBF0FBECDBF0E941F
S11318D0130181E1F0D0789400D110929500109218
S11318E0940080917100816080937100479A4698BA
S11318F093D880E090E0A0E8BFE3898F9A8FAB8F04
S1131900BC8F1D8E1E8E1F8E18A28AE097EDA3EA4F
S1131910BDE389A39AA3ABA3BCA31DA21EA21FA2CD
S113192018A619A61AA61BA61CA61DA61EA61FA6A7
S113193018AA86E696E6A6E2BFE389839A83AB8378
S1131940BC831D821E821F82188619861A861B86F6
S11319501C861D861E861F86188A198A1A8A1B8A67
S11319601C8A80E090E0A4E3B3E48D8B9E8BAF8B64
S1131970B88F80914401811169C000E010E080E4D7
S1131980B82EC12C90E4D92E9CE1E92E95E4F92ED1
S1131990CBDCD1D98091420190914301892B09F488
S11319A06AC0083E23E012077CF40F5F1F4FC09209
S11319B03801D0923901E0923A01F0923B01D9DC2E
S11319C0083E83E0180789F7CE0149964FDE8091DF
S11319D02C0190912D01892B09F069C010923001DE
S11319E0109231011092320110923301109234019D
S11319F0109235011092360110923701109238017D
S1131A001092390110923A0110923B0110922F0169
S1131A1010922E0180912E0190912F014E9724F067
S1131A201092430110924201A4DC88B18B2588B93D
S1131A309FE72AE186E0915020408040E1F700C012
S1131A40000080914401882309F4A2CF85E08093AB
S1131A50910080E090E0E0960FB6F894DEBF0FBEF0
S1131A60CDBFDF91CF911F910F91FF90EF90DF9049
S1131A70CF90BF90089510923001109231011092CE
S1131A8032011092330110923401109235011092F8
S1131A9036011092370110923801109239011092D8
S1131AA03A0110923B0165DC01E010E0C1CFCE01A8
S1131AB001964CDD9BCF8093BA0084E08093BC00F8
S1131AC010925B01089580915B01089580915B0100
S1131AD08111FECF80911E01089580915B018111D7
S1131AE0FECF81E080935A0188EF80931E0185EC3C
S1131AF08093BC0010925B01089520915B01211139
S1131B00FECF20915A0120FF15C0662371F0ADE588
S1131B10B1E0FC016150862F90E001968E0F9F1F6B
S1131B202D912193E817F907D9F720915A012D7FB8
S1131B3020935A01822F817008951F920F920FB63D
S1131B400F9211240BB60F928F939F93EF93FF93F1
S1131B508091B900803909F46AC0F0F0883AE1F163
S1131B6008F45AC0803CE1F1883C09F44DC0883B3C
S1131B70E9F5E091590181E08E0FF0E0809359017D
S1131B80E35AFE4F80818093BB0085EC8093BC00B8
S1131B9081E080935B0115C0803709F442C080F571
S1131BA0882391F1803611F580915A0182608093E7
S1131BB05A011092590185EC8093BC0081E0809316
S1131BC05B01FF91EF919F918F910F900BBE0F904E
S1131BD00FBE0F901F901895E0E0F0E081E0CECFAB
S1131BE09091590180915C019817C9F18091B900D5
S1131BF080931E0185EC8093BC0010925B01E1CFC1
S1131C008038A9F0883891F78091B90080931E013B
S1131C1080E98093BC00D5CF8839B1F3803A51F381
S1131C20E5CF80915A01846080935A01BDCFE09141
S1131C30590181E08E0F809359018091BB00F0E03F
S1131C40E35AFE4F808380915A01816080935A0148
S1131C5085EC8093BC0081E080935B01B2CF8091DE
S1131C605A01816080935A01C5CF9F939F77AFD16A
S1131C700F9000203AF49058A2EA2AED3FE049E49C
S1131C8050E413D047C25058BB27AA270ED042C2F3
S1131C900BD230F010D220F031F49F3F11F41EF437
S1131CA0DBC10EF4E095E7FBD1C1E92F55D280F3F7
S1131CB0BA17620773078407950718F071F49EF545
S1131CC06DC20EF4E0950B2EBA2FA02D0B01B901B5
S1131CD090010C01CA01A0011124FF27591B99F09E
S1131CE0593F50F4503E68F11A16F040A22F232FAA
S1131CF0342F4427585FF3CF469537952795A795FA
S1131D00F0405395C9F77EF41F16BA0B620B730BA0
S1131D10840BBAF09150A1F0FF0FBB1F661F771F11
S1131D20881FC2F70EC0BA0F621F731F841F48F4C6
S1131D30879577956795B795F7959E3F08F0B3CF4C
S1131D409395880F08F09927EE0F97958795089536
S1131D50ABD158F080E891E009F49EEFACD128F0C3
S1131D6040E851E059F45EEF09C076C117C2E92F8B
S1131D70E078F2D168F3092E052AC1F32617370754
S1131D804807590738F00E2E07F8E02569F0E025DA
S1131D90E0640AC0EF6307F8009407FADB01B901B5
S1131DA09D01DC01CA01AD01EF934AD0B3D10AD041
S1131DB05F91552331F02BED3FE049E450FD49ECB0
S1131DC063CF0895DF93DD27B92FBF7740E85FE342
S1131DD01616170648075B0710F4D92FEAD19F930C
S1131DE08F937F936F93F1D2ECE8F0E038D192D1E6
S1131DF02F913F914F915F9129D2DD2349F0905863
S1131E00A2EA2AED3FE049EC5FE3D0785D274DDF9D
S1131E10DF9180C1F7D008F481E0089554D1E395AF
S1131E208AC10CD077C147D140F03ED130F021F4C3
S1131E305F3F19F00BC15111B2C10EC18DD198F39E
S1131E409923C9F35523B1F3951B550BBB27AA2737
S1131E5062177307840738F09F5F5F4F220F331FA9
S1131E60441FAA1FA9F333D00E2E3AF0E0E830D075
S1131E7091505040E695001CCAF729D0FE2F27D078
S1131E80660F771F881FBB1F261737074807AB0746
S1131E90B0E809F0BB0B802DBF01FF2793585F4FBB
S1131EA02AF09E3F510568F0D1C079C15F3FECF341
S1131EB0983EDCF3869577956795B795F7959F5F80
S1131EC0C9F7880F911D9695879597F90895E1E0D4
S1131ED0660F771F881FBB1F621773078407BA0733
S1131EE020F0621B730B840BBA0BEE1F88F7E0958E
S1131EF0089504D06894B11152C1089535D188F081
S1131F009F5790F0B92F9927B751A0F0D1F0660FE1
S1131F10771F881F991F1AF0BA95C9F712C0B130FC
S1131F2081F03CD1B1E0089539C1672F782F88271B
S1131F30B85F39F0B93FCCF3869577956795B3953B
S1131F40D9F73EF490958095709561957F4F8F4FAA
S1131F509F4F0895E89409C097FB3EF490958095AF
S1131F60709561957F4F8F4F9F4F9923A9F0F92F5B
S1131F7096E9BB279395F695879577956795B795D9
S1131F80F111F8CFFAF4BB0F11F460FF1BC06F5FBF
S1131F907F4F8F4F9F4F16C0882311F096E911C0D1
S1131FA0772321F09EE8872F762F05C0662371F0F2
S1131FB096E8862F70E060E02AF09A95660F771F06
S1131FC0881FDAF7880F9695879597F90895DF9318
S1131FD0CF931F930F938B01EC01E9EBF0E03FD01B
S1131FE099D09801AE018B01EC0160E070E080E8CB
S1131FF09FE349DEACD19801AE010F911F91CF91BF
S1132000DF9124C1990F0008550FAA0BE0E8FEEFF9
S113201016161706E807F907C0F012161306E407A8
S1132020F50798F0621B730B840B950B39F40A26A1
S113203061F0232B242B252B21F408950A2609F47F
S1132040A140A6958FEF811D811D089597F99F6783
S113205080E870E060E008959FEF80EC0895DF93DE
S1132060CF931F930F93FF92EF92DF927B018C012A
S1132070689405C0DA2EEF01E9D0FE01E894A59139
S11320802591359145915591AEF3EF010EDEFE0198
S11320909701A801DA9479F7DF90EF90FF900F9100
S11320A01F91CF91DF91089500240A941616170604
S11320B018060906089500240A9412161306140635
S11320C005060895C9CF50D0E8F3E894E0E0BB27B3
S11320D09F57F0F02AED3FE049EC06C0EE0FBB0F2E
S11320E0661F771F881F28F0B23A620773078407B8
S11320F028F0B25A620B730B840BE3959A9572F72E
S1132100803830F49A95BB0F661F771F881FD2F76B
S113211090487BC1092E0394000C11F4882352F0DB
S1132120BB0F40F4BF2B11F460FF04C06F5F7F4FFF
S11321308F4F9F4F0895EF93E0FF06C0A2EA2AED68
S11321403FE049EC5FEBB1DDE5DF0F90039401FC68
S11321509058E1EEF0E06CC157FD9058440F551FC4
S113216059F05F3F71F04795880F97FB991F61F015
S11321709F3F79F087950895121613061406551F8C
S1132180F2CF4695F1DF08C0161617061806991FF8
S1132190F1CF86957105610508940895E894BB27ED
S11321A066277727CB0197F908952CDF08F48FEF82
S11321B008959B01AC0160E070E080E89FE331CEBC
S11321C0D3DFA8F19E57A8F1985160F039F1983007
S11321D070F5092E9927660F771F881F991F0A9497
S11321E0D1F71CC0BB27993F4CF4B111B1E0B62B19
S11321F0672F782F8827985FB1F708C08695779561
S11322006795B79508F4B1609395C1F7BB0F30F4A7
S113221011F460FF03C06F5F7F4F8F4F3EF49095C2
S11322208095709561957F4F8F4F9F4F0895689467
S1132230B6CFB4CF0BD06ECF37DF28F03CDF18F029
S1132240952309F003CF08CF1124A9CF85DFA0F38C
S1132250959FD1F3950F50E0551F629FF001729F37
S1132260BB27F00DB11D639FAA27F00DB11DAA1F56
S1132270649F6627B00DA11D661F829F2227B00DA3
S1132280A11D621F739FB00DA11D621F839FA00D2E
S1132290611D221F749F3327A00D611D231F849F7E
S11322A0600D211D822F762F6A2F11249F575040D5
S11322B08AF0E1F088234AF0EE0FFF1FBB1F661F70
S11322C0771F881F91505040A9F79E3F510570F029
S11322D0BDCE65CF5F3FECF3983EDCF386957795F2
S11322E06795B795F795E7959F5FC1F7FE2B880F24
S11322F0911D9695879597F9089536DFE0F09E37FE
S1132300D8F09639B8F49E3848F4672F782F882788
S1132310985FF9CF86957795679593959539D0F31E
S1132320B62FB1706B0F711D811D20F487957795C1
S1132330679593954DC067C032CF9F93C4DE0F90CD
S113234007FCEE5FF8CE11F40EF486CE5CC00CDF11
S1132350D0F39923D9F3CEF39F57550B87FF61D060
S11323600024A0E640EA900180585695979528F4F9
S1132370805C660F771F881F20F0261737074807F1
S113238030F4621B730B840B202931294A2BA69548
S113239017940794202531254A2758F7660F771F8D
S11323A0881F20F026173707480730F4620B730B99
S11323B0840B200D311D411DA09581F7B901842F97
S11323C09158880F9695879508959B01AC0132CF5B
S11323D0882371F4772321F09850872B762F07C038
S11323E0662311F499270DC09051862B70E060E0AC
S11323F02AF09A95660F771F881FDAF7880F96954B
S1132400879597F908959F3F31F0915020F487956F
S113241077956795B795880F911D9695879597F948
S1132420089591505040660F771F881FD2F7089582
S11324309F938F937F936F93FF93EF939B01AC01D3
S1132440F9DEEF91FF910BDE2F913F914F915F9158
S1132450F1CEFC0188279927E89421912032E9F3F1
S1132460293010F02E30C8F32B3239F02D3231F4EC
S1132470689403C00BD0820F911D219120532A3000
S1132480C8F31EF4909581959F4F08957AE0979F25
S1132490902D879F802D910D11240895F894FFCFDE
S11324A0B400814D36444D74D1430000C84100004E
S11324B0C841000020420000204252B8B641F8A6AC
S10F24C00A86BFA60A863F560E4940005B
S9030144B7
