S01C000044656C74615F52686F5F636F6E74726F6C6C65722E73726563F3
S11300007FC000009CC000009AC0000098C000009F
S113001096C0000094C0000092C0000090C0000090
S11300208EC000008CC000008AC0000088C00000A0
S113003086C0000084C0000082C0000080C00000B0
S11300407EC000007CC000007AC0000078C00000C0
S113005076C0000074C0000072C0000070C00000D0
S11300606EC000006CC000000C945E0F68C00000FD
S1130070BFC7000064C0000062C0000060C0000090
S113008064C100005CC000005AC00000084AD73BAD
S11300903BCE016E84BCBFFDC12F3D6C74319ABD53
S11300A056833DDA3D00C77F11BED9E4BB4C3E9177
S11300B06BAAAABE000000803F072C7AA5BA6CC5C3
S11300C090DA3B9365FC8BBC53F810FD3C5692834D
S11300D04DBD879D3AB63DCBC9BF5BBE73DA0FC930
S11300E03F05A84CCDB2D44EB93836A9020C50B94C
S11300F0918688083CA6AAAA2ABE000000803F0078
S113010011241FBECFEFD0E4DEBFCDBF11E0A0E0CD
S1130110B1E0E4EDF9E200E00BBF02C007900D92FC
S1130120AA36B107D9F722E0AAE6B1E001C01D92D0
S1130130A732B207E1F70E94EA0C0C94E81460CFEE
S1130140FC010FB6F894609123027091240280910F
S11301502502909126020FBE309721F060837183AF
S11301608283938308956F927F928F929F92AF922E
S1130170CF92EF92FF920F931F93CF93DF93ACE74D
S1130180B0E01C92EAE7F0E010829BE7692E712C44
S1130190E30118823EE7832E912CE401188230811A
S11301A0D0E88D9FC0011124832B8083E4016883F0
S11301B08C91D0E44D9FA0011124482B4C938C9139
S11301C050E2059F80011124082B0C938081282B79
S11301D02083808190E2E99E70011124E82AE08264
S11301E0D3018C91C82ACC928081AA0CAA0CAA0CA7
S11301F0A82AA082DF91CF911F910F91FF90EF90D9
S1130200CF90AF909F908F907F906F900895909132
S11302107C00907E90937C0090917C00892B80934D
S11302207C0080917A00806480937A0080917A00C7
S113023084FFFCCF80917A00806180937A00809162
S113024078002091790090E0922B0895AF92CF929C
S1130250EF920F93E1E6F0E080E88083108211B81A
S113026012B88FEF84B915B880EF87B918B88BEF3F
S11302708AB91BB891EA94BD82E085BD16BC17BC4F
S113028018BC909380008093810010928500109296
S113029084001092870010928600109289001092B8
S11302A0880010928B0010928A001092B6009093EE
S11302B0B0008093B1001092B2001092B30010927B
S11302C0B400109290009DE09093910010929500DC
S11302D01092940010929700109296001092990038
S11302E093E69093980010929B0010929A001092BB
S11302F06E0010926F001092700080937100A12C18
S1130300C12CE12C00E027E041E069E081E02BDF33
S113031060E070E088EA91E40E94A11261507109E2
S11303207093CD006093CC00E9ECF0E088E1808329
S1130330AAECB0E08C9186608C9380818068808385
S11303400F91EF90CF90AF9008951F920F920FB638
S11303500F9211248F939F93AF93BF938091B60113
S11303608F5F8093B6018091D4018F5F8093D40115
S11303708091A5019091A601A091A701B091A80137
S11303800196A11DB11D8093A5019093A601A09390
S1130390A701B093A801BF91AF919F918F910F9046
S11303A00FBE0F901F9018952F923F924F925F921D
S11303B06F927F928F929F92AF92BF92CF92DF9271
S11303C0EF92FF920F931F93CF93DF93CDB7DEB7D6
S11303D0C255D1090FB6F894DEBF0FBECDBF2D961E
S11303E01FAF0EAF2D978CE0EDE5F1E0DE01DD9659
S11303F001900D928A95E1F780E198EDA0E3B2E4D3
S11304008DA39EA3AFA3B8A786E896EBA3E8B2ECAE
S113041089A79AA7ABA7BCA74AEA51E76EE772EC93
S11304204DA75EA76FA778AB89AB9AABABABBCAB60
S113043083E393E3ABE1B1EC8DAB9EABAFABB8AF71
S113044081EE9AE3AFE1B3EC89AF9AAFABAFBCAF47
S1130450CE01CD962F969FAF8EAF2F978E010F5F53
S11304601F4FDE0195962B96BFAFAEAF2B9786E854
S113047096EBA3E8B2EC63968CAF9DAFAEAFBFAF83
S1130480639780E1482E88ED582E80E3682E82E43D
S1130490782E212C312C2F96AEADBFAD2F978D9099
S11304A09D90AD90BD902F96BFAFAEAF2F97C50175
S11304B0B4010E945E136B017C01C501B4010E946A
S11304C0CF104B015C01A3019201C701B6010E9448
S11304D0DB122B013C0163962CAD3DAD4EAD5FADFF
S11304E06397C501B4010E94DB129B01AC01C301F7
S11304F0B2010E94041020E030E048E951E40E9477
S1130500D210F801608371838283938320E030E00A
S113051048E951E4C501B4010E94D210D8011496EF
S11305206D937D938D939C93179720E030E048E979
S113053051E4C701B6010E94D210F80160877187A7
S113054082879387FFEF2F1A3F0A045F1F4F2B9672
S11305508EAD9FAD2B9708962B969FAF8EAF2B97A2
S113056093E029163104B1F02B96AEADBFAD2B97B5
S11305704D905D906D907C90139714968D919D9104
S11305800D90BC91A02D63968CAF9DAFAEAFBFAF65
S1130590639781CF8D859E85AF85B8892D96EEAD05
S11305A0FFAD2D9780839183A283B38389899A8930
S11305B0AB89BC8984839583A683B7838D899E89FF
S11305C0AF89B88D80879187A287B387898D9A8DEB
S11305D0AB8DBC8D84879587A687B7878D8D9E8DBF
S11305E0AF8DB8A1808B918BA28BB38B89A19AA17B
S11305F0ABA1BCA1848B958BA68BB78B89819A8187
S1130600AB81BC81808F918FA28FB38F8D819E81AE
S1130610AF81B885848F958FA68FB78F89859A858A
S1130620AB85BC8580A391A3A2A3B3A3CE5ADF4F0D
S11306300FB6F894DEBF0FBECDBFDF91CF911F91EF
S11306400F91FF90EF90DF90CF90BF90AF909F906D
S11306508F907F906F905F904F903F902F90089570
S11306602F923F924F925F927F928F929F92AF927E
S1130670BF92CF92DF92EF92FF920F931F93CF938B
S1130680DF93CDB7DEB768970FB6F894DEBF0FBE21
S1130690CDBF29873A874B875C876D877E878F8795
S11306A0988B4701580189859A85AB85BC85898BD0
S11306B09A8BAB8BBC8B2D843E844F845888C801A5
S11306C0B7010E94CF106B017C01C501B4010E94E7
S11306D05E134B015C0129893A894B895C89C70106
S11306E0B6010E94DB126D8B7E8B8F8B988FA201DB
S11306F09101C501B4010E94DB129B01AC016D891B
S11307007E898F89988D0E940410762EAB01BC01DE
S113071049835A836B837C8329893A894B895C8911
S1130720C501B4010E94DB124B015C01A2019101DD
S1130730C701B6010E94DB129B01AC01C501B401E3
S11307400E940510E62F462F572FBC014D835E8370
S11307506F837887272D3A814B815C816E2F7E8150
S11307608F81988568960FB6F894DEBF0FBECDBF13
S1130770DF91CF911F910F91FF90EF90DF90CF9079
S1130780BF90AF909F908F907F905F904F903F90DD
S11307902F9008952F923F924F925F926F927F9283
S11307A08F929F92AF92BF92CF92DF92EF92FF927D
S11307B00F931F93CF93DF934C011B015B0181E0E7
S11307C0A81AB1081A141B047CF58B010150104CB3
S11307D0000F111F000F111F080D191DE401C9900E
S11307E0D990E990F990488059806A807B80A30170
S11307F09201C701B6010E949612181654F4FE0124
S113080034974082518262827382C882D982EA829A
S1130810FB82C017D10719F781E0A81AB108045068
S11308201109A114B104D1F620FE22C037FC3EC048
S113083035942794F101EE0FFF1FEE0FFF1FE80D13
S1130840F91D6081718182819381DF91CF911F9124
S11308500F91FF90EF90DF90CF90BF90AF909F905B
S11308608F907F906F905F904F903F902F9008955E
S113087037FC20C0F101F595E795E150F04CEE0FFF
S1130880FF1FEE0FFF1FE80DF91D2081318142810A
S1130890538164817581868197810E94051020E0CF
S11308A030E040E05FE30E94DB12CFCF8FEF281AE5
S11308B0380ABECF8FEF281A380ADCCFEF92FF92A6
S11308C00F931F93CF93DF93CDB7DEB7A8970FB6DF
S11308D0F894DEBF0FBECDBF8E010F5F1F4F7E01A8
S11308E085E1E80EF11C83E092DCBC01990F880BD2
S11308F0990B0E946D11F801619371938193919307
S11309008F0180E084DCBC01990F880B990B0E9455
S11309106D11F801608B718B828B938B87EA91E662
S11309200197F1F700C000000E151F05E1F665E020
S113093070E0CE0101962EDF609340017093410177
S1130940809342019093430165E070E0C80122DF87
S1130950609344017093450180934601909347014D
S1130960A8960FB6F894DEBF0FBECDBFDF91CF912E
S11309701F910F91FF90EF9008953F924F925F92D5
S11309806F927F928F929F92AF92BF92CF92DF929B
S1130990EF92FF920F931F93CF93DF93CDB7DEB700
S11309A0A4970FB6F894DEBF0FBECDBF87DF00E477
S11309B011E020E030E040E85AE3D8016D917D91E8
S11309C08D919C910E94DB1225EA3EE448EB50E4B1
S11309D00E94DB1220E53DE847EA5FE30E94041031
S11309E04B015C0120E030E040E85AE3F801648107
S11309F07581868197810E94DB1225EA3EE448EBEB
S1130A0050E40E94DB1220E53DE847EA5FE30E94E0
S1130A1004102B013C0108E411E0D801CD90DD90D5
S1130A20ED90FC90C501B4010E94CF109B01AC0174
S1130A30C701B6010E94DB1220E030E0A9010E9448
S1130A4005106D8F7E8F8F8F98A3C501B4010E940E
S1130A505E139B01AC01C701B6010E94DB1220E0CA
S1130A6030E0A9010E94051069A37AA38BA39CA37B
S1130A70F801C480D580E680F780C301B2010E94EA
S1130A80CF104B015C01C301B2010E945E132B0124
S1130A903C01A5019401C701B6010E94DB1222E5C5
S1130AA038EB46EB51E40E9405102D8D3E8D4F8DA1
S1130AB058A10E940410698B7A8B8B8B9C8BA301A9
S1130AC09201C701B6010E94DB1220E030E0A901C7
S1130AD00E94051029A13AA14BA15CA10E94041017
S1130AE06D8B7E8B8F8B988F29893A894B895C8992
S1130AF0CA01B9010E94DB126B017C012D893E8978
S1130B004F89588DCA01B9010E94DB129B01AC01C7
S1130B10C701B6010E9405100E9468134B015C01D5
S1130B20D8011896CD90DD90ED90FC901B971C9603
S1130B308D919D910D90BC91A02D898F9A8FAB8F33
S1130B40BC8FA7019601C701B6010E94DB122B01DD
S1130B503C01A5019401C501B4010E94DB129B0173
S1130B60AC01C301B2010E9405102B013C01298D87
S1130B703A8D4B8D5C8DCA01B9010E94DB129B0139
S1130B80AC01C301B2010E9404102B013C01A70176
S1130B909601C701B6010E940510A50194010E94A7
S1130BA0DB129B01AC01C301B2010E94D2100E946E
S1130BB0F60F2B013C01A701960169897A898B897B
S1130BC09C890E94DB12A50194010E94D210362E4A
S1130BD0AB01BC0149875A876B877C87A7019601C3
S1130BE06D897E898F89988D0E94DB12A5019401FD
S1130BF00E94D210E62FAB01BC014D875E876F8740
S1130C00788B83017201232D3A854B855C856E2F89
S1130C107E858F85988924DD29833A834B835C8381
S1130C206D837E838F83988705E911E02D8D3E8D3A
S1130C304F8D58A169817A818B819C810E94051016
S1130C40F801608371838283938329A13AA14BA124
S1130C505CA16D817E818F8198850E940510D801E9
S1130C6014966D937D938D939C931797A4960FB6CA
S1130C70F894DEBF0FBECDBFDF91CF911F910F91CE
S1130C80FF90EF90DF90CF90BF90AF909F908F90A8
S1130C907F906F905F904F903F9008953F924F9256
S1130CA05F926F927F928F929F92AF92BF92CF92F8
S1130CB0DF92EF92FF920F931F93CF93DF93CDB701
S1130CC0DEB7A4970FB6F894DEBF0FBECDBFF6DD36
S1130CD000E411E020E030E040E85AE3D8016D91EF
S1130CE07D918D919C910E94DB1225EA3EE448EBB4
S1130CF050E40E94DB1220E53DE847EA5FE30E94EE
S1130D0004104B015C0120E030E040E85AE3F801B4
S1130D1064817581868197810E94DB1225EA3EE415
S1130D2048EB50E40E94DB1220E53DE847EA5FE32C
S1130D300E9404102B013C0108E411E0D801CD907D
S1130D40DD90ED90FC90C501B4010E94CF109B0191
S1130D50AC01C701B6010E94DB1220E030E0A9011A
S1130D600E9405106D8F7E8F8F8F98A3C501B401EB
S1130D700E945E139B01AC01C701B6010E94DB1205
S1130D8020E030E0A9010E94051069A37AA38BA397
S1130D909CA3F801C480D580E680F780C301B2012A
S1130DA00E94CF104B015C01C301B2010E945E138B
S1130DB02B013C01A5019401C701B6010E94DB127D
S1130DC022E538EB46EB51E40E9405102D8D3E8D53
S1130DD04F8D58A10E940410698B7A8B8B8B9C8B4E
S1130DE0A3019201C701B6010E94DB1220E030E0AA
S1130DF0A9010E94051029A13AA14BA15CA10E945E
S1130E0004106D8B7E8B8F8B988F29893A894B893F
S1130E105C89CA01B9010E94DB126B017C012D8936
S1130E203E894F89588DCA01B9010E94DB129B018A
S1130E30AC01C701B6010E9405100E9468134B0162
S1130E405C01D8011896CD90DD90ED90FC901B9735
S1130E501C968D919D910D90BC91A02D898F9A8F98
S1130E60AB8FBC8FA7019601C701B6010E94DB12AC
S1130E702B013C01A5019401C501B4010E94DB12C0
S1130E809B01AC01C301B2010E9405102B013C017E
S1130E90298D3A8D4B8D5C8DCA01B9010E94DB12FC
S1130EA09B01AC01C301B2010E9404102B013C015F
S1130EB0A7019601C701B6010E940510A50194017E
S1130EC00E94DB129B01AC01C301B2010E94D2104B
S1130ED00E94F60F2B013C01A701960169897A89CA
S1130EE08B899C890E94DB12A50194010E94D21077
S1130EF0362EAB01BC0149875A876B877C87A701D3
S1130F0096016D897E898F89988D0E94DB12A501D7
S1130F1094010E94D210E62FAB01BC014D875E877D
S1130F206F87788B83017201232D3A854B855C850D
S1130F306E2F7E858F85988993DB29833A834B8333
S1130F405C836D837E838F8398872D813E814F815F
S1130F50588569A17AA18BA19CA10E9405104B011F
S1130F605C010DE911E029813A814B815C816D8D31
S1130F707E8D8F8D98A10E94051025E9E22E21E037
S1130F80F22EF70120813181428153810E940410A5
S1130F90DC01CB01B058F80180839183A283B38331
S1130FA0D70114962D913D914D915C911797C501F0
S1130FB0B4010E940410F8016483758386839783C7
S1130FC0A4960FB6F894DEBF0FBECDBFDF91CF91CC
S1130FD01F910F91FF90EF90DF90CF90BF90AF9053
S1130FE09F908F907F906F905F904F903F90089567
S1130FF01F920F920FB60F9211240BB60F922F93DC
S11310003F934F935F938F939F93EF93FF938091BD
S1131010C80087FFFCCF8091CE00853581F0479AC8
S1131020FF91EF919F918F915F914F913F912F91FC
S11310300F900BBE0F900FBE0F901F9018958091CC
S1131040C80087FFFCCF8091CE00982F9F70953009
S113105011F09111E4CF4798807F803709F4ECC0F8
S1131060C0F4803209F4DAC008F072C0882309F4AD
S113107093C08031A1F6E7EBF1E091918091C80033
S113108085FFFCCF9093CE0081E0ED3BF807A9F7F4
S1131090C6CF803C09F108F04EC0803809F499C0ED
S11310A0803B09F0BCCFEDEBF1E043EC51E08091E3
S11310B0C80087FFFCCF9091CE008091C80087FFC5
S11310C0FCCF2091CE00892F90E0922B81939193B5
S11310D04E175F0761F7A3CF8091C80087FFFCCF4D
S11310E08091CE00809388008091C80087FFFCCF58
S11310F08091CE0080938A008091C80087FFFCCF46
S11311008091CE0087BD8091C80087FFFCCF80917D
S1131110CE0088BD8091C80087FFFCCF8091CE00AF
S11311208093B3008091C80087FFFCCF8091CE00EC
S11311308093B40074CF803D09F464C0803E09F00C
S11311406ECF82E090E0909393018093920167CFF9
S1131150803389F1803509F062CF80913E0190910E
S11311603F0190938D0180938C0180917001909147
S1131170710190938F0180938E01ECE8F1E022E9F4
S113118031E091918091C80085FFFCCF9093CE000F
S11311902E173F07B1F743CFE1E1F2E027E132E058
S11311A091918091C80085FFFCCF9093CE002E17BB
S11311B03F07B1F734CFE9ECF1E091918091C80099
S11311C085FFFCCF9093CE0081E0EF3CF807A9F7B0
S11311D026CFE1E1F2E047E152E08091C80087FFC9
S11311E0FCCF9091CE008091C80087FFFCCF209166
S11311F0CE00892F90E0922B819391934E175F0735
S113120061F70DCF81E090E020919201309193013C
S1131210232B09F498CF80E090E095CFE3ECF1E044
S113122091918091C80085FFFCCF9093CE0081E01E
S1131230E93CF807A9F7F3CE81E080939401EFCE5F
S113124003D6811109C08091AA0180FF06C081FDE7
S113125007C0FAD5882319F00895F9D5FFC5FEC54E
S113126064E08FEC91E00AD61092D3018FEC91E008
S11312700E94A41490933F0180933E0181E090E08A
S11312809093710180937001E4CF2F923F924F921B
S11312905F926F927F928F929F92AF92BF92CF9202
S11312A0DF92EF92FF920F931F93CF93DF93CDB70B
S11312B0DEB764970FB6F894DEBF0FBECDBF1982B8
S11312C01A821B821C821D821E821F821886198626
S11312D01A861B861C862091A1013091A20140919F
S11312E0A3015091A40160919D0170919E01809190
S11312F09F019091A00105ED11E056D8CE01019611
S11313001C018AE1882E81E0982EFE013D96FC8B1B
S1131310EB8B7101412C512C32019CE8A92E91E0F8
S1131320B92E00E811E06401F60161917191819197
S113133091916F01F80121913191419151918F0166
S11313400E94DB129B01AC01C301B2015ED62B01EA
S11313503C01A016B10641F7F701619371938193A3
S113136091937F01FCE08F0E911C8B899C89E81678
S1131370F90631F0F7014080518062807380D1CF4B
S113138020E030E040EE5FE36D817E818F819885BF
S11313900E94DB126D837E838F8398878E010D5E9E
S11313A01F4FF10161917191819191911F010E94EF
S11313B03E1360D76F3F710511F00CF05DC06130D2
S11313C0FFEF7F070CF45AC077FD5DC0F701108270
S11313D06183F2E0EF0EF11C0E151F0511F72D8548
S11313E0822F90E09093FA018093F9018E8590E02A
S11313F09093FC018093FB018F8590E09093FE0114
S11314008093FD01888990E0909300028093FF010E
S1131410898990E090930202809301028A8990E086
S11314209093040280930302209388008E85809316
S11314308A008F8587BD888988BD89898093B30098
S11314408A898093B40064960FB6F894DEBF0FBE09
S1131450CDBFDF91CF911F910F91FF90EF90DF905F
S1131460CF90BF90AF909F908F907F906F905F9040
S11314704F903F902F9008956FEFA8CF6FEFF70133
S113148060831182A6CF6195FACFCF92DF92EF925B
S1131490FF920F931F93CF93DF93CDB7DEB760977F
S11314A00FB6F894DEBF0FBECDBF80E8C82E81E032
S11314B0D82EF60184819581A681B78189879A8780
S11314C0AB87BC8780859185A285B3858D879E87F0
S11314D0AF87B88B0E949614BC01990F880B990BA7
S11314E0FCD620E03EEF4FEF56E45CD620E030E03F
S11314F040E05FE389D52BED3FE049E450E40E94EE
S1131500DB1220E030E040E451E44CD67B018C0156
S113151029853A854B855C856D857E858F8598897F
S11315209FD829833A834B835C836D837E838F8327
S1131530988789819A81AB81BC81F60184839583E4
S1131540A683B7838D819E81AF81B885808791877B
S1131550A287B38760960FB6F894DEBF0FBECDBFE7
S1131560DF91CF911F910F91FF90EF90DF90CF907B
S113157008954F925F926F927F928F929F92AF9253
S1131580BF92CF92DF92EF92FF92CF93DF93EC0161
S113159060913E0170913F01072E000C880B990B5E
S11315A09CD69B01AC016C897D898E899F892CD541
S11315B06B017C012C853D854E855F8526D54B01CD
S11315C05C016C877D878E879F87288139814A815A
S11315D05B81C701B601EFD72B013C012C813D8112
S11315E04E815F81C501B401E6D79B01AC01C30103
S11315F0B2010BD54B015C01288939894A895B8981
S1131600C701B60101D5288539854A855B85D3D7BD
S11316109B01AC01C501B401F8D4C88AD98AEA8A0D
S1131620FB8A60938001709381018093820190937F
S11316308301DF91CF91FF90EF90DF90CF90BF9027
S1131640AF909F908F907F906F905F904F90089590
S11316504F925F926F927F928F929F92AF92BF92BE
S1131660CF92DF92EF92FF92CF93DF93CDB7DEB7A5
S11316702C970FB6F894DEBF0FBECDBF40909D01EE
S113168050909E0160909F017090A00177FA709431
S113169077F87094C090A101D090A201E090A301CA
S11316A0F090A401F7FAF094F7F8F094809178019F
S11316B090917901A0917A01B0917B0189839A83F9
S11316C0AB83BC8380907C0190907D01A0907E01CF
S11316D0B0907F019C01AD01C501B40109D56D83B2
S11316E07E838F839887A3019201C701B60100D539
S11316F069877A878B879C8720E030E040EC5FEB3A
S1131700C701B60148D587FD19C0A3019201C301E1
S1131710B20151D72B013C01A7019601C701B601C3
S11317204AD79B01AC01C301B2016FD4D1D720E0E9
S113173030E040E850E42FD587FF15C02C960FB653
S1131740F894DEBF0FBECDBFDF91CF91FF90EF9035
S1131750DF90CF90BF90AF909F908F907F906F90CD
S11317605F904F9008952AE037ED43E25CE369858A
S11317707A858B859C8548D42D813E814F815885FF
S113178043D46B017C0176D59B0177FDE9C0B90197
S1131790330F880B990BA1D52B013C012FE832ECB8
S11317A045EF5CE3F8D487FDC9CF80916E01909139
S11317B06F01019690936F0180936E0165E070E074
S11317C00E94EA13892B09F0B9CF29813A814B8110
S11317D05C81CA01B901EFD66D837E838F839887BC
S11317E0A5019401C501B401E6D69B01AC016D814C
S11317F07E818F81988509D46BD76D837E838F8397
S11318009887A3019201C701B601CCD420E030E04F
S1131810A9018CD62D813E814F81588587FDA5C0B5
S113182069817A818B819C81BDD469837A838B831E
S11318309C8360931201709313018093140190931D
S113184015012D813E814F815885C501B401AAD46B
S11318502B013C01609316017093170180931801CA
S113186090931901C0900A01D0900B01E0900C01F3
S1131870F0900D0180900E0190900F01A090100146
S1131880B090110129813A814B815C81C701B60175
S1131890BCD36B017C01A3019201C501B401B5D392
S11318A04B015C01A7019601C701B60184D62B0147
S11318B03C01A5019401C501B4017DD69B01AC0195
S11318C0C301B201A2D304D72B013C0160910801EA
S11318D070910901072E000C880B990BFED4A3010B
S11318E0920160D42B013C019B01AC01C701B601FC
S11318F062D66093840170938501809386019093EE
S11319008701A3019201C501B40155D660938801F2
S11319107093890180938A0190938B01B6DD809145
S1131920840190918501A0918601B09187018093F3
S1131930780190937901A0937A01B0937B0180910F
S1131940880190918901A0918A01B0918B018093C3
S11319507C0190937D01A0937E01B0937F01EECE34
S113196022273327261B370B12CF69817A818B817B
S11319709C8118D46B017C0160930A0170930B0164
S113198080930C0190930D012D813E814F815885E8
S1131990C501B40107D44B015C0160930E0170933F
S11319A00F01809310019093110180911201909185
S11319B01301A0911401B091150189839A83AB831B
S11319C0BC834090160150901701609018017090EC
S11319D0190158CF2F923F924F925F926F927F924C
S11319E08F929F92AF92BF92CF92DF92EF92FF922B
S11319F00F931F93CF93DF93CDB7DEB768970FB6DE
S1131A00F894DEBF0FBECDBF0E94260181E114D23F
S1131A10789424D2109295001092940080917100D1
S1131A20816080937100479A46980E94BD0480E0CB
S1131A3090E00E94A000CB017CD780E090E0A0EA77
S1131A40BFE389839A83AB83BC838DEC9CECACE4C9
S1131A50BDE38D839E83AF83B8878DEC9CECACE4AF
S1131A60BEE389879A87AB87BC871D861E861F863F
S1131A70188A198A1A8A1B8A1C8A80E090E0A4E3D7
S1131A80B3E48D8B9E8BAF8BB88F00E010E0412CBC
S1131A90512C80E8682E8FE3782E812C912C90E8CD
S1131AA0A92E9FEBB92E27E1C22E27EBD22E21EDD2
S1131AB0E22E28E3F22E22242394312C80919401E7
S1131AC0811120C0BDDBEAD88091920190919301ED
S1131AD08130910509F41CC18230910589F1892B6B
S1131AE069F788B190E4892788B9AFE7BAE126E0BD
S1131AF0A150B0402040E1F700C000008091940163
S1131B00882301F385E08093910080E090E068965B
S1131B100FB6F894DEBF0FBECDBFDF91CF911F91FA
S1131B200F91FF90EF90DF90CF90BF90AF909F9078
S1131B308F907F906F905F904F903F902F9008957B
S1131B40013223E012070CF06DC00F5F1F4F60914C
S1131B50080170910901072E000C880B990BBDD365
S1131B6060937C0170937D0180937E0190937F014B
S1131B70609388017093890180938A0190938B010B
S1131B80109278011092790110927A0110927B01DF
S1131B907CDB1092730110927201409212015092F8
S1131BA01301609214017092150180920A019092BF
S1131BB00B01A0920C01B0920D01C0920E01D092C3
S1131BC00F01E0921001F0921101C0921601D0921F
S1131BD01701E0921801F092190110927401109209
S1131BE07501109276011092770110926B01109298
S1131BF06A0110926D0110926C0180E090E0A4E300
S1131C00B3E48093040190930501A0930601B0937B
S1131C10070110926F0110926E01013293E01907CF
S1131C2009F093CF80913E0190913F01873A91054D
S1131C300CF473C080913E0190913F01823C910568
S1131C400CF06BC080913E0190913F018A3A91055E
S1131C5044F080913E0190913F018F3B91050CF43B
S1131C6080C080916C0190916D01892B09F0D7C0DF
S1131C70EFDCCE0101967DDC60913E0170913F0165
S1131C80072E000C880B990B28D3209174013091F6
S1131C9075014091760150917701B6D1EBD29B0149
S1131CA077FDC5C0B901330F880B990B16D324EF08
S1131CB03DEF44E55DE36FD287FF09C08091720177
S1131CC090917301019690937301809372016091D6
S1131CD03E0170913F01072E000C880B990BFDD239
S1131CE060937401709375018093760190937701EA
S1131CF0809172019091730188970CF05FC080917C
S1131D006A0190916B01019709F458C0BEDAE9CEDB
S1131D10CE0101962EDCB9DAD1CE30926D0120923B
S1131D206C01109284011092850110928601109228
S1131D308701109288011092890110928A011092F1
S1131D408B0180913E0190913F018A3A91050CF4F8
S1131D5066C080913E0190913F018F3B91050CF04C
S1131D605EC010926D0110926C011092800110926D
S1131D7081011092820110928301809178019091E7
S1131D807901A0917A01B0917B01809384019093B1
S1131D908501A0938601B093870180917C01909185
S1131DA07D01A0917E01B0917F0180938801909381
S1131DB08901A0938A01B0938B015ACF30926B01B1
S1131DC020926A0187ED93EAA0E3BFE38093A10127
S1131DD09093A201A093A301B093A40180939D01C9
S1131DE090939E01A0939F01B093A001109288014B
S1131DF01092890110928A0110928B011092840131
S1131E001092850110928601109287011092800130
S1131E1010928101109282011092830177CFCE013A
S1131E200196A7DB109273011092720150CF222702
S1131E303327261B370B36CF8093BA0084E0809378
S1131E40BC001092AB0108958091AB01089580917C
S1131E50AB018111FECF80915C0108958091AB01AB
S1131E608111FECF81E08093AA0188EF80935C0109
S1131E7085EC8093BC001092AB0108952091AB01D6
S1131E802111FECF2091AA0120FF15C0662371F015
S1131E90ADEAB1E0FC016150862F90E001968E0F0F
S1131EA09F1F2D912193E817F907D9F72091AA01D3
S1131EB02D7F2093AA01822F817008951F920F9283
S1131EC00FB60F9211240BB60F928F939F93EF933B
S1131ED0FF938091B900803909F46AC0F0F0883A20
S1131EE0E1F108F45AC0803CE1F1883C09F44DC0AA
S1131EF0883BE9F5E091A90181E08E0FF0E0809341
S1131F00A901E355FE4F80818093BB0085EC80934B
S1131F10BC0081E08093AB0115C0803709F442C056
S1131F2080F5882391F1803611F58091AA018260B1
S1131F308093AA011092A90185EC8093BC0081E0F2
S1131F408093AB01FF91EF919F918F910F900BBE06
S1131F500F900FBE0F901F901895E0E0F0E081E025
S1131F60CECF9091A9018091AC019817C9F18091CD
S1131F70B90080935C0185EC8093BC001092AB01A6
S1131F80E1CF8038A9F0883891F78091B900809327
S1131F905C0180E98093BC00D5CF8839B1F3803AE5
S1131FA051F3E5CF8091AA0184608093AA01BDCF4B
S1131FB0E091A90181E08E0F8093A9018091BB007B
S1131FC0F0E0E355FE4F80838091AA018160809305
S1131FD0AA0185EC8093BC0081E08093AB01B2CF71
S1131FE08091AA0181608093AA01C5CF9F939F77B6
S1131FF0AFD10F9000203AF49058A2EA2AED3FE0C6
S113200049E450E413D047C25058BB27AA270ED046
S113201042C20BD230F010D220F031F49F3F11F4C1
S11320201EF4DBC10EF4E095E7FBD1C1E92F55D2D4
S113203080F3BA17620773078407950718F071F4E1
S11320409EF56DC20EF4E0950B2EBA2FA02D0B0158
S1132050B90190010C01CA01A0011124FF27591BE9
S113206099F0593F50F4503E68F11A16F040A22FEF
S1132070232F342F4427585FF3CF46953795279560
S1132080A795F0405395C9F77EF41F16BA0B620B5F
S1132090730B840BBAF09150A1F0FF0FBB1F661FA6
S11320A0771F881FC2F70EC0BA0F621F731F841FE9
S11320B048F4879577956795B795F7959E3F08F00F
S11320C0B3CF9395880F08F09927EE0F97958795CE
S11320D00895ABD158F080E891E009F49EEFACD1BB
S11320E028F040E851E059F45EEF09C076C117C208
S11320F0E92FE078F2D168F3092E052AC1F32617F7
S113210037074807590738F00E2E07F8E02569F01D
S1132110E025E0640AC0EF6307F8009407FADB01E6
S1132120B9019D01DC01CA01AD01EF934AD0B3D1DD
S11321300AD05F91552331F02BED3FE049E450FD87
S113214049EC63CF0895DF93DD27B92FBF7740E8CB
S11321505FE31616170648075B0710F4D92FEAD178
S11321609F938F937F936F93F1D2ECE8F0E038D193
S113217092D12F913F914F915F9129D2DD2349F064
S11321809058A2EA2AED3FE049EC5FE3D0785D275E
S11321904DDFDF9180C1F7D008F481E0089554D178
S11321A0E3958AC10CD077C147D140F03ED130F0DD
S11321B021F45F3F19F00BC15111B2C10EC18DD191
S11321C098F39923C9F35523B1F3951B550BBB27FA
S11321D0AA2762177307840738F09F5F5F4F220FA7
S11321E0331F441FAA1FA9F333D00E2E3AF0E0E8A0
S11321F030D091505040E695001CCAF729D0FE2FEC
S113220027D0660F771F881FBB1F2617370748077D
S1132210AB07B0E809F0BB0B802DBF01FF27935833
S11322205F4F2AF09E3F510568F0D1C079C15F3FEE
S1132230ECF3983EDCF3869577956795B795F7951B
S11322409F5FC9F7880F911D9695879597F9089513
S1132250E1E0660F771F881FBB1F621773078407AF
S1132260BA0720F0621B730B840BBA0BEE1F88F7BE
S1132270E095089504D06894B11152C1089535D100
S113228088F09F5790F0B92F9927B751A0F0D1F05B
S1132290660F771F881F991F1AF0BA95C9F712C0E5
S11322A0B13081F03CD1B1E0089539C1672F782F66
S11322B08827B85F39F0B93FCCF386957795679551
S11322C0B395D9F73EF490958095709561957F4FBD
S11322D08F4F9F4F0895E89409C097FB3EF4909563
S11322E08095709561957F4F8F4F9F4F9923A9F0EB
S11322F0F92F96E9BB279395F6958795779567957A
S1132300B795F111F8CFFAF4BB0F11F460FF1BC0BD
S11323106F5F7F4F8F4F9F4F16C0882311F096E950
S113232011C0772321F09EE8872F762F05C06623FE
S113233071F096E8862F70E060E02AF09A95660FB7
S1132340771F881FDAF7880F9695879597F9089570
S1132350DF93CF931F930F938B01EC01E9EBF0E034
S11323603FD099D09801AE018B01EC0160E070E0A0
S113237080E89FE349DEACD19801AE010F911F9133
S1132380CF91DF9124C1990F0008550FAA0BE0E803
S1132390FEEF16161706E807F907C0F01216130623
S11323A0E407F50798F0621B730B840B950B39F463
S11323B00A2661F0232B242B252B21F408950A26C9
S11323C009F4A140A6958FEF811D811D089597F909
S11323D09F6780E870E060E008959FEF80EC0895C7
S11323E0DF93CF931F930F93FF92EF92DF927B01C2
S11323F08C01689405C0DA2EEF01E9D0FE01E8945F
S1132400A5912591359145915591AEF3EF010EDEDD
S1132410FE019701A801DA9479F7DF90EF90FF901D
S11324200F911F91CF91DF91089500240A941616FD
S1132430170618060906089500240A9412161306AE
S1132440140605060895C9CF50D0E8F3E894E0E0F7
S1132450BB279F57F0F02AED3FE049EC06C0EE0F92
S1132460BB0F661F771F881F28F0B23A62077307F5
S1132470840728F0B25A620B730B840BE3959A9588
S113248072F7803830F49A95BB0F661F771F881F48
S1132490D2F790487BC1092E0394000C11F48823D1
S11324A052F0BB0F40F4BF2B11F460FF04C06F5F08
S11324B07F4F8F4F9F4F0895EF93E0FF06C0A2EA2E
S11324C02AED3FE049EC5FEBB1DDE5DF0F900394CB
S11324D001FC9058E1EEF0E06CC157FD9058440FB8
S11324E0551F59F05F3F71F04795880F97FB991F6F
S11324F061F09F3F79F0879508951216130614062C
S1132500551FF2CF4695F1DF08C0161617061806B8
S1132510991FF1CF86957105610508940895E89493
S1132520BB2766277727CB0197F908952CDF08F49A
S11325308FEF08959B01AC0160E070E080E89FE3B9
S113254031CED3DFA8F19E57A8F1985160F039F14C
S1132550983070F5092E9927660F771F881F991FE9
S11325600A94D1F71CC0BB27993F4CF4B111B1E0D8
S1132570B62B672F782F8827985FB1F708C0869508
S113258077956795B79508F4B1609395C1F7BB0F3C
S113259030F411F460FF03C06F5F7F4F8F4F3EF440
S11325A090958095709561957F4F8F4F9F4F0895BB
S11325B06894B6CFB4CF0BD06ECF37DF28F03CDFB2
S11325C018F0952309F003CF08CF1124A9CF85DF94
S11325D0A0F3959FD1F3950F50E0551F629FF00132
S11325E0729FBB27F00DB11D639FAA27F00DB11D8B
S11325F0AA1F649F6627B00DA11D661F829F222714
S1132600B00DA11D621F739FB00DA11D621F839F9A
S1132610A00D611D221F749F3327A00D611D231F70
S1132620849F600D211D822F762F6A2F11249F57BE
S113263050408AF0E1F088234AF0EE0FFF1FBB1FE1
S1132640661F771F881F91505040A9F79E3F510580
S113265070F0BDCE65CF5F3FECF3983EDCF386951A
S113266077956795B795F795E7959F5FC1F7FE2B2B
S1132670880F911D9695879597F9089536DFE0F0B8
S11326809E37D8F09639B8F49E3848F4672F782FDF
S11326908827985FF9CF86957795679593959539AF
S11326A0D0F3B62FB1706B0F711D811D20F4879587
S11326B07795679593954DC067C032CF9F93C4DEDD
S11326C00F9007FCEE5FF8CE11F40EF486CE5CC0DA
S11326D00CDFD0F39923D9F3CEF39F57550B87FF23
S11326E061D00024A0E640EA900180585695979561
S11326F028F4805C660F771F881F20F026173707A1
S1132700480730F4621B730B840B202931294A2BB0
S1132710A69517940794202531254A2758F7660F64
S1132720771F881F20F026173707480730F4620BFD
S1132730730B840B200D311D411DA09581F7B90148
S1132740842F9158880F9695879508959B01AC0125
S113275032CF882371F4772321F09850872B762F7A
S113276007C0662311F499270DC09051862B70E0A1
S113277060E02AF09A95660F771F881FDAF7880FB2
S11327809695879597F908959F3F31F0915020F4DD
S1132790879577956795B795880F911D9695879539
S11327A097F9089591505040660F771F881FD2F70C
S11327B008959F938F937F936F93FF93EF939B0160
S11327C0AC01F9DEEF91FF910BDE2F913F914F9118
S11327D05F91F1CE97FB072E16F4009406D077FD97
S11327E008D027D007FC05D03EF4909581959F4FE3
S11327F00895709561957F4F0895052E97FB16F403
S113280000940FD057FD05D028D007FC02D046F421
S113281008C050954095309521953F4F4F4F5F4FDD
S1132820089590958095709561957F4F8F4F9F4F38
S11328300895AA1BBB1B51E107C0AA1FBB1FA61703
S1132840B70710F0A61BB70B881F991F5A95A9F755
S113285080959095BC01CD010895A1E21A2EAA1B82
S1132860BB1BFD010DC0AA1FBB1FEE1FFF1FA2173C
S1132870B307E407F50720F0A21BB30BE40BF50B39
S1132880661F771F881F991F1A9469F760957095C2
S1132890809590959B01AC01BD01CF0108958F9265
S11328A09F92AF92BF92CF92DF92EF92FF92CF931B
S11328B0DF93EC01688179818A819B8161157105BF
S11328C08105910521F464E279ED8BE597E02DE132
S11328D033EF41E050E091DF49015A019B01AC0123
S11328E0A7EAB1E456D06B017C01ACEEB4EFA501CC
S11328F094015BD0DC01CB018C0D9D1DAE1DBF1D71
S1132900B7FF03C00197A109B04888839983AA83BC
S1132910BB839F77DF91CF91FF90EF90DF90CF90B3
S1132920BF90AF909F908F900895B9CF80E091E0D1
S1132930B6CFA0E0B0E08093000190930101A09392
S11329400201B09303010895FC0188279927E894B4
S113295021912032E9F3293010F02E30C8F32B32C4
S113296039F02D3231F4689403C00BD0820F911DDD
S1132970219120532A30C8F31EF4909581959F4FDE
S113298008957AE0979F902D879F802D910D1124B3
S113299008950FD0A59F900DB49F900DA49F800D16
S11329A0911D11240895B7FFF4CFF3DF821B930B1D
S11329B00895A29FB001B39FC001A39F700D811D14
S11329C01124911DB29F700D811D1124911D089534
S10729D0F894FFCFA5
S11329D401000000000034435A0A000080BF17B706
S11329E4D1380000803F17B7D1383FC67CBF197374
S11329F4D73C11C73A3D9B55FBC0197357BD000022
S1132A0400003FC67CBF1973D73C11C73ABDB4005C
S1132A14814D36444D74D1430000C8410000C8417F
S1132A24000020420000204252B8B641F8A60A86AB
S10D2A34BFA60A863F560E49400073
S903019467
