S01C000044656C74615F52686F5F636F6E74726F6C6C65722E73726563F3
S11300007FC000009CC000009AC0000098C000009F
S113001096C0000094C0000092C0000090C0000090
S11300208EC000008CC000008AC0000088C00000A0
S113003086C0000084C0000082C0000080C00000B0
S11300407EC000007CC000007AC0000078C00000C0
S113005076C0000074C0000072C0000070C00000D0
S11300606EC000006CC000000C94A50D68C00000B8
S1130070EAC1000064C0000062C0000060C000006B
S113008051C100005CC000005AC00000084AD73BC0
S11300903BCE016E84BCBFFDC12F3D6C74319ABD53
S11300A056833DDA3D00C77F11BED9E4BB4C3E9177
S11300B06BAAAABE000000803F072C7AA5BA6CC5C3
S11300C090DA3B9365FC8BBC53F810FD3C5692834D
S11300D04DBD879D3AB63DCBC9BF5BBE73DA0FC930
S11300E03F05A84CCDB2D44EB93836A9020C50B94C
S11300F0918688083CA6AAAA2ABE000000803F0078
S113010011241FBECFEFD0E4DEBFCDBF11E0A0E0CD
S1130110B1E0E6E6F4E200E00BBF02C007900D9206
S1130120AA32B107D9F721E0AAE2B1E001C01D92D9
S1130130AF3CB207E1F70E947D0C0C94311260CF02
S11301406F927F928F929F92AF92CF92EF92FF9293
S11301500F931F93CF93DF93ACE7B0E01C92EAE7D1
S1130160F0E010829BE7692E712CE30118823EE7D0
S1130170832E912CE40118823081D0E88D9FC00138
S11301801124832B8083E40168838C91D0E44D9FF8
S1130190A0011124482B4C938C9150E2059F8001BF
S11301A01124082B0C938081282B2083808190E2DA
S11301B0E99E70011124E82AE082D3018C91C82AB7
S11301C0CC928081AA0CAA0CAA0CA82AA082DF9146
S11301D0CF911F910F91FF90EF90CF90AF909F9090
S11301E08F907F906F90089590917C00907E909373
S11301F07C0090917C00892B80937C0080917A0014
S1130200806480937A0080917A0084FFFCCF80918F
S11302107A00806180937A0080917800209179003F
S113022090E0922B0895AF92CF92EF920F93E1E674
S1130230F0E080E88083108211B812B88FEF84B99F
S113024015B880EF87B918B88BEF8AB91BB891EA53
S113025094BD82E085BD16BC17BC18BC9093800089
S11302608093810010928500109284001092870080
S113027010928600109289001092880010928B00D0
S113028010928A001092B6009093B0008093B1004F
S11302901092B2001092B3001092B4001092900029
S11302A09DE090939100109295001092940010920A
S11302B09700109296001092990093E690939800FC
S11302C010929B0010929A0010926E0010926F0090
S11302D01092700080937100A12CC12CE12C00E0DD
S11302E027E041E069E081E02BDF60E070E088EA2C
S11302F091E40E94E810615071097093CD006093FD
S1130300CC00E9ECF0E088E18083AAECB0E08C91C9
S113031086608C938081806880830F91EF90CF906A
S1130320AF9008951F920F920FB60F9211248F93DE
S11303309F93AF93BF93809177018F5F80937701F1
S1130340809176018F5F8093760180917201909104
S11303507301A0917401B09175010196A11DB11DA5
S11303608093720190937301A0937401B09375010B
S1130370BF91AF919F918F910F900FBE0F901F90DF
S11303801895CF93DF93E2E4F1E0A6E3B1E0CAE28B
S1130390D1E04FEF50E013C0803591050CF04FC011
S11303A0288139818217930709F449C011965C9317
S11303B04E931296229681E0EE34F80769F081910B
S11303C09191009749F711961C921E9212962296CB
S11303D081E0EE34F80799F780914201909143014E
S11303E090932B0180932A018091440190914501BF
S11303F090932D0180932C018091460190914701A7
S113040090932F0180932E0180914801909149018E
S1130410909331018093300180914A0190914B0176
S1130420909333018093320180914C0190914D015E
S11304309093350180933401DF91CF910895119603
S11304409C938E93B6CF1F920F920FB60F921124E6
S11304500BB60F922F933F934F935F936F937F93BA
S11304608F939F93AF93BF93EF93FF938091C800B3
S113047087FFFCCF8091CE008535A1F0479AFF918C
S1130480EF91BF91AF919F918F917F916F915F9108
S11304904F913F912F910F900BBE0F900FBE0F9075
S11304A01F9018958091C80087FFFCCF8091CE00E3
S11304B0982F9B7019F74798807F803509F4CDC039
S11304C010F1803B09F4F4C0B8F5803709F4A2C0F8
S11304D08038A1F6E1E9F1E047E951E08091C800F4
S11304E087FFFCCF9091CE008091C80087FFFCCF9E
S11304F02091CE00892F90E0922B819391934E17F7
S11305005F0761F7BBCF803109F4C4C008F494C01D
S1130510803209F483C0803309F0B0CFEFE7F1E013
S113052091918091C80085FFFCCF9093CE0081E02B
S1130530E538F807A9F7A2CF803C91F0803D09F097
S11305409DCF81E090E02091540130915501232BFF
S113055011F080E090E090935501809354018ECF88
S11305608091C80087FFFCCF8091CE0090E09093EB
S11305704301809342018091C80087FFFCCF8091A2
S1130580CE0090E090934501809344018091C8008F
S113059087FFFCCF8091CE0090E090934701809339
S11305A046018091C80087FFFCCF8091CE0090E087
S11305B090934901809348018091C80087FFFCCF44
S11305C08091CE0090E090934B0180934A018091FA
S11305D0C80087FFFCCF8091CE0090E090934D013E
S11305E080934C01CEDE8091360180938800809107
S11305F0380180938A0080913A0187BD80913C0143
S113060088BD80913E018093B30080914001809326
S1130610B40034CF81E08093780130CFE5E8F1E095
S113062091918091C80085FFFCCF9093CE0081E02A
S1130630EB38F807A9F722CF811120CFE1E9F1E0E7
S113064027E931E091918091C80085FFFCCF909318
S1130650CE002E173F07B1F711CF80911C0190E017
S113066090934F0180934E0180911C0190E09093F0
S1130670510180935001EEE4F1E024E531E09191E1
S11306808091C80085FFFCCF9093CE002E173F07C2
S1130690B1F7F4CEEBE8F1E091918091C80085FFC9
S11306A0FCCF9093CE0081E0E139F807A9F7E6CEBC
S11306B0E9E7F1E04FE751E08091C80087FFFCCF04
S11306C09091CE008091C80087FFFCCF2091CE008E
S11306D0892F90E0922B819391934E175F0761F7D6
S11306E0CDCE2F923F924F925F926F927F928F92D4
S11306F09F92AF92BF92CF92DF92EF92FF920F93AD
S11307001F93CF93DF93CDB7DEB7C255D1090FB690
S1130710F894DEBF0FBECDBF2D961FAF0EAF2D9741
S11307208CE0EEE1F1E0DE01DD9601900D928A9518
S1130730E1F780E198EDA0E3B2E48DA39EA3AFA31B
S1130740B8A786E896EBA3E8B2EC89A79AA7ABA76B
S1130750BCA74AEA51E76EE772EC4DA75EA76FA704
S113076078AB89AB9AABABABBCAB83E393E3ABE1C4
S1130770B1EC8DAB9EABAFABB8AF81EE9AE3AFE11A
S1130780B3EC89AF9AAFABAFBCAFCE01CD962F9689
S11307909FAF8EAF2F978E010F5F1F4FDE0195968F
S11307A02B96BFAFAEAF2B9786E896EBA3E8B2ECDF
S11307B063968CAF9DAFAEAFBFAF639780E1482E19
S11307C088ED582E80E3682E82E4782E212C312C7B
S11307D02F96AEADBFAD2F978D909D90AD90BD90EF
S11307E02F96BFAFAEAF2F97C501B4010E94A511DC
S11307F06B017C01C501B4010E94160F4B015C0121
S1130800A3019201C701B6010E9422112B013C01F0
S113081063962CAD3DAD4EAD5FAD6397C501B4019C
S11308200E9422119B01AC01C301B2010E944B0E34
S113083020E030E048E951E40E94190FF801608398
S113084071838283938320E030E048E951E4C50159
S1130850B4010E94190FD80114966D937D938D9362
S11308609C93179720E030E048E951E4C701B601B2
S11308700E94190FF8016087718782879387FFEFC1
S11308802F1A3F0A045F1F4F2B968EAD9FAD2B97F7
S113089008962B969FAF8EAF2B9793E029163104C1
S11308A0B1F02B96AEADBFAD2B974D905D906D9092
S11308B07C90139714968D919D910D90BC91A02DD1
S11308C063968CAF9DAFAEAFBFAF639781CF8D857D
S11308D09E85AF85B8892D96EEADFFAD2D978083AB
S11308E09183A283B38389899A89AB89BC898483E0
S11308F09583A683B7838D899E89AF89B88D8087B8
S11309009187A287B387898D9A8DAB8DBC8D84879F
S11309109587A687B7878D8D9E8DAF8DB8A1808B67
S1130920918BA28BB38B89A19AA1ABA1BCA1848B1F
S1130930958BA68BB78B89819A81AB81BC81808F83
S1130940918FA28FB38F8D819E81AF81B885848F63
S1130950958FA68FB78F89859A85AB85BC8580A333
S113096091A3A2A3B3A3CE5ADF4F0FB6F894DEBF70
S11309700FBECDBFDF91CF911F910F91FF90EF90EC
S1130980DF90CF90BF90AF909F908F907F906F90AB
S11309905F904F903F902F9008952F923F924F92E7
S11309A05F926F927F928F929F92AF92BF92CF92FB
S11309B0DF92EF92FF920F931F93CF93DF93CDB704
S11309C0DEB764970FB6F894DEBF0FBECDBF1982B1
S11309D01A821B821C821D821E821F82188619861F
S11309E01A861B861C862091620130916301409116
S11309F064015091650160915E0170915F01809185
S1130A0060019091610103EA11E06BDECE01019671
S1130A101C014801FE013D96FC8BEB8B7C01412CB3
S1130A20512C320182E7A82E81E0B82E06E611E0AF
S1130A306401F60161917191819191916F01F801C5
S1130A4021913191419151918F010E9422119B0179
S1130A50AC01C301B2010E944C0E2B013C01A01653
S1130A60B10639F7F70161937193819391937F01F3
S1130A70FCE08F0E911C8B899C89E816F90631F0F5
S1130A80F7014080518062807380D0CF8E010D5E6B
S1130A901F4FF10161917191819191911F010E9408
S1130AA085110E94810F6F3F710511F00CF05DC03C
S1130AB06130FFEF7F070CF45AC077FD5DC0F7018A
S1130AC010826183F2E0EF0EF11C0E151F0509F789
S1130AD02D85822F90E090934301809342018E856F
S1130AE090E090934501809344018F8590E090932A
S1130AF0470180934601888990E09093490180934F
S1130B004801898990E090934B0180934A018A8936
S1130B1090E090934D0180934C01209388008E8542
S1130B2080938A008F8587BD888988BD8989809351
S1130B30B3008A898093B40064960FB6F894DEBF3C
S1130B400FBECDBFDF91CF911F910F91FF90EF901A
S1130B50DF90CF90BF90AF909F908F907F906F90D9
S1130B605F904F903F902F9008956FEFA8CF6FEF55
S1130B70F70160831182A6CF6195FACF2F923F923D
S1130B804F925F926F927F928F929F92AF92BF9299
S1130B90CF92DF92EF92FF920F931F93CF93DF9345
S1130BA04C011B015B0181E0A81AB1081A141B0453
S1130BB07CF58B010150104C000F111F000F111F09
S1130BC0080D191DE401C990D990E990F990488065
S1130BD059806A807B80A3019201C701B6010E94FB
S1130BE0DD10181654F4FE0134974082518262825B
S1130BF07382C882D982EA82FB82C017D10719F7AF
S1130C0081E0A81AB10804501109A114B104D1F665
S1130C1020FE22C037FC3EC035942794F101EE0F2C
S1130C20FF1FEE0FFF1FE80DF91D608171818281A6
S1130C309381DF91CF911F910F91FF90EF90DF90FF
S1130C40CF90BF90AF909F908F907F906F905F9068
S1130C504F903F902F90089537FC20C0F101F595F7
S1130C60E795E150F04CEE0FFF1FEE0FFF1FE80D6C
S1130C70F91D20813181428153816481758186818E
S1130C8097810E944C0E20E030E040E05FE30E9438
S1130C902211CFCF8FEF281A380ABECF8FEF281A30
S1130CA0380ADCCFEF92FF920F931F93CF93DF9319
S1130CB0CDB7DEB7A8970FB6F894DEBF0FBECDBF91
S1130CC08E010F5F1F4F7E0185E1E80EF11C83E06A
S1130CD08BDABC01990F880B990B0E94B40FF801B1
S1130CE061937193819391938F0180E07DDABC01CC
S1130CF0990F880B990B0E94B40FF801608B718BCC
S1130D00828B938B87EA91E60197F1F700C000008C
S1130D100E151F05E1F665E070E0CE0101962EDFA9
S1130D206093000170930101809302019093030189
S1130D3065E070E0C80122DF60930401709305014F
S1130D408093060190930701A8960FB6F894DEBF2E
S1130D500FBECDBFDF91CF911F910F91FF90EF9008
S1130D6008952F923F924F925F927F928F929F921B
S1130D70AF92BF92CF92DF92EF92FF920F931F93A5
S1130D80CF93DF93CDB7DEB768970FB6F894DEBF85
S1130D900FBECDBF29873A874B875C876D877E87D7
S1130DA08F87988B4701580189859A85AB85BC85C7
S1130DB0898B9A8BAB8BBC8B2D843E844F84588853
S1130DC0C801B7010E94160F6B017C01C501B40173
S1130DD00E94A5114B015C0129893A894B895C89E0
S1130DE0C701B6010E9422116D8B7E8B8F8B988F69
S1130DF0A2019101C501B4010E9422119B01AC0121
S1130E006D897E898F89988D46D7762EAB01BC017A
S1130E1049835A836B837C8329893A894B895C890A
S1130E20C501B4010E9422114B015C01A201910190
S1130E30C701B6010E9422119B01AC01C501B40196
S1130E402BD7E62F462F572FBC014D835E836F832C
S1130E507887272D3A814B815C816E2F7E818F812B
S1130E60988568960FB6F894DEBF0FBECDBFDF91AC
S1130E70CF911F910F91FF90EF90DF90CF90BF9093
S1130E80AF909F908F907F905F904F903F902F9066
S1130E9008953F924F925F926F927F928F929F92AA
S1130EA0AF92BF92CF92DF92EF92FF920F931F9374
S1130EB0CF93DF93CDB7DEB7A4970FB6F894DEBF18
S1130EC00FBECDBFEFDE00E011E020E030E040E8EF
S1130ED05AE3D8016D917D918D919C910E942211CC
S1130EE025EA3EE448EB50E40E94221120E53DE867
S1130EF047EA5FE3D0D64B015C0120E030E040E8F4
S1130F005AE3F80164817581868197810E942211D8
S1130F1025EA3EE448EB50E40E94221120E53DE836
S1130F2047EA5FE3B8D62B013C0108E011E0D801A1
S1130F30CD90DD90ED90FC90C501B40177D79B0175
S1130F40AC01C701B6010E94221120E030E0A901E2
S1130F50A3D66D8F7E8F8F8F98A3C501B4010E9495
S1130F60A5119B01AC01C701B6010E94221120E02A
S1130F7030E0A90191D669A37AA38BA39CA3F801BD
S1130F80C480D580E680F780C301B2014FD74B01FE
S1130F905C01C301B2010E94A5112B013C01A50112
S1130FA09401C701B6010E94221122E538EB46EBF9
S1130FB051E472D62D8D3E8D4F8D58A16CD6698B20
S1130FC07A8B8B8B9C8BA3019201C701B6010E9483
S1130FD0221120E030E0A9015FD629A13AA14BA15A
S1130FE05CA159D66D8B7E8B8F8B988F29893A891A
S1130FF04B895C89CA01B9010E9422116B017C01F1
S11310002D893E894F89588DCA01B9010E94221148
S11310109B01AC01C701B6013FD60E94AF114B0141
S11310205C01D8011896CD90DD90ED90FC901B9753
S11310301C968D919D910D90BC91A02D898F9A8FB6
S1131040AB8FBC8FA7019601C701B6010E94221184
S11310502B013C01A5019401C501B4010E94221198
S11310609B01AC01C301B20117D62B013C01298DB0
S11310703A8D4B8D5C8DCA01B9010E9422119B01EE
S1131080AC01C301B20107D62B013C01A7019601B3
S1131090C701B60101D6A50194010E9422119B014A
S11310A0AC01C301B201C5D6E8D52B013C01A701AF
S11310B0960169897A898B899C890E942211A501EC
S11310C09401B7D6362EAB01BC0149875A876B878A
S11310D07C87A70196016D897E898F89988D0E94EE
S11310E02211A5019401A5D6E62FAB01BC014D87C1
S11310F05E876F87788B83017201232D3A854B8538
S11311005C856E2F7E858F8598892BDE29833A83B3
S11311104B835C836D837E838F8398872D813E818F
S11311204F81588569A17AA18BA19CA1B5D54B01AA
S11311305C010EE511E029813A814B815C816D8D62
S11311407E8D8F8D98A1A8D526E5E22E21E0F22E82
S1131150F70120813181428153819DD5DC01CB018E
S1131160B058F80180839183A283B383D701149686
S11311702D913D914D915C911797C501B4018BD58B
S1131180F8016483758386839783A4960FB6F894D5
S1131190DEBF0FBECDBFDF91CF911F910F91FF90A6
S11311A0EF90DF90CF90BF90AF909F908F907F9003
S11311B06F905F904F903F9008953F924F925F924F
S11311C06F927F928F929F92AF92BF92CF92DF9253
S11311D0EF92FF920F931F93CF93DF93CDB7DEB7B8
S11311E0A4970FB6F894DEBF0FBECDBF5BDD00E061
S11311F011E020E030E040E85AE3D8016D917D91A0
S11312008D919C910E94221125EA3EE448EB50E422
S11312100E94221120E53DE847EA5FE33CD54B01FB
S11312205C0120E030E040E85AE3F8016481758114
S1131230868197810E94221125EA3EE448EB50E41E
S11312400E94221120E53DE847EA5FE324D52B0103
S11312503C0108E011E0D801CD90DD90ED90FC90C8
S1131260C501B401E3D59B01AC01C701B601EAD7BE
S113127020E030E0A90110D56D8F7E8F8F8F98A369
S1131280C501B4010E94A5119B01AC01C701B601BF
S1131290D9D720E030E0A901FFD469A37AA38BA3B6
S11312A09CA3F801C480D580E680F780C301B20115
S11312B0BDD54B015C01C301B2010E94A5112B01F4
S11312C03C01A5019401C701B601BCD722E538EB66
S11312D046EB51E4E1D42D8D3E8D4F8D58A1DBD4E6
S11312E0698B7A8B8B8B9C8BA3019201C701B6010E
S11312F0A9D720E030E0A901CFD429A13AA14BA17C
S11313005CA1C9D46D8B7E8B8F8B988F29893A8988
S11313104B895C89CA01B90195D76B017C012D8980
S11313203E894F89588DCA01B9018CD79B01AC0104
S1131330C701B601B1D40E94AF114B015C01D801C1
S11313401896CD90DD90ED90FC901B971C968D9196
S11313509D910D90BC91A02D898F9A8FAB8FBC8FDE
S1131360A7019601C701B6016DD72B013C01A50168
S11313709401C501B40166D79B01AC01C301B2015C
S11313808BD42B013C01298D3A8D4B8D5C8DCA0188
S1131390B90158D79B01AC01C301B2017CD42B0124
S11313A03C01A7019601C701B60176D4A5019401B9
S11313B049D79B01AC01C301B2013BD55ED42B01DB
S11313C03C01A701960169897A898B899C893AD75E
S11313D0A50194012ED5362EAB01BC0149875A874D
S11313E06B877C87A70196016D897E898F89988D8B
S11313F029D7A50194011DD5E62FAB01BC014D876A
S11314005E876F87788B83017201232D3A854B8524
S11314105C856E2F7E858F859889A3DC29833A832A
S11314204B835C836D837E838F83988706E511E00D
S11314302D8D3E8D4F8D58A169817A818B819C8140
S11314402BD4F801608371838283938329A13AA109
S11314504BA15CA16D817E818F8198851DD4D801BB
S113146014966D937D938D939C931797A4960FB6C2
S1131470F894DEBF0FBECDBFDF91CF911F910F91C6
S1131480FF90EF90DF90CF90BF90AF909F908F90A0
S11314907F906F905F904F903F9008954F925F922E
S11314A06F927F928F929F92AF92BF92CF92DF9270
S11314B0EF92FF92CF93DF93EC01C0905E01D09046
S11314C05F01E0906001F09061012C853D854E85BF
S11314D05F85C701B601E0D34B015C016C877D8752
S11314E08E879F87288139814A815B81C701B60134
S11314F0A9D62B013C012C813D814E815F81C50120
S1131500B401A0D69B01AC01C301B201C5D34B0108
S11315105C01288939894A895B89C701B601BBD333
S1131520288539854A855B858DD69B01AC01C5012B
S1131530B401B2D34B015C01C88AD98AEA8AFB8A16
S113154020E030E040EF51E438D6181604F120E0F2
S113155030E040EF51E4C501B40164D487FF06C014
S1131560812C912C90EFA92E91ECB92EC501B401D8
S1131570DF91CF91FF90EF90DF90CF90BF90AF902D
S11315809F908F907F906F905F904F900895812CE3
S1131590912C80EFA82E81E4B82EE8CF2F923F92B1
S11315A04F925F926F927F928F929F92AF92BF926F
S11315B0CF92DF92EF92FF920F931F93CF93DF931B
S11315C0CDB7DEB76C970FB6F894DEBF0FBECDBFB4
S11315D09C8B8B8B7A8B698B80915E0190915F01E0
S11315E0A0916001B0916101898F9A8FAB8FBC8FFC
S11315F02C013D0177FA709477F87094C0906201E1
S1131600D0906301E0906401F0906501F7FAF094E2
S1131610F7F8F09430906A0190916B019D8B0091E2
S11316206C0110916D0120906E01A0916F01AE8B41
S1131630B0917001BF8BE0917101E88F232D392F98
S1131640A801632D792FC801FDD54B015C01222D22
S11316503E894F89588D622D7E898F89988DF2D568
S11316609B01AC01C501B40117D379D64AD49B01BF
S113167077FD2EC1B901330F880B990B75D420E087
S113168030E040E05FE3CED387FD2AC020E030E0C5
S1131690A901632D7D89C801C5D320E030E0A901EB
S11316A0622D7E89882309F418C18F89988DCAD543
S11316B0232D3D89A801F0D24B015C0120E030E0EC
S11316C0A901632D7D89C801BDD59B01AC01622DA3
S11316D07E898F89988DDFD2A501940150D30EC0E5
S11316E06BED7FE089EC9FE3312C1D8A00E010E074
S11316F0212C1E8AF0E8FF8B2FE3288F5B014C011D
S113170020E030E0A901C301B2018CD3811109C0EA
S113171020E030E0A901C701B60184D3882309F48D
S1131720D3C020E030E0A901C701B6018BD5298DD3
S11317303A8D4B8D5C8DAFD2698F7A8F8B8F9C8F56
S113174020E030E0A901C301B2017CD59B01AC01CA
S1131750C701B601A0D2298D3A8D4B8D5C8D0FD374
S11317609501A40198D26B017C01AB89BC891C96BC
S11317702D913D914D915C911F978ED24B015C014F
S1131780EB89FC89648775878687978720813181F7
S113179042815381C701B60155D52B013C01AB8968
S11317A0BC8914962D913D914D915C911797C5017B
S11317B0B40148D59B01AC01C301B2016DD24B0108
S11317C05C01EB89FC892089318942895389C701ED
S11317D0B60161D2AB89BC8918962D913D914D918A
S11317E05C911B972FD59B01AC01C501B40154D268
S11317F060939F017093A0018093A1019093A20133
S1131800EB89FC89C08AD18AE28AF38A232DC32C0E
S1131810DD887801C986DA86EB86FC86C22CDE88F0
S1131820EF88F88CCD86DE86EF86F88A7B018C0102
S11318303A854B855C85622D7E858F85988991DA02
S113184029833A834B835C836D837E838F8398875C
S1131850CE01419623DE1092660110926701109228
S113186068011092690189819A81AB81BC8180935E
S11318706A0190936B01A0936C01B0936D018D810B
S11318809E81AF81B88580936E0190936F01A09380
S11318907001B09371016C960FB6F894DEBF0FBE61
S11318A0CDBFDF91CF911F910F91FF90EF90DF900B
S11318B0CF90BF90AF909F908F907F906F905F90EC
S11318C04F903F902F90089560E070E0CB0148CF97
S11318D022273327261B370BCDCE8F89988DA2D292
S11318E0811105C0A12CB12C812C912C09CF20E0B1
S11318F030E0A901622D7E89D8CEBF92CF92DF92CB
S1131900EF92FF920F931F93CF93DF93CDB7DEB780
S1131910E0970FB6F894DEBF0FBECDBF0E9413014F
S113192081E1D2D07894E2D0109295001092940084
S113193080917100816080937100479A80E090E00B
S1131940A0E8BFE3898F9A8FAB8FBC8F1D8E1E8E4C
S11319501F8E18A219A21AA21BA21CA21DA21EA2AB
S11319601FA218A619A61AA61BA61CA68DEC9CECF1
S1131970ACECBDE389839A83AB83BC831D821E8256
S11319801F82188619861A861B861C861D861E864B
S11319901F86188A198A1A8A1B8A1C8A0EDC80916F
S11319A07801811157C000E010E080E4B82EC12C0A
S11319B090E4D92E9CE1E92E95E4F92E8DD0811185
S11319C015C08091980180FF11C081FF75C088B156
S11319D08B2588B962E08BEC91E098D08091CB01A3
S11319E080931C0179D0882309F46CC052DA809169
S11319F0540190915501892B09F441C0083E23E01C
S1131A00120781F00F5F1F4FC0926E01D0926F01D9
S1131A10E0927001F09271010E94CD04083E83E0CF
S1131A20180781F7BE016F5F7F4FCE014996B6DD7F
S1131A300E94CD0408EE13E09FE72AE186E091506E
S1131A4020408040E1F700C00000809178018823A5
S1131A5009F4B4CF85E08093910080E090E0E096B3
S1131A600FB6F894DEBF0FBECDBFDF91CF911F91AB
S1131A700F91FF90EF90DF90CF90BF900895109258
S1131A806601109267011092680110926901109228
S1131A906A0110926B0110926C0110926D01109208
S1131AA06E0110926F0110927001109271010E94E8
S1131AB0CD0401E010E0C0CF000011D017D00CD04D
S1131AC0811194CF13D092CF8093BA0084E0809395
S1131AD0BC00109299010895809199010895809114
S1131AE099018111FECF80911D0108958091990182
S1131AF08111FECF81E08093980188EF80931D01CE
S1131B0085EC8093BC00109299010895209199016D
S1131B102111FECF2091980120FF14C0662369F0A3
S1131B20EBE9F1E0DC016150862F90E084569E4F92
S1131B3021912D93E817F907D9F7209198012D7F6A
S1131B4020939801822F817008951F920F920FB6EF
S1131B500F9211240BB60F928F939F93EF93FF93E1
S1131B608091B900803909F46AC0F0F0883AE1F153
S1131B7008F45AC0803CE1F1883C09F44DC0883B2C
S1131B80E9F5E091970181E08E0FF0E080939701F1
S1131B90E556FE4F80818093BB0085EC8093BC00AA
S1131BA081E08093990115C0803709F442C080F523
S1131BB0882391F1803611F5809198018260809399
S1131BC098011092970185EC8093BC0081E080938A
S1131BD09901FF91EF919F918F910F900BBE0F9000
S1131BE00FBE0F901F901895E0E0F0E081E0CECF9B
S1131BF09091970180919A019817C9F18091B90049
S1131C0080931D0185EC8093BC0010929901E1CF73
S1131C108038A9F0883891F78091B90080931D012C
S1131C2080E98093BC00D5CF8839B1F3803A51F371
S1131C30E5CF80919801846080939801BDCFE091B5
S1131C40970181E08E0F809397018091BB00F0E0B3
S1131C50E556FE4F808380919801816080939801BE
S1131C6085EC8093BC0081E080939901B2CF809190
S1131C709801816080939801C5CF9F939F77AFD1DE
S1131C800F9000203AF49058A2EA2AED3FE049E48C
S1131C9050E413D047C25058BB27AA270ED042C2E3
S1131CA00BD230F010D220F031F49F3F11F41EF427
S1131CB0DBC10EF4E095E7FBD1C1E92F55D280F3E7
S1131CC0BA17620773078407950718F071F49EF535
S1131CD06DC20EF4E0950B2EBA2FA02D0B01B901A5
S1131CE090010C01CA01A0011124FF27591B99F08E
S1131CF0593F50F4503E68F11A16F040A22F232F9A
S1131D00342F4427585FF3CF469537952795A795E9
S1131D10F0405395C9F77EF41F16BA0B620B730B90
S1131D20840BBAF09150A1F0FF0FBB1F661F771F01
S1131D30881FC2F70EC0BA0F621F731F841F48F4B6
S1131D40879577956795B795F7959E3F08F0B3CF3C
S1131D509395880F08F09927EE0F97958795089526
S1131D60ABD158F080E891E009F49EEFACD128F0B3
S1131D7040E851E059F45EEF09C076C117C2E92F7B
S1131D80E078F2D168F3092E052AC1F32617370744
S1131D904807590738F00E2E07F8E02569F0E025CA
S1131DA0E0640AC0EF6307F8009407FADB01B901A5
S1131DB09D01DC01CA01AD01EF934AD0B3D10AD031
S1131DC05F91552331F02BED3FE049E450FD49ECA0
S1131DD063CF0895DF93DD27B92FBF7740E85FE332
S1131DE01616170648075B0710F4D92FEAD19F93FC
S1131DF08F937F936F93F1D2ECE8F0E038D192D1D6
S1131E002F913F914F915F9129D2DD2349F0905852
S1131E10A2EA2AED3FE049EC5FE3D0785D274DDF8D
S1131E20DF9180C1F7D008F481E0089554D1E3959F
S1131E308AC10CD077C147D140F03ED130F021F4B3
S1131E405F3F19F00BC15111B2C10EC18DD198F38E
S1131E509923C9F35523B1F3951B550BBB27AA2727
S1131E6062177307840738F09F5F5F4F220F331F99
S1131E70441FAA1FA9F333D00E2E3AF0E0E830D065
S1131E8091505040E695001CCAF729D0FE2F27D068
S1131E90660F771F881FBB1F261737074807AB0736
S1131EA0B0E809F0BB0B802DBF01FF2793585F4FAB
S1131EB02AF09E3F510568F0D1C079C15F3FECF331
S1131EC0983EDCF3869577956795B795F7959F5F70
S1131ED0C9F7880F911D9695879597F90895E1E0C4
S1131EE0660F771F881FBB1F621773078407BA0723
S1131EF020F0621B730B840BBA0BEE1F88F7E0957E
S1131F00089504D06894B11152C1089535D188F070
S1131F109F5790F0B92F9927B751A0F0D1F0660FD1
S1131F20771F881F991F1AF0BA95C9F712C0B130EC
S1131F3081F03CD1B1E0089539C1672F782F88270B
S1131F40B85F39F0B93FCCF3869577956795B3952B
S1131F50D9F73EF490958095709561957F4F8F4F9A
S1131F609F4F0895E89409C097FB3EF4909580959F
S1131F70709561957F4F8F4F9F4F9923A9F0F92F4B
S1131F8096E9BB279395F695879577956795B795C9
S1131F90F111F8CFFAF4BB0F11F460FF1BC06F5FAF
S1131FA07F4F8F4F9F4F16C0882311F096E911C0C1
S1131FB0772321F09EE8872F762F05C0662371F0E2
S1131FC096E8862F70E060E02AF09A95660F771FF6
S1131FD0881FDAF7880F9695879597F90895DF9308
S1131FE0CF931F930F938B01EC01E9EBF0E03FD00B
S1131FF099D09801AE018B01EC0160E070E080E8BB
S11320009FE349DEACD19801AE010F911F91CF91AE
S1132010DF9124C1990F0008550FAA0BE0E8FEEFE9
S113202016161706E807F907C0F012161306E40798
S1132030F50798F0621B730B840B950B39F40A2691
S113204061F0232B242B252B21F408950A2609F46F
S1132050A140A6958FEF811D811D089597F99F6773
S113206080E870E060E008959FEF80EC0895DF93CE
S1132070CF931F930F93FF92EF92DF927B018C011A
S1132080689405C0DA2EEF01E9D0FE01E894A59129
S11320902591359145915591AEF3EF010EDEFE0188
S11320A09701A801DA9479F7DF90EF90FF900F91F0
S11320B01F91CF91DF91089500240A9416161706F4
S11320C018060906089500240A9412161306140625
S11320D005060895C9CF50D0E8F3E894E0E0BB27A3
S11320E09F57F0F02AED3FE049EC06C0EE0FBB0F1E
S11320F0661F771F881F28F0B23A620773078407A8
S113210028F0B25A620B730B840BE3959A9572F71D
S1132110803830F49A95BB0F661F771F881FD2F75B
S113212090487BC1092E0394000C11F4882352F0CB
S1132130BB0F40F4BF2B11F460FF04C06F5F7F4FEF
S11321408F4F9F4F0895EF93E0FF06C0A2EA2AED58
S11321503FE049EC5FEBB1DDE5DF0F90039401FC58
S11321609058E1EEF0E06CC157FD9058440F551FB4
S113217059F05F3F71F04795880F97FB991F61F005
S11321809F3F79F087950895121613061406551F7C
S1132190F2CF4695F1DF08C0161617061806991FE8
S11321A0F1CF86957105610508940895E894BB27DD
S11321B066277727CB0197F908952CDF08F48FEF72
S11321C008959B01AC0160E070E080E89FE331CEAC
S11321D0D3DFA8F19E57A8F1985160F039F19830F7
S11321E070F5092E9927660F771F881F991F0A9487
S11321F0D1F71CC0BB27993F4CF4B111B1E0B62B09
S1132200672F782F8827985FB1F708C08695779550
S11322106795B79508F4B1609395C1F7BB0F30F497
S113222011F460FF03C06F5F7F4F8F4F3EF49095B2
S11322308095709561957F4F8F4F9F4F0895689457
S1132240B6CFB4CF0BD06ECF37DF28F03CDF18F019
S1132250952309F003CF08CF1124A9CF85DFA0F37C
S1132260959FD1F3950F50E0551F629FF001729F27
S1132270BB27F00DB11D639FAA27F00DB11DAA1F46
S1132280649F6627B00DA11D661F829F2227B00D93
S1132290A11D621F739FB00DA11D621F839FA00D1E
S11322A0611D221F749F3327A00D611D231F849F6E
S11322B0600D211D822F762F6A2F11249F575040C5
S11322C08AF0E1F088234AF0EE0FFF1FBB1F661F60
S11322D0771F881F91505040A9F79E3F510570F019
S11322E0BDCE65CF5F3FECF3983EDCF386957795E2
S11322F06795B795F795E7959F5FC1F7FE2B880F14
S1132300911D9695879597F9089536DFE0F09E37ED
S1132310D8F09639B8F49E3848F4672F782F882778
S1132320985FF9CF86957795679593959539D0F30E
S1132330B62FB1706B0F711D811D20F487957795B1
S1132340679593954DC067C032CF9F93C4DE0F90BD
S113235007FCEE5FF8CE11F40EF486CE5CC00CDF01
S1132360D0F39923D9F3CEF39F57550B87FF61D050
S11323700024A0E640EA900180585695979528F4E9
S1132380805C660F771F881F20F0261737074807E1
S113239030F4621B730B840B202931294A2BA69538
S11323A017940794202531254A2758F7660F771F7D
S11323B0881F20F026173707480730F4620B730B89
S11323C0840B200D311D411DA09581F7B901842F87
S11323D09158880F9695879508959B01AC0132CF4B
S11323E0882371F4772321F09850872B762F07C028
S11323F0662311F499270DC09051862B70E060E09C
S11324002AF09A95660F771F881FDAF7880F96953A
S1132410879597F908959F3F31F0915020F487955F
S113242077956795B795880F911D9695879597F938
S1132430089591505040660F771F881FD2F7089572
S11324409F938F937F936F93FF93EF939B01AC01C3
S1132450F9DEEF91FF910BDE2F913F914F915F9148
S1092460F1CEF894FFCF59
S1132466814D36444D74D1430000C8410000C84133
S1132476000020420000204252B8B64102F8A60AE3
S10D248686BFA60A863F560E4940A1
S903017883
