:1000000045C0000053C0000051C000004FC00000B8
:100010004DC000004BC0000049C0000047C00000B8
:1000200045C0000043C0000041C000003FC00000C8
:100030003DC000003BC0000039C0000037C00000D8
:1000400035C0000033C0000031C000002FC00000E8
:100050002DC000002BC0000029C0000027C00000F8
:1000600025C0000023C0000021C000001FC0000008
:100070003EC100001BC0000019C0000017C00000F6
:1000800054C2000013C0000011C0000011241FBEA4
:10009000CFEFD0E4DEBFCDBF21E0A0E0B1E001C0F2
:1000A0001D92A733B207E1F769D208C3A9CF6F92B7
:1000B0007F928F929F92AF92CF92EF92FF920F9387
:1000C0001F93CF93DF93ACE7B0E01C92EAE7F0E038
:1000D00010829BE7692E712CE30118823EE7832E84
:1000E000912CE40118823081D0E88D9FC001112449
:1000F000832B8083E40168838C91D0E44D9FA00121
:100100001124482B4C938C9150E2059F80011124BF
:10011000082B0C938081282B2083808190E2E99E1C
:1001200070011124E82AE082D3018C91C82ACC9274
:100130008081AA0CAA0CAA0CA82AA082DF91CF91D8
:100140001F910F91FF90EF90CF90AF909F908F9065
:100150007F906F90089590917C00907E90937C00AA
:1001600090917C00892B80937C0080917A00806440
:1001700080937A0080917A0084FFFCCF80917A008E
:10018000806180937A00809178002091790090E0DE
:10019000922B0895AF92CF92EF920F93E1E6F0E0A9
:1001A00080E88083108211B812B88FEF84B915B837
:1001B00080EF87B918B88BEF8AB91BB891EA94BD64
:1001C00082E085BD16BC17BC18BC9093800080935C
:1001D0008100109285001092840010928700109286
:1001E0008600109289001092880010928B00109265
:1001F0008A001092B6009093B0008093B1001092E4
:10020000B2001092B3001092B400109290009DE0E2
:100210009093910010929500109294001092970084
:10022000109296001092990093E690939800109285
:100230009B0010929A0010926E0010926F00109224
:10024000700080937100A12CC12CE12C00E027E00C
:1002500041E069E081E02BDF60E070E088EA91E452
:10026000F3D1615071097093CD006093CC00E9EC3B
:10027000F0E088E18083AAECB0E08C9186608C93FA
:100280008081806880830F91EF90CF90AF90089528
:10029000E0919400F0919500A0919800B0919900A0
:1002A000DA011C92D901ED93FC93FC01DB01BC0146
:1002B0006A5F7F4F408151819091C80097FFFCCFCA
:1002C0002091CE009091C80097FFFCCF8091CE0086
:1002D00030E0382B21933193CA01880F991F281BD6
:1002E000390B2D933D93E617F70721F708951F92D9
:1002F0000F920FB60F9211240BB60F922F933F93CC
:100300004F935F936F937F938F939F93AF93BF931D
:10031000EF93FF938091C80087FFFCCF8091CE00C0
:100320008535A1F0479AFF91EF91BF91AF919F91D1
:100330008F917F916F915F914F913F912F910F908E
:100340000BBE0F900FBE0F901F9018958091C800A4
:1003500087FFFCCF8091CE00982F9B7019F74798AC
:10036000807F803709F4DDC0B8F4803209F4CBC057
:1003700038F5882309F47CC08031A1F6EBE2F1E086
:1003800091918091C80085FFFCCF9093CE0081E0D1
:10039000E133F807A9F7C6CF803A09F4AAC028F5D7
:1003A000803809F48DC0803909F0BCCF24E031E0F9
:1003B00041E051E06FE171E08BE291E069DFB2CFA3
:1003C000803309F447C0803509F0ACCFE6E0F1E0B6
:1003D0002CE031E091918091C80085FFFCCF909393
:1003E000CE002E173F07B1F79DCF803B09F44FC0D9
:1003F000803C09F097CF8091C80087FFFCCF8091A7
:10040000CE00809388008091C80087FFFCCF809148
:10041000CE0080938A008091C80087FFFCCF809136
:10042000CE0087BD8091C80087FFFCCF8091CE00B1
:1004300088BD8091C80087FFFCCF8091CE0080935B
:10044000B3008091C80087FFFCCF8091CE008093DD
:10045000B40068CFE3E1F1E091918091C80085FF9D
:10046000FCCF9093CE0081E0E931F807A9F75ACF8D
:10047000E1E3F1E027E331E091918091C80085FF4D
:10048000FCCF9093CE002E173F07B1F74BCFEDE096
:10049000F1E043E151E08091C80087FFFCCF9091EB
:1004A000CE008091C80087FFFCCF2091CE00892F1D
:1004B00090E0922B819391934E175F0761F732CFB3
:1004C000E1E3F1E047E351E08091C80087FFFCCF12
:1004D0009091CE008091C80087FFFCCF2091CE0084
:1004E000892F90E0922B819391934E175F0761F7CC
:1004F00019CF22E031E040E051E069E171E085E2AE
:1005000091E0C6DE0FCFE5E2F1E091918091C80065
:1005100085FFFCCF9093CE0081E0EB32F807A9F77E
:1005200001CF81E080930C01FDCE1F920F920FB698
:100530000F9211248F93809101018F5F80930101AD
:10054000809100018F5F809300018F910F900FBE0B
:100550000F901F9018950F931F93CF93DF93EC018B
:1005600080E0F9DD8C0183E0F6DD198308839B834D
:100570008A83DF91CF911F910F9108950BDE4798E9
:10058000469A479A8FE08093010186E190E090932C
:1005900005018093040110929100789480910C01E0
:1005A000811114C0C0E486E091E0D5DF88B18C27CA
:1005B00088B92FE78AE196E0215080409040E1F72A
:1005C00000C0000080910C01882369F3469A85E001
:1005D00080939100C0E486E091E0BDDF88B18C2774
:1005E00088B92FE78AE196E0215080409040E1F7FA
:1005F00000C00000F0CF57FD9058440F551F59F030
:100600005F3F71F04795880F97FB991F61F09F3FFF
:1006100079F087950895121613061406551FF2CF28
:100620004695F1DF08C0161617061806991FF1CF78
:1006300086957105610508940895E894BB2766279F
:100640007727CB0197F90895DEDFA8F19E57A8F12F
:10065000985160F039F1983070F5092E9927660F9E
:10066000771F881F991F0A94D1F71CC0BB27993F99
:100670004CF4B111B1E0B62B672F782F8827985F23
:10068000B1F708C0869577956795B79508F4B1607E
:100690009395C1F7BB0F30F411F460FF03C06F5F97
:1006A0007F4F8F4F3EF490958095709561957F4F69
:1006B0008F4F9F4F08956894C1CFBFCFF894FFCF5D
:040000050080010C6A
:00000001FF
