S01C000044656C74615F52686F5F636F6E74726F6C6C65722E73726563F3
S11300007FC000009BC0000099C0000097C00000A2
S113001095C0000093C0000091C000008FC0000094
S11300208DC000008BC0000089C0000087C00000A4
S113003085C0000083C0000081C000007FC00000B4
S11300407DC000007BC0000079C0000077C00000C4
S113005075C0000073C0000071C000006FC00000D4
S11300606DC000006BC0000069C0000067C00000E4
S113007058C1000063C0000061C000005FC0000000
S11300809EC200005BC0000059C00000084AD73B74
S11300903BCE016E84BCBFFDC12F3D6C74319ABD53
S11300A056833DDA3D00C77F11BED9E4BB4C3E9177
S11300B06BAAAABE000000803F072C7AA5BA6CC5C3
S11300C090DA3B9365FC8BBC53F810FD3C5692834D
S11300D04DBD879D3AB63DCBC9BF5BBE73DA0FC930
S11300E03F05A84CCDB2D44EB93836A9020C50B94C
S11300F0918688083CA6AAAA2ABE000000803F0078
S113010011241FBECFEFD0E4DEBFCDBF11E0A0E0CD
S1130110B1E0E8E0F6E100E00BBF02C007900D9209
S1130120A830B107D9F721E0A8E0B1E001C01D92E1
S1130130AD36B207E1F721D60C94020B61CF6F9272
S11301407F928F929F92AF92CF92EF92FF920F93F2
S11301501F93CF93DF93ACE7B0E01C92EAE7F0E0A3
S113016010829BE7692E712CE30118823EE7832EEF
S1130170912CE40118823081D0E88D9FC0011124B4
S1130180832B8083E40168838C91D0E44D9FA0018C
S11301901124482B4C938C9150E2059F800111242B
S11301A0082B0C938081282B2083808190E2E99E88
S11301B070011124E82AE082D3018C91C82ACC92E0
S11301C08081AA0CAA0CAA0CA82AA082DF91CF9144
S11301D01F910F91FF90EF90CF90AF909F908F90D1
S11301E07F906F90089590917C00907E90937C0016
S11301F090917C00892B80937C0080917A008064AC
S113020080937A0080917A0084FFFCCF80917A00F9
S1130210806180937A00809178002091790090E049
S1130220922B0895AF92CF92EF920F93E1E6F0E014
S113023080E88083108211B812B88FEF84B915B8A2
S113024080EF87B918B88BEF8AB91BB891EA94BDCF
S113025082E085BD16BC17BC18BC909380008093C7
S113026081001092850010928400109287001092F1
S11302708600109289001092880010928B001092D0
S11302808A001092B6009093B0008093B10010924F
S1130290B2001092B3001092B400109290009DE04E
S11302A090939100109295001092940010929700F0
S11302B0109296001092990093E6909398001092F1
S11302C09B0010929A0010926E0010926F00109290
S11302D0700080937100A12CC12CE12C00E027E078
S11302E041E069E081E02BDF60E070E088EA91E4BE
S11302F00E94F409615071097093CD006093CC00A1
S1130300E9ECF0E088E18083AAECB0E08C918660AF
S11303108C938081806880830F91EF90CF90AF9011
S113032008951F920F920FB60F9211240BB60F92DD
S11303302F933F934F935F936F937F938F939F93E9
S1130340AF93BF93EF93FF938091C80087FFFCCFD7
S11303508091CE008535A1F0479AFF91EF91BF912E
S1130360AF919F918F917F916F915F914F913F9149
S11303702F910F900BBE0F900FBE0F901F901895EA
S11303808091C80087FFFCCF8091CE00982F9F708A
S1130390933011F09111E0CF4798807F803509F4B4
S11303A0A2C010F1803B09F4F1C0B8F5803709F41C
S11303B077C0803889F6E7E6F1E04DE651E08091B8
S11303C0C80087FFFCCF9091CE008091C80087FFC2
S11303D0FCCF2091CE00892F90E0922B81939193B2
S11303E04E175F0761F7B8CF803109F4C1C008F434
S11303F069C0803209F458C0803309F0ADCFE5E517
S1130400F1E091918091C80085FFFCCF9093CE00DC
S113041081E0EB35F807A9F79FCF803C91F0803D50
S113042009F09ACF81E090E020911C0130911D01E8
S1130430232B11F080E090E090931D0180931C0128
S11304408BCF8091C80087FFFCCF8091CE00809332
S113045088008091C80087FFFCCF8091CE008093F4
S11304608A008091C80087FFFCCF8091CE0087BDB1
S11304708091C80087FFFCCF8091CE0088BD809119
S1130480C80087FFFCCF8091CE008093B300809199
S1130490C80087FFFCCF8091CE008093B4005CCF6E
S11304A081E080934E0158CFEBE5F1E0919180918A
S11304B0C80085FFFCCF9093CE0081E0E136F807B9
S11304C0A9F74ACF811148CFE7E6F1E02DE631E004
S11304D091918091C80085FFFCCF9093CE002E1798
S11304E03F07B1F739CF20E030E048EC52E46091A7
S11304F01001709111018091120190911301AED7F6
S113050010D670931F0160931E0120E030E048EC88
S113051052E460911401709115018091160190913B
S113052017019CD7FED5709321016093200120E030
S113053030E048EC52E46091180170911901809107
S11305401A0190911B018AD7ECD570932301609313
S11305502201EEE1F1E024E231E091918091C800C2
S113056085FFFCCF9093CE002E173F07B1F7F4CE52
S1130570E1E6F1E091918091C80085FFFCCF909372
S1130580CE0081E0E736F807A9F7E6CEEFE4F1E024
S113059045E551E08091C80087FFFCCF9091CE00E3
S11305A08091C80087FFFCCF2091CE00892F90E076
S11305B0922B819391934E175F0761F7CDCE1F92D3
S11305C00F920FB60F9211248F939F93AF93BF9303
S11305D080914D018F5F80934D0180914C018F5F1D
S11305E080934C018091080190910901A0910A0126
S11305F0B0910B010196A11DB11D80930801909348
S11306000901A0930A01B0930B01BF91AF919F918F
S11306108F910F900FBE0F901F9018954F925F927D
S11306206F927F928F929F92AF92BF92CF92DF92FE
S1130630EF92FF92CF93DF93CDB7DEB72A970FB631
S1130640F894DEBF0FBECDBF9A8789874A015B014C
S1130650DC018D919D910D90BC91A02D89839A838D
S1130660AB83BC83CB01BA01F1D46B017C01E98576
S1130670FA854480558066807780C501B40151D7DE
S11306804B015C01A701960169817A818B819C8170
S1130690E5D66D837E838F839887A5019401C3017A
S11306A0B201DCD69B01AC016D817E818F8198857E
S11306B002D4A985BA856D937D938D939C931397EA
S11306C0A501940169817A818B819C81C7D64B01F4
S11306D05C01A3019201C701B601C0D69B01AC0124
S11306E0C501B401E9D3E985FA85648375838683FA
S11306F097832A960FB6F894DEBF0FBECDBFDF9165
S1130700CF91FF90EF90DF90CF90BF90AF909F90EC
S11307108F907F906F905F904F9008952F923F92AB
S11307204F925F926F927F928F929F92AF92BF92FD
S1130730CF92DF92EF92FF920F931F93CF93DF93A9
S1130740CDB7DEB72C970FB6F894DEBF0FBECDBF82
S113075080E049DD7C0183E046DD8C01B701FF0CBC
S1130760880B990B11D520E030E040E85AE376D6A7
S11307702CEE31E548EB50E471D626E636E646EA3F
S11307805FE399D34B015C01B801110F880B990BFE
S1130790FBD420E030E040E85AE360D62CEE31E5AB
S11307A048EB50E45BD628E03CEA4CEB5FE383D3B0
S11307B06B017C01C501B40149D424E4222E21E05B
S11307C0322E20E030E048EC51E448D6D1012D919E
S11307D03D914D915C9170D32B013C010CE311E0F0
S11307E0F8016083718382839383C501B40199D630
S11307F020E030E048EC51E431D6D10114962D913B
S11308003D914D915C91179757D369877A878B8770
S11308109C87F8016483758386839783C701B60137
S113082015D430E0232E31E0332E20E030E048ECC4
S113083051E414D6D1012D913D914D915C913CD35D
S11308404B015C01E4E3F1E0608371838283938371
S1130850C701B60166D620E030E048EC51E4FED58D
S1130860D10114962D913D914D915C91179724D30C
S11308706B017C01609338017093390180933A01D4
S113088090933B01A3019201C501B40114D32B0140
S11308903C0129853A854B855C85C701B6010BD39C
S11308A04B015C01A3019201C301B201D7D56B01D5
S11308B07C01A5019401C501B401D0D59B01AC0113
S11308C0C701B601F9D237D66B017C019B01AC019B
S11308D0C5D520E030E048EC54E4EED220E030E02E
S11308E048EC54E4E8D269877A878B879C8720E0B8
S11308F030E040EA52E4C701B601B0D59B01AC0137
S113090069857A858B859C85A4D3C7D269877A87C4
S11309108B879C8720E030E040E252E4C301B201BF
S11309209DD5A701960195D369837A838B839C8394
S113093020E030E040E252E4C501B4018FD5A701C4
S1130940960187D36D837E838F83988749855A85E3
S11309506B857C85CE01019661DE2D813E814F81C0
S11309605885F8016481758186819781A5D24B01F0
S11309705C014CE2E42E41E0F42E29813A814B8162
S11309805C81D8016D917D918D919C9195D204E209
S113099011E0F80120813181428153818CD2D70149
S11309A06D937D938D939C931397F80124813581E6
S11309B046815781C501B4017ED2D70114966D9347
S11309C07D938D939C9317972C960FB6F894DEBF66
S11309D00FBECDBFDF91CF911F910F91FF90EF908C
S11309E0DF90CF90BF90AF909F908F907F906F904B
S11309F05F904F903F902F9008952F923F924F9287
S1130A005F927F928F929F92AF92BF92CF92DF922A
S1130A10EF92FF920F931F93CF93DF93CDB7DEB77F
S1130A2068970FB6F894DEBF0FBECDBF29873A870B
S1130A304B875C876D877E878F87988B470158012A
S1130A4089859A85AB85BC85898B9A8BAB8BBC8B4E
S1130A502D843E844F845888C801B701F7D26B01B6
S1130A607C01C501B4015DD54B015C0129893A893A
S1130A704B895C89C701B601F1D46D8B7E8B8F8B5A
S1130A80988FA2019101C501B401E8D49B01AC0186
S1130A906D897E898F89988D0ED2762EAB01BC012B
S1130AA049835A836B837C8329893A894B895C897E
S1130AB0C501B401D3D44B015C01A2019101C7016A
S1130AC0B601CCD49B01AC01C501B401F5D1E62F2C
S1130AD0462F572FBC014D835E836F837887272D64
S1130AE03A814B815C816E2F7E818F8198856896D7
S1130AF00FB6F894DEBF0FBECDBFDF91CF911F912B
S1130B000F91FF90EF90DF90CF90BF90AF909F90A8
S1130B108F907F905F904F903F902F9008954F92C9
S1130B205F926F927F928F929F92AF92BF92CF9279
S1130B30DF92EF92FF920F931F93CF93DF93CDB782
S1130B40DEB764970FB6F894DEBF0FBECDBF8C013D
S1130B508091080190910901A0910A01B0910B01C3
S1130B602091940030919500DC0199278827BC01DD
S1130B70CD01620F731F811D911D04D320E836E956
S1130B8048E95BE466D260930C0170930D01809395
S1130B900E0190930F0140902C0150902D01609014
S1130BA02E0170902F0153014201B7FAB094B7F8A7
S1130BB0B094C0903001D0903101E0903201F090B7
S1130BC03301D701C601B058898B9A8BAB8BBC8B90
S1130BD020E030E0A901C501B40134D281110BC079
S1130BE020E030E0A90169897A898B899C892AD21D
S1130BF0882309F4BEC020E030E0A901C501B40196
S1130C002DD4A701960157D16B017C0120E030E07F
S1130C10A90169897A898B899C8920D4A3019201CD
S1130C204BD1A7019601BBD19B01AC0160E070E000
S1130C30CB0141D16B017C01D8011C962D913D91D2
S1130C404D915C911F97C701B60136D14B015C01F0
S1130C50F80164877587868797872081318142816F
S1130C605381C701B601FAD32B013C01D801149674
S1130C702D913D914D915C911797C501B401EED32F
S1130C809B01AC01C301B20117D14B015C01F80116
S1130C902089318942895389C701B6010CD1D80111
S1130CA018962D913D914D915C911B97D7D39B0143
S1130CB0AC01C501B40100D1F801C08AD18AE28A2D
S1130CC0F38A19861A861B861C8600E010E020E849
S1130CD03FE30D871E872F87388B7B018C0120E033
S1130CE03A854B855C8560E07E858F85988985DEB5
S1130CF029833A834B835C836D837E838F839887B8
S1130D0020E030E04CE052E469817A818B819C815F
S1130D10A5D36093140170931501809316019093E9
S1130D20170120E030E04CE052E46D817E818F8138
S1130D30988594D3609318017093190180931A01D4
S1130D4090931B0164960FB6F894DEBF0FBECDBF1F
S1130D50DF91CF911F910F91FF90EF90DF90CF9093
S1130D60BF90AF909F908F907F906F905F904F90C7
S1130D700895C12CD12C76015FCF1F93CF93DF93BD
S1130D80CDB7DEB768970FB6F894DEBF0FBECDBF00
S1130D9049DA10929500109294008091710081605C
S1130DA0809371007894479A83E393E3ABE1B1E4D1
S1130DB08093240190932501A0932601B0932701E9
S1130DC086E696E6A8E4B2E480932801909329018C
S1130DD0A0932A01B0932B0180E090E0A0EAB1E453
S1130DE089839A83AB83BC831D821E821F821886EB
S1130DF019861A861B861C861D861E861F86188ADF
S1130E00198A1A8A1B8A1C8A80914E01811135C065
S1130E1010E428C0109210011092110110921201D6
S1130E2010921301109214011092150110921601E0
S1130E3010921701109218011092190110921A01C0
S1130E4010921B0188B1812788B92FE78AE196E0C7
S1130E50215080409040E1F700C0000080914E0195
S1130E6081110BC05BDC80911C0190911D01892BC9
S1130E7089F2CE01019653DEE5CF469A85E0809350
S1130E80910080E090E068960FB6F894DEBF0FBE44
S1130E90CDBFDF91CF911F9108959F939F77AFD1DD
S1130EA00F9000203AF49058A2EA2AED3FE049E47A
S1130EB050E413D047C25058BB27AA270ED042C2D1
S1130EC00BD230F010D220F031F49F3F11F41EF415
S1130ED0DBC10EF4E095E7FBD1C1E92F55D280F3D5
S1130EE0BA17620773078407950718F071F49EF523
S1130EF06DC20EF4E0950B2EBA2FA02D0B01B90193
S1130F0090010C01CA01A0011124FF27591B99F07B
S1130F10593F50F4503E68F11A16F040A22F232F87
S1130F20342F4427585FF3CF469537952795A795D7
S1130F30F0405395C9F77EF41F16BA0B620B730B7E
S1130F40840BBAF09150A1F0FF0FBB1F661F771FEF
S1130F50881FC2F70EC0BA0F621F731F841F48F4A4
S1130F60879577956795B795F7959E3F08F0B3CF2A
S1130F709395880F08F09927EE0F97958795089514
S1130F80ABD158F080E891E009F49EEFACD128F0A1
S1130F9040E851E059F45EEF09C076C117C2E92F69
S1130FA0E078F2D168F3092E052AC1F32617370732
S1130FB04807590738F00E2E07F8E02569F0E025B8
S1130FC0E0640AC0EF6307F8009407FADB01B90193
S1130FD09D01DC01CA01AD01EF934AD0B3D10AD01F
S1130FE05F91552331F02BED3FE049E450FD49EC8E
S1130FF063CF0895DF93DD27B92FBF7740E85FE320
S11310001616170648075B0710F4D92FE6D19F93ED
S11310108F937F936F93CDD2ECE8F0E038D192D1E7
S11310202F913F914F915F9125D2DD2349F0905844
S1131030A2EA2AED3FE049EC5FE3D0785D274DDF7B
S1131040DF9180C1F7D008F481E0089554D1E3958D
S11310508AC10CD077C147D140F03ED130F021F4A1
S11310605F3F19F00BC15111B2C10EC18DD198F37C
S11310709923C9F35523B1F3951B550BBB27AA2715
S113108062177307840738F09F5F5F4F220F331F87
S1131090441FAA1FA9F333D00E2E3AF0E0E830D053
S11310A091505040E695001CCAF729D0FE2F27D056
S11310B0660F771F881FBB1F261737074807AB0724
S11310C0B0E809F0BB0B802DBF01FF2793585F4F99
S11310D02AF09E3F510568F0D1C079C15F3FECF31F
S11310E0983EDCF3869577956795B795F7959F5F5E
S11310F0C9F7880F911D9695879597F90895E1E0B2
S1131100660F771F881FBB1F621773078407BA0710
S113111020F0621B730B840BBA0BEE1F88F7E0956B
S1131120089504D06894B11152C1089535D188F05E
S11311309F5790F0B92F9927B751A0F0D1F0660FBF
S1131140771F881F991F1AF0BA95C9F712C0B130DA
S113115081F03CD1B1E0089539C1672F782F8827F9
S1131160B85F39F0B93FCCF3869577956795B39519
S1131170D9F73EF490958095709561957F4F8F4F88
S11311809F4F0895E89409C097FB3EF4909580958D
S1131190709561957F4F8F4F9F4F9923A9F0F92F39
S11311A096E9BB279395F695879577956795B795B7
S11311B0F111F8CFFAF4BB0F11F460FF1BC06F5F9D
S11311C07F4F8F4F9F4F16C0882311F096E911C0AF
S11311D0772321F09EE8872F762F05C0662371F0D0
S11311E096E8862F70E060E02AF09A95660F771FE4
S11311F0881FDAF7880F9695879597F90895DF93F6
S1131200CF931F930F938B01EC01E9EBF0E03FD0F8
S113121099D09801AE018B01EC0160E070E080E8A8
S11312209FE349DE88D19801AE010F911F91CF91C0
S1131230DF9120C1990F0008550FAA0BE0E8FEEFDB
S113124016161706E807F907C0F012161306E40786
S1131250F50798F0621B730B840B950B39F40A267F
S113126061F0232B242B252B21F408950A2609F45D
S1131270A140A6958FEF811D811D089597F99F6761
S113128080E870E060E008959FEF80EC0895DF93BC
S1131290CF931F930F93FF92EF92DF927B018C0108
S11312A0689405C0DA2EEF01E5D0FE01E894A5911B
S11312B02591359145915591AEF3EF010EDEFE0176
S11312C09701A801DA9479F7DF90EF90FF900F91DE
S11312D01F91CF91DF91089500240A9416161706E2
S11312E018060906089500240A9412161306140613
S11312F005060895C9CF50D0E8F3E894E0E0BB2791
S11313009F57F0F02AED3FE049EC06C0EE0FBB0F0B
S1131310661F771F881F28F0B23A62077307840795
S113132028F0B25A620B730B840BE3959A9572F70B
S1131330803830F49A95BB0F661F771F881FD2F749
S113134090483CC1092E0394000C11F4882352F0F8
S1131350BB0F40F4BF2B11F460FF04C06F5F7F4FDD
S11313608F4F9F4F0895EF93E0FF06C0A2EA2AED46
S11313703FE049EC5FEBB1DDE5DF0F90039401FC46
S11313809058E1EEF0E02DC157FD9058440F551FE1
S113139059F05F3F71F04795880F97FB991F61F0F3
S11313A09F3F79F087950895121613061406551F6A
S11313B0F2CF4695F1DF08C0161617061806991FD6
S11313C0F1CF86957105610508940895E894BB27CB
S11313D066277727CB0197F908959B01AC0160E05C
S11313E070E080E89FE335CED7DFA8F19E57A8F1DF
S11313F0985160F039F1983070F5092E9927660FED
S1131400771F881F991F0A94D1F71CC0BB27993FE7
S11314104CF4B111B1E0B62B672F782F8827985F71
S1131420B1F708C0869577956795B79508F4B160CC
S11314309395C1F7BB0F30F411F460FF03C06F5FE5
S11314407F4F8F4F3EF490958095709561957F4FB7
S11314508F4F9F4F08956894BACFB8CF0BD072CFF7
S11314603BDF28F040DF18F0952309F007CF0CCFBD
S11314701124ADCF89DFA0F3959FD1F3950F50E0F0
S1131480551F629FF001729FBB27F00DB11D639F32
S1131490AA27F00DB11DAA1F649F6627B00DA11DD8
S11314A0661F829F2227B00DA11D621F739FB00D7E
S11314B0A11D621F839FA00D611D221F749F3327EE
S11314C0A00D611D231F849F600D211D822F762F87
S11314D06A2F11249F5750408AF0E1F088234AF084
S11314E0EE0FFF1FBB1F661F771F881F91505040D0
S11314F0A9F79E3F510570F0C1CE69CF5F3FECF371
S1131500983EDCF3869577956795B795F795E795BB
S11315109F5FC1F7FE2B880F911D9695879597F9CC
S113152008959F93E8DE0F9007FCEE5F1CCF11F443
S11315300EF4AACE41C030DFD0F39923D9F3CEF311
S11315409F57550B87FF46D00024A0E640EA900140
S113155080585695979528F4805C660F771F881FEE
S113156020F026173707480730F4621B730B840BEF
S1131570202931294A2BA695179407942025312533
S11315804A2758F7660F771F881F20F0261737075A
S1131590480730F4620B730B840B200D311D411D81
S11315A0A09581F7B901842F9158880F9695879556
S11315B008959B01AC0152CF9F3F31F0915020F42C
S11315C0879577956795B795880F911D969587951B
S11315D097F9089591505040660F771F881FD2F7EE
S11315E008959F938F937F936F93FF93EF939B0142
S11315F0AC0134DFEF91FF914ADE2F913F914F917F
S10B16005F912CCFF894FFCF99
S10B160852B8B64100000000D5
S903014EAD
