:1000000068C0000085C0000083C0000081C00000FF
:100010007FC000007DC000007BC0000079C00000F0
:1000200077C0000075C0000073C0000071C0000000
:100030006FC000006DC000006BC0000069C0000010
:1000400067C0000065C0000063C0000061C0000020
:100050005FC000005DC000005BC0000059C0000030
:1000600057C0000055C0000053C0000051C0000040
:10007000D3C100004DC000004BC0000049C00000CB
:100080003AC1000045C0000043C00000072C7AA51B
:10009000BA6CC590DA3B9365FC8BBC53F810FD3C01
:1000A0005692834DBD879D3AB63DCBC9BF5BBE73AB
:1000B000DA0FC93F05A84CCDB2D44EB93836A902E3
:1000C0000C50B9918688083CA6AAAA2ABE00000056
:1000D000803F11241FBECFEFD0E4DEBFCDBF11E0C3
:1000E000A0E0B1E0E0EAF1E200E00BBF02C007905F
:1000F0000D92A832B107D9F721E0A8E2B1E001C022
:100100001D92A13CB207E1F70E94620C0C94CE1044
:1001100077CF6F927F928F929F92AF92CF92EF9212
:10012000FF920F931F93CF93DF93ACE7B0E01C9245
:10013000EAE7F0E010829BE7692E712CE301188258
:100140003EE7832E912CE40118823081D0E88D9F08
:10015000C0011124832B8083E40168838C91D0E457
:100160004D9FA0011124482B4C938C9150E2059F88
:1001700080011124082B0C938081282B20838081FF
:1001800090E2E99E70011124E82AE082D3018C916B
:10019000C82ACC928081AA0CAA0CAA0CA82AA082F8
:1001A000DF91CF911F910F91FF90EF90CF90AF9083
:1001B0009F908F907F906F90089590917C00907E9B
:1001C00090937C0090917C00892B80937C0080919F
:1001D0007A00806480937A0080917A0084FFFCCF5B
:1001E00080917A00806180937A00809178002091DC
:1001F000790090E0922B0895AF92CF92EF920F93F7
:10020000E1E6F0E080E88083108211B812B88FEF49
:1002100084B915B880EF87B918B88BEF8AB91BB8C5
:1002200091EA94BD82E085BD16BC17BC18BC9093C2
:1002300080008093810010928500109284001092BB
:100240008700109286001092890010928800109208
:100250008B0010928A001092B6009093B0008093A9
:10026000B1001092B2001092B3001092B40010923C
:1002700090009DE090939100109295001092940050
:1002800010929700109296001092990093E6909326
:10029000980010929B0010929A0010926E0010929B
:1002A0006F001092700080937100A12CC12CE12C82
:1002B00000E027E041E069E081E02BDF60E070E0F2
:1002C00088EA91E40E94880F615071097093CD0013
:1002D0006093CC00E9ECF0E088E18083AAECB0E028
:1002E0008C9186608C938081806880830F91EF90E1
:1002F000CF90AF9008951F920F920FB60F921124D6
:100300008F939F93AF93BF93809175018F5F80937D
:100310007501809174018F5F8093740180917001E9
:1003200090917101A0917201B09173010196A11D8C
:10033000B11D8093700190937101A0937201B093ED
:100340007301BF91AF919F918F910F900FBE0F904E
:100350001F901895CF93DF93E0E4F1E0A4E3B1E0C0
:10036000C8E2D1E04FEF50E013C0803591050CF0AA
:100370004FC0288139818217930709F449C011962B
:100380005C934E931296229681E0EC34F80769F064
:1003900081919191009749F711961C921E921296A5
:1003A000229681E0EC34F80799F780914001909112
:1003B00041019093290180932801809142019091FD
:1003C000430190932B0180932A01809144019091E5
:1003D000450190932D0180932C01809146019091CD
:1003E000470190932F0180932E01809148019091B5
:1003F0004901909331018093300180914A0190919D
:100400004B019093330180933201DF91CF91089596
:1004100011969C938E93B6CF1F920F920FB60F92A8
:1004200011240BB60F922F933F934F935F936F93CB
:100430007F938F939F93AF93BF93EF93FF9380919D
:10044000C80087FFFCCF8091CE008535A1F0479A88
:10045000FF91EF91BF91AF919F918F917F916F919C
:100460005F914F913F912F910F900BBE0F900FBE58
:100470000F901F9018958091C80087FFFCCF809146
:10048000CE00982F9F70963011F09111E0CF4798D1
:10049000807F803509F4CDC010F1803B09F40EC196
:1004A000B8F5803709F4A2C0803889F6EFE8F1E0AA
:1004B00045E951E08091C80087FFFCCF9091CE00C4
:1004C0008091C80087FFFCCF2091CE00892F90E05B
:1004D000922B819391934E175F0761F7B8CF8031CC
:1004E00009F4DEC008F494C0803209F483C080337C
:1004F00009F0ADCFEDE7F1E091918091C80085FF63
:10050000FCCF9093CE0081E0E338F807A9F79FCFA6
:10051000803C91F0803D09F09ACF81E090E02091FD
:100520004C0130914D01232B11F080E090E090932D
:100530004D0180934C018BCF8091C80087FFFCCF89
:100540008091CE0090E09093410180934001809192
:10055000C80087FFFCCF8091CE0090E090934301CC
:10056000809342018091C80087FFFCCF8091CE002C
:1005700090E090934501809344018091C80087FFEB
:10058000FCCF8091CE0090E090934701809346018C
:100590008091C80087FFFCCF8091CE0090E09093BF
:1005A0004901809348018091C80087FFFCCF80916A
:1005B000CE0090E090934B0180934A01CBDE809176
:1005C0003401809388008091360180938A00809165
:1005D000380187BD80913A0188BD80913C018093AC
:1005E000B30080913E018093B40031CF81E08093CD
:1005F00076012DCFE3E8F1E091918091C80085FF6D
:10060000FCCF9093CE0081E0E938F807A9F71FCF1F
:1006100081111DCFEFE8F1E025E931E09191809162
:10062000C80085FFFCCF9093CE002E173F07B1F78F
:100630000ECF20E030E048EC52E4609195017091DB
:10064000960180919701909198010E94C20F0E949B
:10065000280E70934F0160934E0120E030E048EC8B
:1006600052E46091BD017091BE018091BF019091F3
:10067000C0010E94C20F0E94280E70935101609326
:100680005001EEE4F1E024E531E091918091C80061
:1006900085FFFCCF9093CE002E173F07B1F7D7CE42
:1006A000E9E8F1E091918091C80085FFFCCF90933B
:1006B000CE0081E0EF38F807A9F7C9CEE7E7F1E00F
:1006C0004DE751E08091C80087FFFCCF9091CE00AC
:1006D0008091C80087FFFCCF2091CE00892F90E049
:1006E000922B819391934E175F0761F7B0CE2F92B3
:1006F0003F924F925F926F927F928F929F92AF92B2
:10070000BF92CF92DF92EF92FF920F931F93CF93FE
:10071000DF93CDB7DEB7C355D1090FB6F894DEBF6E
:100720000FBECDBF4B015C01CA01B9012D961FAFB1
:100730000EAF2D972CE0ECE1F1E0DE01DD960190AB
:100740000D922A95E1F72FE135E84BE352E40E9440
:10075000550D1B012C01A50194016DED74EA87E58F
:1007600092E40E94540D762E672E2A968FAF2A9718
:1007700064969FAF6497862F962D2A96AFAD2A97E1
:100780006496BFAD64978DA39EA3AFA3B8A7A20143
:1007900091016EEE7CEF88EF91E40E94540D6B01A5
:1007A0007C01CB01D70189A79AA7ABA7BCA7A5015C
:1007B00094016DED74EA87E592EC0E94540D6DA7EB
:1007C0007EA78FA798ABC601D70189AB9AABABAB1D
:1007D000BCABB7FAB094B7F8B0948DAA9EAAAFAAF2
:1007E000B8AEA201910160E070E089E792EC0E944E
:1007F000540D69AF7AAF8BAF9CAFCE01CD962F96DB
:100800009FAF8EAF2F97FE0131961F018E010B5DBA
:100810001F4F6096CFAE60976196DFAE619762968C
:10082000EFAE62976396FFAE63972A965FAC2A9706
:1008300064964FAC64972B961FAE1EAE2B972F96E7
:10084000EEADFFAD2F9781909190A190B1902F9632
:10085000FFAFEEAF2F97C501B4010E9445106B01A9
:100860007C01C501B4010E94BD0D4B015C01272D27
:10087000362D452D542DC701B6010E94C20F2B0104
:100880003C0160962FAD609761963FAD619762968F
:100890004FAD629763965FAD6397C501B4010E9447
:1008A000C20F9B01AC01C301B2010E94540D20E0B4
:1008B00030E048E951E40E94C00DF101608371838A
:1008C0008283938320E030E048E951E4C501B4011C
:1008D0000E94C00DF101648375838683978320E0B5
:1008E00030E048E951E4C701B6010E94C00DF101B2
:1008F00060877187828793872B968EAD9FAD2B97EC
:1009000001962B969FAF8EAF2B979CE0290E311C42
:10091000085F1F4F2B96EEADFFAD2B973397C9F0B5
:10092000F8017080618052804380F4816096FFAF4F
:100930006097F801F5816196FFAF6197F801F68144
:100940006296FFAF6297F801F7816396FFAF6397F6
:1009500076CF8D859E85AF85B8892D96EEADFFAD9E
:100960002D9780839183A283B38389899A89AB89E8
:10097000BC8984839583A683B7838D899E89AF893B
:10098000B88D80879187A287B387898D9A8DAB8D2B
:10099000BC8D84879587A687B7878D8D9E8DAF8DFB
:1009A000B8A1808B918BA28BB38B89A19AA1ABA1AB
:1009B000BCA1848B958BA68BB78B89819A81AB81E7
:1009C000BC81808F918FA28FB38F8D819E81AF81EB
:1009D000B885848F958FA68FB78F89859A85AB85CB
:1009E000BC8580A391A3A2A3B3A3CD5ADF4F0FB6BA
:1009F000F894DEBF0FBECDBFDF91CF911F910F9155
:100A0000FF90EF90DF90CF90BF90AF909F908F902E
:100A10007F906F905F904F903F902F9008952F920E
:100A20003F924F925F926F927F928F929F92AF927E
:100A3000BF92CF92DF92EF92FF920F931F93CF93CB
:100A4000DF93CDB7DEB764970FB6F894DEBF0FBE65
:100A5000CDBF19821A821B821C821D821E821F82B8
:100A6000188619861A861B861C8620916001309193
:100A70006101409162015091630160915C0170914C
:100A80005D0180915E0190915F0109E911E02FDE27
:100A9000CE0101961C014801FE013D96FC8BEB8BBB
:100AA0007C01412C512C320180E7A82E81E0B82E28
:100AB00004E611E06401F6016191719181919191D7
:100AC0006F01F80121913191419151918F010E9463
:100AD000C20F9B01AC01C301B201E7D72B013C015E
:100AE000A016B10641F7F701619371938193919339
:100AF0007F01FCE08F0E911C8B899C89E816F9061A
:100B000031F0F7014080518062807380D1CF8E0137
:100B10000D5E1F4FF10161917191819191911F01C2
:100B20000E9425100E94280E6F3F710511F00CF0F5
:100B30005DC06130FFEF7F070CF45AC077FD5DC0E8
:100B4000F70110826183F2E0EF0EF11C0E151F0514
:100B500009F72D85822F90E0909341018093400109
:100B60008E8590E090934301809342018F8590E0C1
:100B70009093450180934401888990E090934701C8
:100B800080934601898990E09093490180934801C0
:100B90008A8990E090934B0180934A0120938800CA
:100BA0008E8580938A008F8587BD888988BD8989D5
:100BB0008093B3008A898093B40064960FB6F8944A
:100BC000DEBF0FBECDBFDF91CF911F910F91FF9080
:100BD000EF90DF90CF90BF90AF909F908F907F90DD
:100BE0006F905F904F903F902F9008956FEFA8CF38
:100BF0006FEFF70160831182A6CF6195FACF2F9234
:100C00003F924F925F926F927F928F929F92AF929C
:100C1000BF92CF92DF92EF92FF920F931F93CF93E9
:100C2000DF934C011B015B0181E0A81AB1081A1483
:100C30001B047CF58B010150104C000F111F000F9D
:100C4000111F080D191DE401C990D990E990F99080
:100C5000488059806A807B80A3019201C701B60158
:100C60000E94840F181654F4FE013497408251827A
:100C700062827382C882D982EA82FB82C017D1075E
:100C800019F781E0A81AB10804501109A114B104A0
:100C9000D1F620FE22C037FC3DC035942794F101E7
:100CA000EE0FFF1FEE0FFF1FE80DF91D6081718130
:100CB00082819381DF91CF911F910F91FF90EF90EF
:100CC000DF90CF90BF90AF909F908F907F906F906C
:100CD0005F904F903F902F90089537FC1FC0F10117
:100CE000F595E795E150F04CEE0FFF1FEE0FFF1F5B
:100CF000E80DF91D20813181428153816481758124
:100D000086819781D2D620E030E040E05FE30E9408
:100D1000C20FD0CF8FEF281A380ABFCF8FEF281A13
:100D2000380ADDCFEF92FF920F931F93CF93DF939B
:100D3000CDB7DEB7A8970FB6F894DEBF0FBECDBF14
:100D40008E010F5F1F4F7E0185E1E80EF11C83E0ED
:100D500034DABC01990F880B990BADD7F801619378
:100D60007193819391938F0180E027DABC01990FF1
:100D7000880B990BA0D7F801608B718B828B938BBA
:100D800087EA91E60197F1F700C000000E151F05F4
:100D9000F1F665E070E0CE01019631DF609300016D
:100DA00070930101809302019093030165E070E06C
:100DB000C80125DF6093040170930501809306014B
:100DC00090930701A8960FB6F894DEBF0FBECDBF73
:100DD000DF91CF911F910F91FF90EF9008952F9287
:100DE0003F924F925F927F928F929F92AF92BF926B
:100DF000CF92DF92EF92FF920F931F93CF93DF93E7
:100E0000CDB7DEB768970FB6F894DEBF0FBECDBF83
:100E100029873A874B875C876D877E878F87988B7A
:100E20004701580189859A85AB85BC85898B9A8B4A
:100E3000AB8BBC8B2D843E844F845888C801B7018E
:100E40009CD66B017C01C501B4010E9445104B0189
:100E50005C0129893A894B895C89C701B6010E94E6
:100E6000C20F6D8B7E8B8F8B988FA2019101C50174
:100E7000B4010E94C20F9B01AC016D897E898F89EC
:100E8000988D12D6762EAB01BC0149835A836B83B1
:100E90007C8329893A894B895C89C501B4010E9408
:100EA000C20F4B015C01A2019101C701B6010E9472
:100EB000C20F9B01AC01C501B401F7D5E62F462F47
:100EC000572FBC014D835E836F837887272D3A812E
:100ED0004B815C816E2F7E818F81988568960FB6DD
:100EE000F894DEBF0FBECDBFDF91CF911F910F9160
:100EF000FF90EF90DF90CF90BF90AF909F908F903A
:100F00007F905F904F903F902F9008953F924F9227
:100F10005F926F927F928F929F92AF92BF92CF9289
:100F2000DF92EF92FF920F931F93CF93DF93CDB792
:100F3000DEB7A4970FB6F894DEBF0FBECDBFF2DECA
:100F400000E011E020E030E040E85AE3D8016D9184
:100F50007D918D919C910E94C20F25EA3EE448EB61
:100F600050E40E94C20F20E53DE847EA5FE39CD5CC
:100F70004B015C0120E030E040E85AE3F801648175
:100F8000758186819781FED725EA3EE448EB50E4DF
:100F9000F9D720E53DE847EA5FE386D52B013C0120
:100FA00008E011E0D801CD90DD90ED90FC90C501F6
:100FB000B401E3D59B01AC01C701B601E3D720E042
:100FC00030E0A90172D56D8F7E8F8F8F98A3C501F8
:100FD000B4010E9445109B01AC01C701B601D2D7F4
:100FE00020E030E0A90161D569A37AA38BA39CA37B
:100FF000F801C480D580E680F780C301B201BDD579
:101000004B015C01C301B2010E9445102B013C0160
:10101000A5019401C701B601B5D722E538EB46EB2F
:1010200051E443D52D8D3E8D4F8D58A13DD5698B13
:101030007A8B8B8B9C8BA3019201C701B601A2D73F
:1010400020E030E0A90131D529A13AA14BA15CA152
:101050002BD56D8B7E8B8F8B988F29893A894B8905
:101060005C89CA01B9018ED76B017C012D893E894B
:101070004F89588DCA01B90185D79B01AC01C701C1
:10108000B60113D50E944F104B015C01D801189690
:10109000CD90DD90ED90FC901B971C968D919D91CD
:1010A0000D90BC91A02D898F9A8FAB8FBC8FA7011B
:1010B0009601C701B60166D72B013C01A501940139
:1010C000C501B4015FD79B01AC01C301B201EDD4EE
:1010D0002B013C01298D3A8D4B8D5C8DCA01B901E4
:1010E00051D79B01AC01C301B201DED42B013C01FD
:1010F000A7019601C701B601D8D4A501940142D732
:101100009B01AC01C301B2013BD5C0D42B013C0112
:10111000A701960169897A898B899C8933D7A501B2
:1011200094012ED5362EAB01BC0149875A876B87B7
:101130007C87A70196016D897E898F89988D22D73A
:10114000A50194011DD5E62FAB01BC014D875E873B
:101150006F87788B83017201232D3A854B855C85DF
:101160006E2F7E858F8598893ADE29833A834B835B
:101170005C836D837E838F8398872D813E814F8131
:10118000588569A17AA18BA19CA18FD44B015C01E8
:101190000CE511E029813A814B815C816D8D7E8D5A
:1011A0008F8D98A182D424E5E22E21E0F22EF70162
:1011B000208131814281538177D4DC01CB01B05849
:1011C000F80180839183A283B383D70114962D9174
:1011D0003D914D915C911797C501B40165D4F8011B
:1011E0006483758386839783A4960FB6F894DEBFD5
:1011F0000FBECDBFDF91CF911F910F91FF90EF9068
:10120000DF90CF90BF90AF909F908F907F906F9026
:101210005F904F903F9008953F924F925F926F92F0
:101220007F928F929F92AF92BF92CF92DF92EF9276
:10123000FF920F931F93CF93DF93CDB7DEB7A497A1
:101240000FB6F894DEBF0FBECDBF6CDD00E011E03D
:1012500020E030E040E85AE3D8016D917D918D9116
:101260009C9190D625EA3EE448EB50E48BD620E5ED
:101270003DE847EA5FE318D44B015C0120E030E031
:1012800040E85AE3F80164817581868197817AD6B6
:1012900025EA3EE448EB50E475D620E53DE847EA10
:1012A0005FE302D42B013C0108E011E0D801CD90AE
:1012B000DD90ED90FC90C501B4015FD49B01AC01C1
:1012C000C701B6015FD620E030E0A901EED36D8FF3
:1012D0007E8F8F8F98A3C501B401D7D69B01AC0137
:1012E000C701B6014FD620E030E0A901DED369A3E3
:1012F0007AA38BA39CA3F801C480D580E680F780F5
:10130000C301B2013AD44B015C01C301B201BDD6A5
:101310002B013C01A5019401C701B60133D622E59A
:1013200038EB46EB51E4C1D32D8D3E8D4F8D58A146
:10133000BBD3698B7A8B8B8B9C8BA3019201C701EA
:10134000B60120D620E030E0A901AFD329A13AA10F
:101350004BA15CA1A9D36D8B7E8B8F8B988F298934
:101360003A894B895C89CA01B9010CD66B017C01B1
:101370002D893E894F89588DCA01B90103D69B0139
:10138000AC01C701B60191D38AD64B015C01D801EB
:101390001896CD90DD90ED90FC901B971C968D914A
:1013A0009D910D90BC91A02D898F9A8FAB8FBC8F92
:1013B000A7019601C701B601E5D52B013C01A501A6
:1013C0009401C501B401DED59B01AC01C301B2019A
:1013D0006CD32B013C01298D3A8D4B8D5C8DCA015C
:1013E000B901D0D59B01AC01C301B2015DD32B0182
:1013F0003C01A7019601C701B60157D3A50194018D
:10140000C1D59B01AC01C301B201BAD33FD32B01BB
:101410003C01A701960169897A898B899C89B2D59B
:10142000A5019401ADD3362EAB01BC0149875A8783
:101430006B877C87A70196016D897E898F89988D3E
:10144000A1D5A50194019CD3E62FAB01BC014D872A
:101450005E876F87788B83017201232D3A854B85D8
:101460005C856E2F7E858F859889B9DC29833A83C8
:101470004B835C836D837E838F83988704E511E0C3
:101480002D8D3E8D4F8D58A169817A818B819C81F4
:101490000CD3F801608371838283938329A13AA1DD
:1014A0004BA15CA16D817E818F819885FED2D80190
:1014B00014966D937D938D939C931797A4960FB676
:1014C000F894DEBF0FBECDBFDF91CF911F910F917A
:1014D000FF90EF90DF90CF90BF90AF909F908F9054
:1014E0007F906F905F904F903F9008954F925F92E2
:1014F0006F927F928F929F92AF92BF92CF92DF9224
:10150000EF92FF920F931F93CF93DF93CDB7DEB788
:101510006E970FB6F894DEBF0FBECDBF9E8F8D8F36
:101520008B0180915C0190915D01A0915E01B09171
:101530005F01898B9A8BAB8BBC8B6C017D01F7FAB9
:10154000F094F7F8F0948091600190916101A0917E
:101550006201B09163018D8B9E8BAF8BB88F2C0194
:101560003D0177FA709477F87094809168019091BA
:101570006901A0916A01B0916B0189879A87AB8755
:10158000BC8780916C0190916D01A0916E01B0912A
:101590006F018D879E87AF87B88BA7019601C70122
:1015A000B601F0D44B015C01A3019201C301B20169
:1015B000E9D49B01AC01C501B40177D270D56D832C
:1015C0007E838F83988729853A854B855C85CA0100
:1015D000B901D8D44B015C012D853E854F855889D2
:1015E000CA01B901CFD49B01AC01C501B4015DD2E0
:1015F00056D54B015C012D813E814F815885C70135
:10160000B601BED26B017C01A501940169857A8582
:101610008B859C85B5D29B01AC01C701B60144D234
:1016200069837A838B839C832D813E814F8158858A
:10163000C301B201A5D26B017C01A50194016D85A6
:101640007E858F8598899CD29B01AC01C701B6012C
:101650002BD24B015C0129813A814B815C81AD8D9C
:10166000BE8D1C966D917D918D919C911F971DD281
:10167000ED8DFE8D6487758786879787D8011C96C8
:101680002D913D914D915C911F97C501B4010DD2F3
:101690006B017C01F80164877587868797872089AD
:1016A000318942895389C501B401FED16D837E839E
:1016B0008F839887AD8DBE8D1C962D913D914D9158
:1016C0005C911F9714966D917D918D919C911797C8
:1016D00059D42B013C01ED8DFE8D20813181428159
:1016E000538169817A818B819C814CD49B01AC01AF
:1016F000C301B201DAD12B013C01AD8DBE8D5096F4
:101700002D913D914D915C91539769817A818B81A7
:101710009C81CAD1ED8DFE8D208531854285538512
:1017200031D49B01AC01C301B201BFD12B013C01FB
:10173000609395017093960180939701909398011F
:10174000D8012D913D914D915C91C501B4011AD400
:10175000698F7A8F8B8F9C8FF80124813581468128
:101760005781C701B6010ED49B01AC01698D7A8DFA
:101770008B8D9C8D9AD16B017C01D80118962D918F
:101780003D914D915C911B976D817E818F819885F4
:10179000F9D39B01AC01C701B60187D16B017C0174
:1017A0006093BD017093BE018093BF019093C0010F
:1017B00089819A81AB81BC81ED8DFE8D808B918B6F
:1017C000A28BB38BD80150968D929D92AD92BC9214
:1017D000539729893A894B895C89CA01B901D2D3C7
:1017E0004B015C012D893E894F89588DCA01B90191
:1017F000C9D39B01AC01C501B40157D150D428D243
:101800009B0177FD5AC0B901330F880B990B53D256
:1018100026E636E646E65FE3ACD11092640110920C
:101820006501109266011092670187FD35C0A30122
:10183000920169857A858B859C8537D16093680193
:101840007093690180936A0190936B01A7019601DF
:101850006D857E858F85988928D160936C01709302
:101860006D0180936E0190936F016E960FB6F894A0
:10187000DEBF0FBECDBFDF91CF911F910F91FF90C3
:10188000EF90DF90CF90BF90AF909F908F907F9020
:101890006F905F904F9008951092680110926901C7
:1018A00010926A0110926B0110926C0110926D01FE
:1018B00010926E0110926F01D8CF22273327261B7A
:1018C000370BA1CFBF92CF92DF92EF92FF920F938F
:1018D0001F93CF93DF93CDB7DEB7C854D1090FB6AE
:1018E000F894DEBF0FBECDBF0E94FC0010929500A1
:1018F00010929400809171008160809371007894BF
:10190000479A80E090E0A2E8B2E489AB9AABABAB37
:10191000BCAB1DAA1EAA1FAA18AE19AE1AAE1BAEEA
:101920001CAE21961CAE1DAE1EAE1FAE2197259695
:101930001CAE1DAE1EAE1FAE2597898F9A8FAB8F42
:10194000BC8F1D8E1E8E1F8E18A219A21AA21BA25A
:101950001CA21DA21EA21FA218A619A61AA61BA68B
:101960001CA68DEC9CECACECBDE389839A83AB8325
:10197000BC831D821E821F8218868AE097EDA3E237
:10198000BCE389879A87AB87BC871D861E861F8626
:10199000188A198A1A8A1B8A1C8A3EDC8091760171
:1019A000811140C000E010E0C12C80E8D82E89E011
:1019B000E82E85E4F82E90E4B92EA8DA80914C0147
:1019C00090914D01892B09F444C0083E23E0120791
:1019D0007CF40F5F1F4FC0926C01D0926D01E092BA
:1019E0006E01F0926F011BD8083E83E0180789F75B
:1019F000AE014F5F5F4FBE01675E7F4FCE01C19664
:101A000075DD0DD888B18B2588B99FE72AE186E07E
:101A1000915020408040E1F700C0000080917601A5
:101A2000882359F2469A85E08093910080E090E007
:101A3000C85BDF4F0FB6F894DEBF0FBECDBFDF919E
:101A4000CF911F910F91FF90EF90DF90CF90BF90BB
:101A5000089510926401109265011092660110922F
:101A60006701109268011092690110926A01109248
:101A70006B0110926C0110926D0110926E01109228
:101A80006F010E940F0501E010E0BCCF9F939F778C
:101A90004DD10F9000203AF49058A2EA2AED3FE091
:101AA00049E450E413D0E5C15058BB27AA270ED013
:101AB000E0C1A9D130F0AED120F031F49F3F11F454
:101AC0001EF479C10EF4E095E7FB6FC1E92FF3D165
:101AD00080F3BA17620773078407950718F071F44B
:101AE0009EF50BC20EF4E0950B2EBA2FA02D0B0124
:101AF000B90190010C01CA01A0011124FF27591B53
:101B000099F0593F50F4503E68F11A16F040A22F58
:101B1000232F342F4427585FF3CF469537952795C9
:101B2000A795F0405395C9F77EF41F16BA0B620BC8
:101B3000730B840BBAF09150A1F0FF0FBB1F661F0F
:101B4000771F881FC2F70EC0BA0F621F731F841F52
:101B500048F4879577956795B795F7959E3F08F078
:101B6000B3CF9395880F08F09927EE0F9795879537
:101B70000895F7D008F481E0089554D1E3958AC11F
:101B80000CD077C147D140F03ED130F021F45F3F17
:101B900019F00BC15111B2C10EC18DD198F3992327
:101BA000C9F35523B1F3951B550BBB27AA27621721
:101BB0007307840738F09F5F5F4F220F331F441F66
:101BC000AA1FA9F333D00E2E3AF0E0E830D091509E
:101BD0005040E695001CCAF729D0FE2F27D0660F8B
:101BE000771F881FBB1F261737074807AB07B0E8CA
:101BF00009F0BB0B802DBF01FF2793585F4F2AF0E0
:101C00009E3F510568F0D1C079C15F3FECF3983E2B
:101C1000DCF3869577956795B795F7959F5FC9F73C
:101C2000880F911D9695879597F90895E1E0660FC5
:101C3000771F881FBB1F621773078407BA0720F03E
:101C4000621B730B840BBA0BEE1F88F7E0950895A7
:101C500004D06894B11152C1089535D188F09F57CE
:101C600090F0B92F9927B751A0F0D1F0660F771FE8
:101C7000881F991F1AF0BA95C9F712C0B13081F0C8
:101C80003CD1B1E0089539C1672F782F8827B85F1C
:101C900039F0B93FCCF3869577956795B395D9F729
:101CA0003EF490958095709561957F4F8F4F9F4F33
:101CB0000895E89409C097FB3EF49095809570953F
:101CC00061957F4F8F4F9F4F9923A9F0F92F96E988
:101CD000BB279395F695879577956795B795F111FD
:101CE000F8CFFAF4BB0F11F460FF1BC06F5F7F4F9A
:101CF0008F4F9F4F16C0882311F096E911C07723AC
:101D000021F09EE8872F762F05C0662371F096E8B4
:101D1000862F70E060E02AF09A95660F771F881F83
:101D2000DAF7880F9695879597F90895DF93CF9303
:101D30001F930F938B01EC01ECE8F0E03FD099D0BA
:101D40009801AE018B01EC0160E070E080E89FE358
:101D5000ABDEA5D19801AE010F911F91CF91DF911C
:101D60001DC1990F0008550FAA0BE0E8FEEF1616EB
:101D70001706E807F907C0F012161306E407F5077F
:101D800098F0621B730B840B950B39F40A2661F0F3
:101D9000232B242B252B21F408950A2609F4A14096
:101DA000A6958FEF811D811D089597F99F6780E8A3
:101DB00070E060E008959FEF80EC0895DF93CF938B
:101DC0001F930F93FF92EF92DF927B018C01689437
:101DD00005C0DA2EEF01E2D0FE01E894A59125912D
:101DE000359145915591AEF3EF0170DEFE019701FB
:101DF000A801DA9479F7DF90EF90FF900F911F918F
:101E0000CF91DF91089500240A941616170618063C
:101E10000906089500240A941216130614060506EE
:101E20000895C9CF50D0E8F3E894E0E0BB279F576E
:101E3000F0F02AED3FE049EC06C0EE0FBB0F661F45
:101E4000771F881F28F0B23A62077307840728F0CB
:101E5000B25A620B730B840BE3959A9572F7803834
:101E600030F49A95BB0F661F771F881FD2F79048F2
:101E700071C1092E0394000C11F4882352F0BB0F9A
:101E800040F4BF2B11F460FF04C06F5F7F4F8F4F92
:101E90009F4F0895EF93E0FF06C0A2EA2AED3FE0CE
:101EA00049EC5FEB13DEE5DF0F90039401FC9058E3
:101EB000E4EBF0E062C157FD9058440F551F59F014
:101EC0005F3F71F04795880F97FB991F61F09F3F27
:101ED00079F087950895121613061406551FF2CF50
:101EE0004695F1DF08C0161617061806991FF1CFA0
:101EF00086957105610508940895E894BB276627C7
:101F00007727CB0197F908952CDF08F48FEF089518
:101F1000DADFA8F19E57A8F1985160F039F19830B6
:101F200070F5092E9927660F771F881F991F0A944D
:101F3000D1F71CC0BB27993F4CF4B111B1E0B62BCF
:101F4000672F782F8827985FB1F708C08695779517
:101F50006795B79508F4B1609395C1F7BB0F30F45E
:101F600011F460FF03C06F5F7F4F8F4F3EF4909579
:101F70008095709561957F4F8F4F9F4F089568941E
:101F8000BDCFBBCF0BD075CF3EDF28F043DF18F0BD
:101F9000952309F00ACF0FCF1124B0CF8CDFA0F327
:101FA000959FD1F3950F50E0551F629FF001729FEE
:101FB000BB27F00DB11D639FAA27F00DB11DAA1F0D
:101FC000649F6627B00DA11D661F829F2227B00D5A
:101FD000A11D621F739FB00DA11D621F839FA00DE5
:101FE000611D221F749F3327A00D611D231F849F35
:101FF000600D211D822F762F6A2F11249F5750408C
:102000008AF0E1F088234AF0EE0FFF1FBB1F661F26
:10201000771F881F91505040A9F79E3F510570F0DF
:10202000C4CE6CCF5F3FECF3983EDCF3869577959A
:102030006795B795F795E7959F5FC1F7FE2B880FDA
:10204000911D9695879597F908953DDFE0F09E37AD
:10205000D8F09639B8F49E3848F4672F782F88273F
:10206000985FF9CF86957795679593959539D0F3D5
:10207000B62FB1706B0F711D811D20F48795779578
:10208000679593954AC064C039CF9F93CBDE0F907C
:1020900007FCEE5FFFCE11F40EF48DCE59C013DFB6
:1020A000D0F39923D9F3CEF39F57550B87FF5ED01A
:1020B0000024A0E640EA900180585695979528F4B0
:1020C000805C660F771F881F20F0261737074807A8
:1020D00030F4621B730B840B202931294A2BA695FF
:1020E00017940794202531254A2758F7660F771F44
:1020F000881F20F026173707480730F4620B730B50
:10210000840B200D311D411DA09581F7B901842F4D
:102110009158880F969587950895882371F47723B1
:1021200021F09850872B762F07C0662311F499274A
:102130000DC09051862B70E060E02AF09A95660FF2
:10214000771F881FDAF7880F9695879597F9089576
:102150009F3F31F0915020F4879577956795B7951B
:10216000880F911D9695879597F908959150504045
:10217000660F771F881FD2F708959F938F937F93E1
:102180006F93FF93EF939B01AC01FCDEEF91FF9106
:1021900015DE2F913F914F915F91F4CEF894FFCFD0
:1021A000814D36444D74D1430000C8410000C84100
:1021B000000020420000204252B8B641A60A86BF65
:0821C000A60A863F560E4940B5
:040000050080017600
:00000001FF
