:100000007FC000009CC000009AC0000098C00000A3
:1000100096C0000094C0000092C0000090C0000094
:100020008EC000008CC000008AC0000088C00000A4
:1000300086C0000084C0000082C0000080C00000B4
:100040007EC000007CC000007AC0000078C00000C4
:1000500076C0000074C0000072C0000070C00000D4
:100060006EC000006CC000006AC0000068C00000E4
:1000700059C1000064C0000062C0000060C0000000
:1000800091C200005CC000005AC00000084AD73B83
:100090003BCE016E84BCBFFDC12F3D6C74319ABD57
:1000A00056833DDA3D00C77F11BED9E4BB4C3E917B
:1000B0006BAAAABE000000803F072C7AA5BA6CC5C7
:1000C00090DA3B9365FC8BBC53F810FD3C56928351
:1000D0004DBD879D3AB63DCBC9BF5BBE73DA0FC934
:1000E0003F05A84CCDB2D44EB93836A9020C50B950
:1000F000918688083CA6AAAA2ABE000000803F007C
:1001000011241FBECFEFD0E4DEBFCDBF11E0A0E0D1
:10011000B1E0E2EEFCE100E00BBF02C007900D92FF
:10012000A432B107D9F721E0A4E2B1E001C01D92E9
:10013000A53DB207E1F70E94E8090C946F0E60CF6D
:100140006F927F928F929F92AF92CF92EF92FF9297
:100150000F931F93CF93DF93ACE7B0E01C92EAE7D5
:10016000F0E010829BE7692E712CE30118823EE7D4
:10017000832E912CE40118823081D0E88D9FC0013C
:100180001124832B8083E40168838C91D0E44D9FFC
:10019000A0011124482B4C938C9150E2059F8001C3
:1001A0001124082B0C938081282B2083808190E2DE
:1001B000E99E70011124E82AE082D3018C91C82ABB
:1001C000CC928081AA0CAA0CAA0CA82AA082DF914A
:1001D000CF911F910F91FF90EF90CF90AF909F9094
:1001E0008F907F906F90089590917C00907E909377
:1001F0007C0090917C00892B80937C0080917A0018
:10020000806480937A0080917A0084FFFCCF809193
:100210007A00806180937A00809178002091790043
:1002200090E0922B0895AF92CF92EF920F93E1E678
:10023000F0E080E88083108211B812B88FEF84B9A3
:1002400015B880EF87B918B88BEF8AB91BB891EA57
:1002500094BD82E085BD16BC17BC18BC909380008D
:100260008093810010928500109284001092870084
:1002700010928600109289001092880010928B00D4
:1002800010928A001092B6009093B0008093B10053
:100290001092B2001092B3001092B400109290002D
:1002A0009DE090939100109295001092940010920E
:1002B0009700109296001092990093E69093980000
:1002C00010929B0010929A0010926E0010926F0094
:1002D0001092700080937100A12CC12CE12C00E0E1
:1002E00027E041E069E081E02BDF60E070E088EA30
:1002F00091E40E94260D615071097093CD006093C6
:10030000CC00E9ECF0E088E18083AAECB0E08C91CD
:1003100086608C938081806880830F91EF90CF906E
:10032000AF9008951F920F920FB60F9211240BB643
:100330000F922F933F934F935F936F937F938F937E
:100340009F93AF93BF93EF93FF938091C80087FF74
:10035000FCCF8091CE008535A1F0479AFF91EF91B7
:10036000BF91AF919F918F917F916F915F914F91CD
:100370003F912F910F900BBE0F900FBE0F901F90CB
:1003800018958091C80087FFFCCF8091CE00982FF0
:100390009F70963011F09111E0CF4798807F8035A3
:1003A00009F4A2C010F1803B09F4E3C0B8F580372E
:1003B00009F477C0803889F6E3E8F1E049E851E0D4
:1003C0008091C80087FFFCCF9091CE008091C8003B
:1003D00087FFFCCF2091CE00892F90E0922B819354
:1003E00091934E175F0761F7B8CF803109F4B3C01E
:1003F00008F469C0803209F458C0803309F0ADCFE9
:10040000E1E7F1E091918091C80085FFFCCF9093E6
:10041000CE0081E0E737F807A9F79FCF803C91F045
:10042000803D09F09ACF81E090E020913401309135
:100430003501232B11F080E090E0909335018093FB
:1004400034018BCF8091C80087FFFCCF8091CE0014
:10045000809388008091C80087FFFCCF8091CE00F8
:1004600080938A008091C80087FFFCCF8091CE00E6
:1004700087BD8091C80087FFFCCF8091CE0088BDEA
:100480008091C80087FFFCCF8091CE008093B3009D
:100490008091C80087FFFCCF8091CE008093B4008C
:1004A0005CCF81E080936A0158CFE7E7F1E091915A
:1004B0008091C80085FFFCCF9093CE0081E0ED379E
:1004C000F807A9F74ACF811148CFE3E8F1E029E81E
:1004D00031E091918091C80085FFFCCF9093CE00D0
:1004E0002E173F07B1F739CF20E030E048EC52E457
:1004F000609148017091490180914A0190914B01AE
:100500000E94600D0E94BF0B70933701609336010B
:1005100020E030E048EC52E460914C0170914D01D4
:1005200080914E0190914F010E94600D0E94BF0B7F
:100530007093390160933801E6E3F1E02CE331E098
:1005400091918091C80085FFFCCF9093CE002E172B
:100550003F07B1F702CFEDE7F1E091918091C8003C
:1005600085FFFCCF9093CE0081E0E338F807A9F730
:10057000F4CEEBE6F1E041E751E08091C80087FF5F
:10058000FCCF9091CE008091C80087FFFCCF2091D6
:10059000CE00892F90E0922B819391934E175F07A5
:1005A00061F7DBCE1F920F920FB60F9211248F933B
:1005B0009F93AF93BF93809169018F5F809369018F
:1005C000809168018F5F80936801809124019091F0
:1005D0002501A0912601B09127010196A11DB11D11
:1005E0008093240190932501A0932601B0932701C5
:1005F000BF91AF919F918F910F900FBE0F901F9061
:1006000018952F923F924F925F926F927F928F92A6
:100610009F92AF92BF92CF92DF92EF92FF920F9391
:100620001F93CF93DF934C011B015B0181E0A81A5C
:10063000B1081A141B047CF58B010150104C000FFB
:10064000111F000F111F080D191DE401C990D99049
:10065000E990F990488059806A807B80A3019201DB
:10066000C701B6010E941B0D181654F4FE01349701
:100670004082518262827382C882D982EA82FB827E
:10068000C017D10719F781E0A81AB1080450110961
:10069000A114B104D1F620FE22C037FC3DC0359430
:1006A0002794F101EE0FFF1FEE0FFF1FE80DF91D5C
:1006B0006081718182819381DF91CF911F910F9130
:1006C000FF90EF90DF90CF90BF90AF909F908F9072
:1006D0007F906F905F904F903F902F90089537FCE0
:1006E0001FC0F101F595E795E150F04CEE0FFF1FAB
:1006F000EE0FFF1FE80DF91D2081318142815381EA
:10070000648175818681978105D720E030E040E0E3
:100710005FE30E94600DD0CF8FEF281A380ABFCF59
:100720008FEF281A380ADDCFCF93DF93C9E8D1E0E5
:1007300080E05ADDBC01990F880B990B0E94F20BE7
:10074000699379938993999383E04EDDBC01990F66
:10075000880B990B0E94F20B688B798B8A8B9B8B91
:100760008FE493EC0197F1F700C0000091E0CD39E0
:10077000D907F1F665E070E089E891E042DFFFD744
:1007800070933D0160933C0165E070E08DE991E07C
:1007900038DFF5D770933F0160933E01DF91CF9131
:1007A00008954F925F926F927F928F929F92AF9235
:1007B000BF92CF92DF92EF92FF92CF93DF93CDB7AC
:1007C000DEB72A970FB6F894DEBF0FBECDBF9A876B
:1007D00089874A015B01DC018D919D910D90BC914F
:1007E000A02D89839A83AB83BC83CB01BA015CD7EC
:1007F0006B017C01E985FA854480558066807780AD
:10080000C501B4010E94E30D4B015C01A7019601F3
:1008100069817A818B819C810E94600D6D837E83CA
:100820008F839887A5019401C301B2010E94600DD6
:100830009B01AC016D817E818F8198856AD6A985E7
:10084000BA856D937D938D939C931397A501940125
:1008500069817A818B819C810E94600D4B015C01D2
:10086000A3019201C701B6010E94600D9B01AC017A
:10087000C501B4014FD6E985FA8564837583868303
:1008800097832A960FB6F894DEBF0FBECDBFDF91D7
:10089000CF91FF90EF90DF90CF90BF90AF909F905F
:1008A0008F907F906F905F904F9008952F923F921E
:1008B0004F925F926F927F928F929F92AF92BF9270
:1008C000CF92DF92EF92FF920F931F93CF93DF931C
:1008D000CDB7DEB72C970FB6F894DEBF0FBECDBFF5
:1008E00023DF0CE311E0D8016D917C91072E000C01
:1008F000880B990B77D720E030E040E85AE30E945C
:10090000600D2CEE31E548EB50E40E94600D26E6C8
:1009100036E646EA5FE3FDD54B015C01F8016281F2
:100920007381072E000C880B990B5CD720E030E018
:1009300040E85AE30E94600D2CEE31E548EB50E4AC
:100940000E94600D28E03CEA4CEB5FE3E2D56B01CE
:100950007C01C501B401A8D620E6222E21E0322E6A
:1009600020E030E048EC51E40E94600DD1012D916F
:100970003D914D915C91CED52B013C0108E511E0F4
:10098000F8016083718382839383C501B4010E945F
:10099000E30D20E030E048EC51E40E94600DD1010D
:1009A00014962D913D914D915C911797B3D5698720
:1009B0007A878B879C87F801648375838683978306
:1009C000C701B60171D63CE1232E31E0332E20E081
:1009D00030E048EC51E40E94600DD1012D913D9131
:1009E0004D915C9197D54B015C01E0E5F1E06083AE
:1009F000718382839383C701B6010E94E30D20E0D7
:100A000030E048EC51E40E94600DD10114962D9124
:100A10003D914D915C9117977DD56B017C01609361
:100A20005401709355018093560190935701A3018F
:100A30009201C501B4016DD52B013C0129853A8590
:100A40004B855C85C701B60164D54B015C01A301F0
:100A50009201C301B2010E94600D6B017C01A501EE
:100A60009401C501B4010E94600D9B01AC01C70156
:100A7000B60150D50E94ED0D6B017C019B01AC01CC
:100A80000E94600D20E030E048EC54E443D520E0C3
:100A900030E048EC54E43DD569877A878B879C87A2
:100AA00020E030E040EA52E4C701B6010E94600D48
:100AB0009B01AC0169857A858B859C85F8D51BD512
:100AC00069877A878B879C8720E030E040E252E498
:100AD000C301B201F5D7A7019601E9D569837A83ED
:100AE0008B839C8320E030E040E252E4C501B401F6
:100AF000E7D7A7019601DBD56D837E838F83988727
:100B000049855A856B857C85CE0101964ADE2D810B
:100B10003E814F815885F801648175818681978176
:100B2000F9D44B015C0148E4E42E41E0F42E298124
:100B30003A814B815C81D8016D917D918D919C9121
:100B4000E9D400E411E0F801208131814281538130
:100B5000E0D4D7016D937D938D939C931397F80107
:100B60002481358146815781C501B401D2D4D70192
:100B700014966D937D938D939C9317972C960FB637
:100B8000F894DEBF0FBECDBFDF91CF911F910F91C3
:100B9000FF90EF90DF90CF90BF90AF909F908F909D
:100BA0007F906F905F904F903F902F9008952F927D
:100BB0003F924F925F927F928F929F92AF92BF929D
:100BC000CF92DF92EF92FF920F931F93CF93DF9319
:100BD000CDB7DEB768970FB6F894DEBF0FBECDBFB6
:100BE00029873A874B875C876D877E878F87988BAD
:100BF0004701580189859A85AB85BC85898B9A8B7D
:100C0000AB8BBC8B2D843E844F845888C801B701C0
:100C10004BD56B017C01C501B401D5D74B015C01FB
:100C200029893A894B895C89C701B60149D76D8BFF
:100C30007E8B8F8B988FA2019101C501B40140D7A3
:100C40009B01AC016D897E898F89988D62D4762E47
:100C5000AB01BC0149835A836B837C8329893A8920
:100C60004B895C89C501B4012BD74B015C01A20102
:100C70009101C701B60124D79B01AC01C501B401A4
:100C800049D4E62F462F572FBC014D835E836F83D7
:100C90007887272D3A814B815C816E2F7E818F81F1
:100CA000988568960FB6F894DEBF0FBECDBFDF9172
:100CB000CF911F910F91FF90EF90DF90CF90BF9059
:100CC000AF909F908F907F905F904F903F902F902C
:100CD00008952F923F924F925F926F927F928F92E0
:100CE0009F92AF92BF92CF92DF92EF92FF920F93BB
:100CF0001F93CF93DF93CDB7DEB7CD54D1090FB695
:100D0000F894DEBF0FBECDBF6B017C01CA01B901F3
:100D100025961FAF0EAF25972FE135E84BE352E440
:100D2000F9D31B012C0180900C0190900D01A09033
:100D30000E01B0900F0120E030E040E05FE3C5011C
:100D4000B401BED6A7019601E4D36FAF2C967FAF56
:100D50002C972D968FAF2D972E969FAF2E97CB0168
:100D60002D96AFAD2D972E96BFAD2E978DA39EA33A
:100D7000AFA3B8A7A2019101609108017091090188
:100D800080910A0190910B01C4D33B018C01CB01EE
:100D9000D80189A79AA7ABA7BCA7C501B4019058F1
:100DA00020E030E040E05FE38BD6A7019601B1D3AD
:100DB0006DA77EA78FA798ABC301D80189AB9AAB6B
:100DC000ABABBCABF7FAF094F7F8F094CDAADEAA7F
:100DD000EFAAF8AE8091040190910501A09106015F
:100DE000B0910701BC01CD019058A201910191D3AE
:100DF00069AF7AAF8BAF9CAFC0900001D09001017A
:100E0000E0900201F090030180E191E027969FAF0E
:100E10008EAF2797FE013196FEAFEDAF1E01F5E2D2
:100E20002F0E311C28966FAE289729967FAE2997F2
:100E30002A960FAF2A972B961FAF2B974FAC2C9665
:100E40005FAC2C972D967FAC2D972E966FAC2E977E
:100E500000E010E02796EEADFFAD279781909190CE
:100E6000A190B1902796FFAFEEAF2797C501B401CF
:100E7000AAD623966CAF7DAF8EAF9FAF2397C501E7
:100E8000B40112D44B015C019201472D562D2396DB
:100E90006CAD7DAD8EAD9FAD239712D62B013C017D
:100EA00028962FAD289729963FAD29972A964FADC2
:100EB0002A972B965FAD2B97C501B40101D69B01F4
:100EC000AC01C301B20125D3A7019601F0D3EDAD6A
:100ED000FEAD6083718382839383A7019601C50170
:100EE000B401E5D3EDADFEAD64837583868397834E
:100EF000A701960123966CAD7DAD8EAD9FAD239776
:100F0000D6D3EDADFEAD60877187828793870F5F83
:100F10001F4F3C96FEAFEDAFF8E02F0E311C0330B3
:100F20001105C9F0F1014080518072806380F48125
:100F30002896FFAF2897F101F5812996FFAF2997F1
:100F4000F101F6812A96FFAF2A97F101F7812B96DE
:100F5000FFAF2B977FCF8D859E85AF85B88925966E
:100F6000EEADFFAD259780839183A283B3838989FA
:100F70009A89AB89BC8984839583A683B7838D893D
:100F80009E89AF89B88D80879187A287B387898D25
:100F90009A8DAB8DBC8D84879587A687B7878D8DFD
:100FA0009E8DAF8DB8A1808B918BA28BB38B89A1C5
:100FB0009AA1ABA1BCA1848B958BA68BB78B8981A1
:100FC0009A81AB81BC81808F918FA28FB38F8D81ED
:100FD0009E81AF81B885848F958FA68FB78F8985C5
:100FE0009A85AB85BC8580A391A3A2A3B3A3C35B61
:100FF000DF4F0FB6F894DEBF0FBECDBFDF91CF91AC
:101000001F910F91FF90EF90DF90CF90BF90AF9026
:101010009F908F907F906F905F904F903F902F9018
:1010200008952F923F924F925F926F927F928F928C
:101030009F92AF92BF92CF92DF92EF92FF920F9367
:101040001F93CF93DF93CDB7DEB764970FB6F894B5
:10105000DEBF0FBECDBF19821A821B821C821D8289
:101060001E821F82188619861A861B861C8620916E
:101070004C0130914D0140914E0150914F016091D2
:1010800048017091490180914A0190914B0101EB17
:1010900011E01FDECE0101961C014801FE013D96C4
:1010A000FC8BEB8B7C01412C512C320184E3A82E6C
:1010B00081E0B82E08E211E06401F60161917191BE
:1010C000819191916F01F80121913191419151915B
:1010D0008F01F6D420E030E048EC52E4F1D49B01DB
:1010E000AC01C301B20116D22B013C01A016B1061E
:1010F00021F7F70161937193819391937F01FCE054
:101100008F0E911C8B899C89E816F90631F0F70146
:101110004080518062807380CDCF8E010D5E1F4F65
:10112000F10161917191819191911F012CD527D38A
:101130006F3F710509F0C4F56130FFEF7F07B4F12F
:1011400077FD39C0F70110826183F2E0EF0EF11CE8
:101150000E151F0529F78E8580938A008D85809353
:1011600088008F8587BD888988BD89898093B30071
:101170008A898093B40064960FB6F894DEBF0FBEE0
:10118000CDBFDF91CF911F910F91FF90EF90DF9036
:10119000CF90BF90AF909F908F907F906F905F9017
:1011A0004F903F902F9008956FEFCCCF6FEFF701E6
:1011B00060831182CACF6195FACF4F925F926F928E
:1011C0007F928F929F92AF92BF92CF92DF92EF92D7
:1011D000FF920F931F93CF93DF93CDB7DEB7649742
:1011E0000FB6F894DEBF0FBECDBF8C014090480112
:1011F0005090490160904A0170904B0153014201A7
:10120000B7FAB094B7F8B094C0904C01D0904D01AB
:10121000E0904E01F0904F01D701C601B058898B84
:101220009A8BAB8BBC8B20E030E0A901C501B401E7
:1012300037D281110BC020E030E0A90169897A8999
:101240008B899C892DD2882309F4BEC020E030E030
:10125000A901C501B40134D4A70196015AD16B018B
:101260007C0120E030E0A90169897A898B899C8919
:1012700027D4A30192014ED1A7019601BED19B01B3
:10128000AC0160E070E0CB0144D16B017C01D8017E
:101290001C962D913D914D915C911F97C701B60110
:1012A00039D14B015C01F801648775878687978780
:1012B0002081318142815381C701B60101D42B01C4
:1012C0003C01D80114962D913D914D915C91179759
:1012D000C501B401F5D39B01AC01C301B2011AD120
:1012E0004B015C01F8012089318942895389C7018A
:1012F000B6010FD1D80118962D913D914D915C9179
:101300001B97DED39B01AC01C501B40103D1F801E9
:10131000C08AD18AE28AF38A19861A861B861C86BD
:1013200000E010E020E83FE30D871E872F87388B11
:101330007B018C0120E03A854B855C8560E07E85F1
:101340008F85988934DC29833A834B835C836D8352
:101350007E838F83988720E030E04CE052E46981FF
:101360007A818B819C81ACD360932C0170932D0189
:1013700080932E0190932F0120E030E04CE052E466
:101380006D817E818F8198859BD3609330017093AE
:101390003101809332019093330164960FB6F89433
:1013A000DEBF0FBECDBFDF91CF911F910F91FF9098
:1013B000EF90DF90CF90BF90AF909F908F907F90F5
:1013C0006F905F904F900895C12CD12C76015FCF24
:1013D0000F931F93CF93DF93CDB7DEB768970FB608
:1013E000F894DEBF0FBECDBF0E941301109295008E
:1013F00010929400809171008160809371007894C4
:10140000479A80E090E0A0EAB1E489839A83AB83B5
:10141000BC831D821E821F82188619861A861B862F
:101420001C861D861E861F86188A198A1A8A1B8AA0
:101430001C8A83E393E3ABE1B1E480934001909392
:101440004101A0934201B093430186E696E6A8E4E9
:10145000B2E48093440190934501A0934601B09378
:1014600047010CED15E010923001109231011092FD
:10147000320110923301D5DD01501109A1F710920C
:101480003001109231011092320110923301C9DD06
:1014900080916A0181111EC010E410C088B18127BB
:1014A00088B92FE78AE196E0215080409040E1F72B
:1014B00000C0000080916A0181110CC0F7D98091B1
:1014C000340190913501892B49F3CE01019675DEE7
:1014D000A8DDE4CF469A85E08093910080E090E01B
:1014E00068960FB6F894DEBF0FBECDBFDF91CF91E7
:1014F0001F910F9108959F939F77AFD10F90002078
:101500003AF49058A2EA2AED3FE049E450E413D0BF
:1015100047C25058BB27AA270ED042C20BD230F088
:1015200010D220F031F49F3F11F41EF4DBC10EF411
:10153000E095E7FBD1C1E92F55D280F3BA176207D6
:1015400073078407950718F071F49EF56DC20EF4C9
:10155000E0950B2EBA2FA02D0B01B90190010C01C3
:10156000CA01A0011124FF27591B99F0593F50F4DB
:10157000503E68F11A16F040A22F232F342F442733
:10158000585FF3CF469537952795A795F04053952B
:10159000C9F77EF41F16BA0B620B730B840BBAF0FB
:1015A0009150A1F0FF0FBB1F661F771F881FC2F766
:1015B0000EC0BA0F621F731F841F48F4879577957A
:1015C0006795B795F7959E3F08F0B3CF9395880F31
:1015D00008F09927EE0F979587950895ABD158F0AD
:1015E00080E891E009F49EEFACD128F040E851E0AA
:1015F00059F45EEF09C076C117C2E92FE078F2D145
:1016000068F3092E052AC1F326173707480759073B
:1016100038F00E2E07F8E02569F0E025E0640AC0F6
:10162000EF6307F8009407FADB01B9019D01DC01C3
:10163000CA01AD01EF934AD0B3D10AD05F915523CF
:1016400031F02BED3FE049E450FD49EC63CF0895C4
:10165000DF93DD27B92FBF7740E85FE31616170643
:1016600048075B0710F4D92FEAD19F938F937F939C
:101670006F93F1D2ECE8F0E038D192D12F913F9105
:101680004F915F9129D2DD2349F09058A2EA2AEDCB
:101690003FE049EC5FE3D0785D274DDFDF9180C10B
:1016A000F7D008F481E0089554D1E3958AC10CD0B5
:1016B00077C147D140F03ED130F021F45F3F19F0BF
:1016C0000BC15111B2C10EC18DD198F39923C9F349
:1016D0005523B1F3951B550BBB27AA276217730738
:1016E000840738F09F5F5F4F220F331F441FAA1FEC
:1016F000A9F333D00E2E3AF0E0E830D091505040AC
:10170000E695001CCAF729D0FE2F27D0660F771F59
:10171000881FBB1F261737074807AB07B0E809F03B
:10172000BB0B802DBF01FF2793585F4F2AF09E3FD0
:10173000510568F0D1C079C15F3FECF3983EDCF30E
:10174000869577956795B795F7959F5FC9F7880F49
:10175000911D9695879597F90895E1E0660F771F9B
:10176000881FBB1F621773078407BA0720F0621B2C
:10177000730B840BBA0BEE1F88F7E095089504D025
:101780006894B11152C1089535D188F09F5790F0F7
:10179000B92F9927B751A0F0D1F0660F771F881F96
:1017A000991F1AF0BA95C9F712C0B13081F03CD137
:1017B000B1E0089539C1672F782F8827B85F39F0D5
:1017C000B93FCCF3869577956795B395D9F73EF4F5
:1017D00090958095709561957F4F8F4F9F4F08959D
:1017E000E89409C097FB3EF49095809570956195BB
:1017F0007F4F8F4F9F4F9923A9F0F92F96E9BB2771
:101800009395F695879577956795B795F111F8CFEC
:10181000FAF4BB0F11F460FF1BC06F5F7F4F8F4F57
:101820009F4F16C0882311F096E911C0772321F04D
:101830009EE8872F762F05C0662371F096E8862FE5
:1018400070E060E02AF09A95660F771F881FDAF73C
:10185000880F9695879597F90895DF93CF931F93F7
:101860000F938B01EC01E9EBF0E03FD099D09801A8
:10187000AE018B01EC0160E070E080E89FE349DE9F
:10188000ACD19801AE010F911F91CF91DF9124C18E
:10189000990F0008550FAA0BE0E8FEEF1616170681
:1018A000E807F907C0F012161306E407F50798F0E9
:1018B000621B730B840B950B39F40A2661F0232B02
:1018C000242B252B21F408950A2609F4A140A6957E
:1018D0008FEF811D811D089597F99F6780E870E063
:1018E00060E008959FEF80EC0895DF93CF931F93FE
:1018F0000F93FF92EF92DF927B018C01689405C0F9
:10190000DA2EEF01E9D0FE01E894A59125913591F9
:1019100045915591AEF3EF010EDEFE019701A8014E
:10192000DA9479F7DF90EF90FF900F911F91CF91AC
:10193000DF91089500240A94161617061806090662
:10194000089500240A941216130614060506089535
:10195000C9CF50D0E8F3E894E0E0BB279F57F0F000
:101960002AED3FE049EC06C0EE0FBB0F661F771F64
:10197000881F28F0B23A62077307840728F0B25A2A
:10198000620B730B840BE3959A9572F7803830F4F1
:101990009A95BB0F661F771F881FD2F790487BC1AF
:1019A000092E0394000C11F4882352F0BB0F40F46D
:1019B000BF2B11F460FF04C06F5F7F4F8F4F9F4FAD
:1019C0000895EF93E0FF06C0A2EA2AED3FE049EC5C
:1019D0005FEBB1DDE5DF0F90039401FC9058E1EE81
:1019E000F0E06CC157FD9058440F551F59F05F3F10
:1019F00071F04795880F97FB991F61F09F3F79F031
:101A000087950895121613061406551FF2CF4695B2
:101A1000F1DF08C0161617061806991FF1CF869534
:101A20007105610508940895E894BB276627772718
:101A3000CB0197F908952CDF08F48FEF08959B01EF
:101A4000AC0160E070E080E89FE331CED3DFA8F125
:101A50009E57A8F1985160F039F1983070F5092E31
:101A60009927660F771F881F991F0A94D1F71CC00A
:101A7000BB27993F4CF4B111B1E0B62B672F782FFB
:101A80008827985FB1F708C0869577956795B795D1
:101A900008F4B1609395C1F7BB0F30F411F460FF07
:101AA00003C06F5F7F4F8F4F3EF490958095709588
:101AB00061957F4F8F4F9F4F08956894B6CFB4CFF5
:101AC0000BD06ECF37DF28F03CDF18F0952309F0FC
:101AD00003CF08CF1124A9CF85DFA0F3959FD1F3C1
:101AE000950F50E0551F629FF001729FBB27F00DCC
:101AF000B11D639FAA27F00DB11DAA1F649F662721
:101B0000B00DA11D661F829F2227B00DA11D621F6F
:101B1000739FB00DA11D621F839FA00D611D221F29
:101B2000749F3327A00D611D231F849F600D211D0D
:101B3000822F762F6A2F11249F5750408AF0E1F0B0
:101B400088234AF0EE0FFF1FBB1F661F771F881FF9
:101B500091505040A9F79E3F510570F0BDCE65CF22
:101B60005F3FECF3983EDCF3869577956795B795E4
:101B7000F795E7959F5FC1F7FE2B880F911D96950E
:101B8000879597F9089536DFE0F09E37D8F09639BB
:101B9000B8F49E3848F4672F782F8827985FF9CFDC
:101BA00086957795679593959539D0F3B62FB17053
:101BB0006B0F711D811D20F487957795679593951F
:101BC0004DC067C032CF9F93C4DE0F9007FCEE5F1D
:101BD000F8CE11F40EF486CE5CC00CDFD0F399235E
:101BE000D9F3CEF39F57550B87FF61D00024A0E6B1
:101BF00040EA900180585695979528F4805C660FCE
:101C0000771F881F20F026173707480730F4621B1C
:101C1000730B840B202931294A2BA695179407941E
:101C2000202531254A2758F7660F771F881F20F097
:101C300026173707480730F4620B730B840B200D0F
:101C4000311D411DA09581F7B901842F9158880F4E
:101C50009695879508959B01AC0132CF882371F446
:101C6000772321F09850872B762F07C0662311F435
:101C700099270DC09051862B70E060E02AF09A956C
:101C8000660F771F881FDAF7880F9695879597F963
:101C900008959F3F31F0915020F48795779567958F
:101CA000B795880F911D9695879597F9089591504E
:101CB0005040660F771F881FD2F708959F938F9328
:101CC0007F936F93FF93EF939B01AC01F9DEEF914C
:101CD000FF910BDE2F913F914F915F91F1CEF894E0
:021CE000FFCF34
:101CE20000009841000079423D0AF9412CA5D742F3
:101CF200A60A86BFA60A863F560E494052B8B6418A
:041D020000000000DD
:040000050080016A0C
:00000001FF
