:1000000068C0000084C0000082C0000080C0000002
:100010007EC000007CC000007AC0000078C00000F4
:1000200076C0000074C0000072C0000070C0000004
:100030006EC000006CC000006AC0000068C0000014
:1000400066C0000064C0000062C0000060C0000024
:100050005EC000005CC000005AC0000058C0000034
:1000600056C0000054C0000052C0000050C0000044
:10007000DBC000004CC000004AC0000048C00000C7
:1000800046C0000044C0000042C00000072C7AA512
:10009000BA6CC590DA3B9365FC8BBC53F810FD3C01
:1000A0005692834DBD879D3AB63DCBC9BF5BBE73AB
:1000B000DA0FC93F05A84CCDB2D44EB93836A902E3
:1000C0000C50B9918688083CA6AAAA2ABE00000056
:1000D000803F11241FBECFEFD0E4DEBFCDBF11E0C3
:1000E000A0E0B1E0EAE1F4E100E00BBF02C007905C
:1000F0000D92AC32B107D9F721E0ACE2B1E001C01A
:100100001D92A23AB207E1F7A3D50C940B0A78CF5F
:1001100090917C00907E90937C0090917C00892B44
:1001200080937C0080917A00806480937A00809133
:100130007A0084FFFCCF80917A00806180937A00FE
:10014000809178002091790090E0922B0895E1E66B
:10015000F0E080E88083108211B812B88FEF84B984
:1001600015B880EF87B918B88BEF8AB91BB891EA38
:1001700094BD82E085BD16BC17BC18BC909380006E
:100180008093810010928500109284001092870065
:1001900010928600109289001092880010928B00B5
:1001A00010928A001092B6009093B0008093B10034
:1001B0001092B2001092B3001092B400109290000E
:1001C0009DE09093910010929500109294001092EF
:1001D0009700109296001092990093E690939800E1
:1001E00010929B0010929A0010926E0010926F0075
:1001F000109270008093710060E070E088EA91E4F2
:10020000C4D7615071097093CD006093CC00E9ECC4
:10021000F0E088E18083AAECB0E08C9186608C935A
:1002200080818068808308951F920F920FB60F928D
:1002300011240BB60F922F933F934F935F936F93BD
:100240007F938F939F93AF93BF93EF93FF9380918F
:10025000C80087FFFCCF8091CE008535A1F0479A7A
:10026000FF91EF91BF91AF919F918F917F916F918E
:100270005F914F913F912F910F900BBE0F900FBE4A
:100280000F901F9018958091C80087FFFCCF809138
:10029000CE00982F9F70933011F09111E0CF4798C6
:1002A000807F803509F4A2C010F1803B09F4E2C0E0
:1002B000B8F5803709F477C0803889F6ECE9F1E0C9
:1002C00042EA51E08091C80087FFFCCF9091CE00B8
:1002D0008091C80087FFFCCF2091CE00892F90E04D
:1002E000922B819391934E175F0761F7B8CF8031BE
:1002F00009F4B2C008F469C0803209F458C08033F0
:1003000009F0ADCFEAE8F1E091918091C80085FF56
:10031000FCCF9093CE0081E0E039F807A9F79FCF9A
:10032000803C91F0803D09F09ACF81E090E02091EF
:100330004D0130914E01232B11F080E090E090931D
:100340004E0180934D018BCF8091C80087FFFCCF79
:100350008091CE00809388008091C80087FFFCCFF9
:100360008091CE0080938A008091C80087FFFCCFE7
:100370008091CE0087BD8091C80087FFFCCF80911F
:10038000CE0088BD8091C80087FFFCCF8091CE0051
:100390008093B3008091C80087FFFCCF8091CE008E
:1003A0008093B4005CCF81E08093830158CFE0E973
:1003B000F1E091918091C80085FFFCCF9093CE0031
:1003C00081E0E639F807A9F74ACF811148CFECE977
:1003D000F1E022EA31E091918091C80085FFFCCFE5
:1003E0009093CE002E173F07B1F739CF60913501BA
:1003F00070913601809137019091380166D57093E4
:10040000300160932F016091390170913A01809120
:100410003B0190913C0159D57093320160933101B9
:1004200060913D0170913E0180913F0190914001AA
:100430004CD57093340160933301EFE2F1E025E392
:1004400031E091918091C80085FFFCCF9093CE0060
:100450002E173F07B1F703CFE6E9F1E091918091C4
:10046000C80085FFFCCF9093CE0081E0EC39F807FF
:10047000A9F7F5CEE4E8F1E04AE851E08091C80040
:1004800087FFFCCF9091CE008091C80087FFFCCF02
:100490002091CE00892F90E0922B819391934E175B
:1004A0005F0761F7DCCE4F925F926F927F928F92DF
:1004B0009F92AF92BF92CF92DF92EF92FF92CF9333
:1004C000DF93CDB7DEB72E970FB6F894DEBF0FBE21
:1004D000CDBF9E878D878090410190904201A09072
:1004E0004301B0904401C0904501D0904601E09096
:1004F0004701F09048014090490150904A016090B6
:100500004B0170904C01A5019401C501B40177D64F
:1005100069837A838B839C83A7019601C701B60107
:100520006ED66D837E838F839887A3019201C3016A
:10053000B20165D669877A878B879C872D813E813A
:100540004F81588569817A818B819C81EBD3298584
:100550003A854B855C85E6D3DFD620E030E040EA83
:1005600052E444D487FD42C02AE037ED43E25CE325
:10057000C501B40144D69B01AC01ED85FE856081C7
:10058000718182819381CED3ED85FE8560837183F5
:10059000828393832AE037ED43E25CE3C701B6012F
:1005A0002ED69B01AC01ED85FE8564817581868127
:1005B0009781B8D3ED85FE856483758386839783A1
:1005C0002AE037ED43E25CE3C301B20118D69B0198
:1005D000AC01ED85FE856085718582859385A2D30A
:1005E000ED85FE8560877187828793872E960FB68B
:1005F000F894DEBF0FBECDBFDF91CF91FF90EF909B
:10060000DF90CF90BF90AF909F908F907F906F9032
:100610005F904F900895EF92FF920F931F93CF93A7
:10062000DF9380E075DD7C0183E072DDEC010BE798
:1006300011E0B701FF0C880B990B7AD420E030E071
:1006400040E85AE3DCD52CEE31E548EB50E4D7D551
:1006500026E636E646EA5FE364D3F80160837183F9
:1006600082839383BE01DD0F880B990B61D420E058
:1006700030E040E85AE3C3D52CEE31E548EB50E4D6
:10068000BED528E03CEA4CEB5FE34BD3F801648332
:10069000758386839783DF91CF911F910F91FF9090
:1006A000EF9008954F925F926F927F928F929F92F8
:1006B000AF92BF92CF92DF92EF92FF92CF93DF93F0
:1006C000CDB7DEB72A970FB6F894DEBF0FBECDBF09
:1006D0009A8789874A015B01DC018D919D910D907C
:1006E000BC91A02D89839A83AB83BC83CB01BA01D3
:1006F00081D36B017C01E985FA8544805580668051
:100700007780C501B401FED54B015C01A7019601BC
:1007100069817A818B819C8172D56D837E838F8381
:100720009887A5019401C301B20169D59B01AC0171
:100730006D817E818F819885F4D2A985BA856D936C
:100740007D938D939C931397A501940169817A8180
:100750008B819C8154D54B015C01A3019201C7019F
:10076000B6014DD59B01AC01C501B401DBD2E985D1
:10077000FA8564837583868397832A960FB6F894E7
:10078000DEBF0FBECDBFDF91CF91FF90EF90DF9026
:10079000CF90BF90AF909F908F907F906F905F9021
:1007A0004F9008952F923F924F925F926F927F9257
:1007B0008F929F92AF92BF92CF92DF92EF92FF9271
:1007C0000F931F93CF93DF93CDB7DEB72C970FB660
:1007D000F894DEBF0FBECDBF7C01DC016D917D9131
:1007E0008D919C9107D323E7C22E21E0D22E20E0E9
:1007F00030E048EC51E403D5F6012081318142819B
:10080000538190D22B013C010BE611E0D8016D938E
:100810007D938D939C931397F70160817181828101
:10082000938170D520E030E048EC51E4E8D4D60163
:1008300014962D913D914D915C91179773D26987D4
:100840007A878B879C87F801648375838683978377
:10085000D7011496CD90DD90ED90FC901797C701CD
:10086000B601C8D234E2232E31E0332E20E030E04E
:1008700048EC51E4C4D4F10120813181428153819B
:1008800051D24B015C01A3E6B1E06D937D938D9352
:100890009C931397C701B60135D520E030E048ECB2
:1008A00051E4ADD4F10124813581468157813AD29A
:1008B0006B017C016093670170936801809369010B
:1008C00090936A01A3019201C501B4012AD22B01C0
:1008D0003C0129853A854B855C85C701B60121D24B
:1008E0004B015C01A3019201C301B20188D46B01E9
:1008F0007C01A5019401C501B40181D49B01AC0127
:10090000C701B6010FD208D56B017C019B01AC0178
:1009100076D420E030E048EC54E404D220E030E02B
:1009200048EC54E4FED169877A878B879C8720E066
:1009300030E040EA52E4C701B60161D49B01AC014A
:1009400069857A858B859C8558D2DDD169877A87C0
:100950008B879C8720E030E040E252E4C301B20183
:100960004ED4A701960149D269837A838B839C83F5
:1009700020E030E040E252E4C501B40140D4A701D8
:1009800096013BD26D837E838F83988749855A85F4
:100990006B857C85CE01019685DE2D813E814F8160
:1009A0005885D80114966D917D918D919C911797E2
:1009B000B9D14B015C0147E5E42E41E0F42E2981D9
:1009C0003A814B815C81F8016081718182819381E0
:1009D000A9D10FE411E0D8012D913D914D915C9189
:1009E000A0D1F7016083718382839383D801149629
:1009F0002D913D914D915C911797C501B40191D115
:100A0000F70164837583868397832C960FB6F894D9
:100A1000DEBF0FBECDBFDF91CF911F910F91FF9031
:100A2000EF90DF90CF90BF90AF909F908F907F908E
:100A30006F905F904F903F902F9008952F923F922C
:100A40004F925F926F927F928F929F92AF92BF92DE
:100A5000CF92DF92EF92FF920F931F93CF93DF938A
:100A6000CDB7DEB768970FB6F894DEBF0FBECDBF27
:100A700019821A821B821C821D821E821F82188686
:100A800019861A861B861C86C0905B01D0905C017B
:100A9000E0905D01F0905E0120E030E040E450E441
:100AA000C701B6016ED318160CF4CBC060E070E03D
:100AB00080EA91E4A7019601A2D36D8B7E8B8F8B88
:100AC000988FCB01AF89B88D8093410190934201FB
:100AD000A0934301B093440120E030E040EA51E4A8
:100AE00060915701709158018091590190915A017C
:100AF00086D360934501709346018093470190939C
:100B000048011092490110924A0110924B01109233
:100B10004C01CE0101961C0190E0892E91E0992EA6
:100B2000FE013D96FC8BEB8B8101412C512C320157
:100B30002DE4A22E21E0B22E85E4E82E81E0F82EED
:100B400064018D899E89AF89B88D9C01AD01F60144
:100B500061917191819191916F0151D39B01AC0190
:100B6000C301B201DFD02B013C01AE14BF0439F048
:100B7000F70121913191419151917F01E8CFF80125
:100B800061937193819391938F01FCE08F0E911C7F
:100B90008B899C890817190731F0F8014080518032
:100BA00062807380C9CF7E01F3E1EF0EF11CF10189
:100BB00061917191819191911F0184D386D16F3F91
:100BC000710509F0BCF56130FFEF7F07ACF177FDEF
:100BD0003DC0F801108261830E5F1F4FE016F106E1
:100BE00031F78E8580938A008D85809388008F856C
:100BF00087BD888988BD89898093B3008A8980935D
:100C0000B40068960FB6F894DEBF0FBECDBFDF917B
:100C1000CF911F910F91FF90EF90DF90CF90BF90F9
:100C2000AF909F908F907F906F905F904F903F908C
:100C30002F9008956FEFCDCF6FEFF8016083118291
:100C4000CBCF60E070E080EF91E434CF6195F5CFD9
:100C50001F93CF93DF937BDA83E393E3ABE1B1E4BC
:100C600080934F0190935001A0935101B093520192
:100C700086E696E6A8E4B2E480935301909354018B
:100C8000A0935501B09356014798469A479A1092FF
:100C900091007894C0E0D0E010E48091830181114C
:100CA00008C0C832D1057CF4219680918301882345
:100CB000C1F3469A85E08093910080E090E0DF9157
:100CC000CF911F9108954DE251E06CE271E085E310
:100CD00091E0E9DBA0DC8BE791E064DD80914D01E0
:100CE00090914E01892B69F088B1812788B92FE74F
:100CF0008AE196E0215080409040E1F700C000007A
:100D0000CCCF9CDEF1CF9F939F774DD10F900020E9
:100D10003AF49058A2EA2AED3FE049E450E413D0B7
:100D2000E5C15058BB27AA270ED0E0C1A9D130F0A9
:100D3000AED120F031F49F3F11F41EF479C10EF4CE
:100D4000E095E7FB6FC1E92FF3D180F3BA17620793
:100D500073078407950718F071F49EF50BC20EF423
:100D6000E0950B2EBA2FA02D0B01B90190010C01BB
:100D7000CA01A0011124FF27591B99F0593F50F4D3
:100D8000503E68F11A16F040A22F232F342F44272B
:100D9000585FF3CF469537952795A795F040539523
:100DA000C9F77EF41F16BA0B620B730B840BBAF0F3
:100DB0009150A1F0FF0FBB1F661F771F881FC2F75E
:100DC0000EC0BA0F621F731F841F48F48795779572
:100DD0006795B795F7959E3F08F0B3CF9395880F29
:100DE00008F09927EE0F979587950895F7D008F4A6
:100DF00081E0089554D1E3958AC10CD077C147D1E1
:100E000040F03ED130F021F45F3F19F00BC1511199
:100E1000B2C10EC18DD198F39923C9F35523B1F313
:100E2000951B550BBB27AA2762177307840738F059
:100E30009F5F5F4F220F331F441FAA1FA9F333D0B8
:100E40000E2E3AF0E0E830D091505040E695001C6C
:100E5000CAF729D0FE2F27D0660F771F881FBB1F28
:100E6000261737074807AB07B0E809F0BB0B802D02
:100E7000BF01FF2793585F4F2AF09E3F510568F04E
:100E8000D1C079C15F3FECF3983EDCF3869577954E
:100E90006795B795F7959F5FC9F7880F911D969550
:100EA000879597F90895E1E0660F771F881FBB1FAC
:100EB000621773078407BA0720F0621B730B840B59
:100EC000BA0BEE1F88F7E095089504D06894B1112D
:100ED00052C1089535D188F09F5790F0B92F9927C6
:100EE000B751A0F0D1F0660F771F881F991F1AF035
:100EF000BA95C9F712C0B13081F03CD1B1E0089584
:100F000039C1672F782F8827B85F39F0B93FCCF304
:100F1000869577956795B395D9F73EF4909580952A
:100F2000709561957F4F8F4F9F4F0895E89409C04A
:100F300097FB3EF490958095709561957F4F8F4F0C
:100F40009F4F9923A9F0F92F96E9BB279395F69522
:100F5000879577956795B795F111F8CFFAF4BB0FA0
:100F600011F460FF1BC06F5F7F4F8F4F9F4F16C004
:100F7000882311F096E911C0772321F09EE8872F8E
:100F8000762F05C0662371F096E8862F70E060E04A
:100F90002AF09A95660F771F881FDAF7880F9695C3
:100FA000879597F90895DF93CF931F930F938B0144
:100FB000EC01ECE8F0E03FD099D09801AE018B0154
:100FC000EC0160E070E080E89FE3ABDEA5D1980122
:100FD000AE010F911F91CF91DF911DC1990F0008B4
:100FE000550FAA0BE0E8FEEF16161706E807F907FB
:100FF000C0F012161306E407F50798F0621B730B96
:10100000840B950B39F40A2661F0232B242B252B16
:1010100021F408950A2609F4A140A6958FEF811DB9
:10102000811D089597F99F6780E870E060E008955A
:101030009FEF80EC0895DF93CF931F930F93FF9260
:10104000EF92DF927B018C01689405C0DA2EEF01EC
:10105000E2D0FE01E894A5912591359145915591F5
:10106000AEF3EF0170DEFE019701A801DA9479F783
:10107000DF90EF90FF900F911F91CF91DF91089536
:1010800000240A9416161706180609060895002467
:101090000A9412161306140605060895C9CF50D0F7
:1010A000E8F3E894E0E0BB279F57F0F02AED3FE03B
:1010B00049EC06C0EE0FBB0F661F771F881F28F094
:1010C000B23A62077307840728F0B25A620B730BB7
:1010D000840BE3959A9572F7803830F49A95BB0F9C
:1010E000661F771F881FD2F7904871C1092E03949D
:1010F000000C11F4882352F0BB0F40F4BF2B11F405
:1011000060FF04C06F5F7F4F8F4F9F4F0895EF9335
:10111000E0FF06C0A2EA2AED3FE049EC5FEB13DEF8
:10112000E5DF0F90039401FC9058E4EBF0E062C11E
:1011300057FD9058440F551F59F05F3F71F0479588
:10114000880F97FB991F61F09F3F79F0879508956D
:10115000121613061406551FF2CF4695F1DF08C08C
:10116000161617061806991FF1CF869571056105A9
:1011700008940895E894BB2766277727CB0197F951
:1011800008952CDF08F48FEF0895DADFA8F19E5759
:10119000A8F1985160F039F1983070F5092E99272F
:1011A000660F771F881F991F0A94D1F71CC0BB27B1
:1011B000993F4CF4B111B1E0B62B672F782F8827F7
:1011C000985FB1F708C0869577956795B79508F44D
:1011D000B1609395C1F7BB0F30F411F460FF03C009
:1011E0006F5F7F4F8F4F3EF490958095709561951E
:1011F0007F4F8F4F9F4F08956894BDCFBBCF0BD0CB
:1012000075CF3EDF28F043DF18F0952309F00ACFB1
:101210000FCF1124B0CF8CDFA0F3959FD1F3950FA2
:1012200050E0551F629FF001729FBB27F00DB11D6A
:10123000639FAA27F00DB11DAA1F649F6627B00DFA
:10124000A11D661F829F2227B00DA11D621F739FE3
:10125000B00DA11D621F839FA00D611D221F749FF1
:101260003327A00D611D231F849F600D211D822F38
:10127000762F6A2F11249F5750408AF0E1F088237F
:101280004AF0EE0FFF1FBB1F661F771F881F91508C
:101290005040A9F79E3F510570F0C4CE6CCF5F3F20
:1012A000ECF3983EDCF3869577956795B795F795BF
:1012B000E7959F5FC1F7FE2B880F911D9695879547
:1012C00097F908953DDFE0F09E37D8F09639B8F4ED
:1012D0009E3848F4672F782F8827985FF9CF869536
:1012E0007795679593959539D0F3B62FB1706B0FBD
:1012F000711D811D20F487957795679593954AC058
:1013000064C039CF9F93CBDE0F9007FCEE5FFFCE1A
:1013100011F40EF48DCE59C013DFD0F39923D9F315
:10132000CEF39F57550B87FF5ED00024A0E640EA1E
:10133000900180585695979528F4805C660F771F2A
:10134000881F20F026173707480730F4621B730BFD
:10135000840B202931294A2BA69517940794202520
:1013600031254A2758F7660F771F881F20F0261768
:101370003707480730F4620B730B840B200D311DC7
:10138000411DA09581F7B901842F9158880F96953A
:1013900087950895882371F4772321F09850872B3F
:1013A000762F07C0662311F499270DC09051862B24
:1013B00070E060E02AF09A95660F771F881FDAF7D1
:1013C000880F9695879597F908959F3F31F0915032
:1013D00020F4879577956795B795880F911D969519
:1013E000879597F9089591505040660F771F881F91
:1013F000D2F708959F938F937F936F93FF93EF930B
:101400009B01AC01FCDEEF91FF9115DE2F913F9126
:0A1410004F915F91F4CEF894FFCFE6
:10141A0017B7513F73D7123F8BFD25BE000000005E
:10142A00000080BF7B14AEBF17B751BF73D7123FFE
:0C143A008BFD25BE52B8B641000000003A
:0400000500800183F3
:00000001FF
